:020000040000FA
:1000000090EFB0F0120012002CEF94F01200FFFFFE
:1000100012D3F8CD0D0A0000CFEF93F012001600B6
:100020008162010098080000010000007A6201006E
:10003000780E0000070000007962010097080000B8
:100040000100000076620100860800000300000045
:100050004D620100D7050000290000004B6201003D
:100060009108000002000000476201007C080000C7
:10007000040000003E620100690800000900000061
:10008000C6610100000E000078000000C56101009B
:100090009608000001000000C36101008F08000005
:1000A00002000000C16101008D0800000200000094
:1000B000A66101001B0800001B000000DDF300002A
:1000C0009508000001000000A16101007708000010
:1000D0000500000017000000940800000100000067
:1000E00092610100460800000F00000090610100CD
:1000F0008B080000020000008C610100FC0300007E
:10010000040000008A61010089080000020000006C
:10011000886101005E0F000002000000866101009E
:10012000FE000000020000000401435108018B5D45
:1001300001E140D0FE0E8B5D1BE01C0EE66EE66A10
:10014000270EE66E040EE66E8B511C0DF3CF14F0F5
:10015000F4CF15F0000E14260F0E152214C0E6FF82
:1001600015C0E6FF2EECA5F0166E060EE15E1650E9
:1001700043C48BF8FE0E0401435D01E11BD01C0E4D
:10018000E66EE66A43511C0DF3CF14F0F4CF15F080
:10019000000E14260F0E152214C0E6FF15C0E6FF50
:1001A000270EE66E040EE66E2EECA5F0166E060E19
:1001B000E15E1650120008018B518C5D01E169D09F
:1001C000FE0E8C5D32E0250E0401B86FB96B0401A0
:1001D000010EB76F0401020EB56F040EB66F080171
:1001E0008C511C0DF3CFE9FFF4CFEAFF000EE92696
:1001F0000F0EEA221B0EE926000EEA22EFCFB4F41E
:100200008C511C0DF3CFE9FFF4CFEAFF000EE92675
:100210000F0EEA22EECFB2F4EFCFB3F40401250EB5
:10022000B25F000EB35BBFEC1FF08BC88CF8250EDD
:100230000401B86FB96B08018C511C0DF3CFE9FFB5
:10024000F4CFEAFF000EE9260F0EEA221B0EE92684
:10025000000EEA22EFCFB7F48B511C0DF3CFE9FF6C
:10026000F4CFEAFF000EE9260F0EEA22EECFB5F436
:10027000EFCFB6F40401250EB55F000EB65B0401A6
:10028000010EB46F0401020EB26F040EB36FBFEC27
:100290001FF012000C01340E096F190E0A6F3C0E8C
:1002A000E66EE66AE66AC20EE66E040EE66E7CEC68
:1002B000A5F0146E050EE15E14500C01016B006B8D
:1002C0000051146E156A030E145C000E155801E3FC
:1002D00026D100CC43F428DF6EDF6E0E146E610E63
:1002E000156E010E166E00CC17F0186A196A060E0C
:1002F0000C6E0D6A0E6A17C007F018C008F019C01E
:1003000009F056EC98F004C017F005C018F006C0CC
:1003100019F014501724F36E15501820F46E16506F
:100320001920F86EF4CFF7FFF3CFF6FFF62A000E90
:10033000F722F8220800F5CF08FC6E0E146E610E4D
:10034000156E010E166E00CC17F0186A196A060EAB
:100350000C6E0D6A0E6A17C007F018C008F019C0BD
:1003600009F056EC98F004C017F005C018F006C06C
:1003700019F014501724F36E15501820F46E16500F
:100380001920F86EF4CFF7FFF3CFF6FF020EF62632
:10039000000EF722F8220900F5CF02FC0A00F5CF83
:1003A00003FC6E0E146E610E156E010E166E00CCFF
:1003B00017F0186A196A060E0C6E0D6A0E6A17C0DD
:1003C00007F018C008F019C009F056EC98F004C006
:1003D00017F005C018F006C019F014501724F36E7A
:1003E00015501820F46E16501920F86EF4CFF7FF50
:1003F000F3CFF6FF040EF626000EF722F8220900CE
:10040000F5CF04FC0A00F5CF05FC0C01085101E012
:1004100085D009CC06FC0ACC07FC250E176A0225FC
:10042000166E03511722010E1626000E17221650C3
:100430000425146E17500521156E010E1426000EAA
:1004400015221450092715500A2309CC14F00ACCA0
:1004500015F0166A176AD8803A0E14541E0E1554F9
:10046000000E1654000E175401E2EFD76E0E146EF4
:10047000610E156E010E166E00CC17F0186A196A1F
:10048000060E0C6E0D6A0E6A17C007F018C008F051
:1004900019C009F056EC98F004C017F005C018F028
:1004A00006C019F014501724F36E15501820F46E7E
:1004B00016501920F86EF4CFF7FFF3CFF6FF0800BF
:1004C000F5CF26F408CC42F4250E0C0106250401D4
:1004D000276F000E0C0107210401286F27510C0122
:1004E00002250401296F28510C01032104012A6F00
:1004F000010E2927000E2A2329510C01042504018D
:100500002B6F2A510C01052104012C6F0D0E3D6F3C
:100510003E97C9EC16F00C01002BD2D6FFD7120083
:100520000C01A76BA751146E156A030E145C000E24
:10053000155801E3AFD0A7CC43F4F6DD0D0E04014E
:100540003D5D01E0A4D037DE04014B51265D01E0A2
:100550009ED048510CE149C412F44AC413F43E87BA
:10056000040E3D6F49C440F44AC441F48DD0000EDE
:10057000005D040E015906E3880ED8800055130E65
:10058000015503E2006B040E016F00C412F401C4B4
:1005900013F4002B000E012349C410F44AC411F4D3
:1005A000A4ECAEF006C035F407C036F408C037F44A
:1005B00009C038F404013E894851040A26E0070ABC
:1005C00001E062D046514425166E47514521176E11
:1005D00016504925146E17504A21156E14501219E1
:1005E000406F15501319416F44C418F445C419F4F1
:1005F00046C41AF447C41BF4256B270E026F036B25
:10060000046B056B020E3D6F3FD044C4E9FF45C447
:10061000EAFF020EE926000EEA22EECF18F0EFCF35
:1006200019F044C4E9FF45C4EAFF1850EE24166EE1
:100630001950EE20176E16504925146E17504A2196
:10064000156E14501219406F15501319416F0A0E90
:10065000E66EE66A44C4E6FF45C4E6FF180EE66EA1
:10066000040EE66E2EECA5F0146E060EE15E14503C
:100670000401050E3D6F0401010EA16F0401020E7D
:10068000A06F17EC10F000D00C01A75105D00C01A1
:10069000A72B48D7FE0E00D012004CC443F444DD13
:1006A00004013FA903D03F99010E02D0000E00D0F3
:1006B00012004DC443F438DD070E04013D5D02E035
:1006C000000E01D0010E00D012004EC443F42CDD08
:1006D00031C433F432C434F404013D51080A2DE02E
:1006E000010A2BE0050A29E0020A24E0050A16E0C7
:1006F0000D0A08E0010A06E0020A01E01ED0C9EC7A
:1007000016F025D00401010EA16F0401110EA06F97
:1007100017EC10F00401080E3D6F19D00401010E12
:10072000A16F0401110EA06F17EC10F004010C0E64
:100730003D6F0DD00D0E3D6F0AD00401A16B040179
:10074000140EA06F17EC10F0C9EC16F000D01200D8
:1007500032DD0A0EE66EE66A180EE66E040EE66EEE
:10076000500EE66E040EE66E2EECA5F0146E060E2C
:10077000E15E145010C45AF411C45BF4500E146EB0
:10078000040E156E14C0F3FF15C0F4FF00D0120064
:100790005CC443F4C9DC0FDD04010E512D1902E1E4
:1007A0000F512E1908E00401010EA16F0401100E73
:1007B000A06F17EC10F012005DC443F4B5DC3DC42B
:1007C00055FC070E0C01555D06E00B0E555D03E070
:1007D000F36AF46A2FD004012F512D5D30512E5948
:1007E0001BE32751295D166E2A512855176E1606F0
:1007F000000E175A2F512D5D186E2E513055196E5F
:100800001850165C146E19501758156E14C0F3FF6B
:1008100015C0F4FF0FD00ED02D512F5D146E305146
:100820002E55156E1406000E155A14C0F3FF15C090
:10083000F4FF00D012005EC443F476DC5EC45DF4C5
:10084000BBDFF3CF05FCF4CF06FC0C01055106110C
:1008500003E1000E63D008D0010E051901E1065135
:1008600003E15EC45CF494DF04013F51010B14E129
:100870002751295D146E2A512855156ED8901532CE
:1008800014320C010551145C0651155805E35EC481
:100890005CF47EDF04013F81010E0401B86FB96B87
:1008A0000401B76F04015F0EB56F040EB66F42C44A
:1008B000B4F42DC4B2F42EC4B3F4BFEC1FF00401A1
:1008C0002D2B000E2E2329512D5D2A512E5904E384
:1008D00027C42DF428C42EF40C01010E051901E1E2
:1008E000065104E15EC45CF453DF16D004013EBB44
:1008F00013D03E8BAFECAEF006C014F007C015F07D
:10090000166A176A060E1426000E152216221722E2
:1009100014C039F415C03AF4010E00D012000C01D5
:10092000BF6BC06B60C443F494EC00F060C45DF432
:1009300043DFF3CFBDFCF4CFBEFC0C01BD51BE11B3
:1009400006E160C45CF424DFF36AF46AADD0BDCC88
:10095000BBFCBECCBCFCBD510401635D0C01BE51AF
:100960000401645904E263C4BBFC64C4BCFC3F5191
:10097000010B14E12751295D146E2A512855156E7B
:10098000D890153214320C01BD51145CBE5115586B
:1009900005E360C45CF4FCDE04013F8104012D51D9
:1009A0000C01BB25146E04012E510C01BC21156EE7
:1009B00004012951145C2A5115582DE32D51295D4C
:1009C0000C01BF6F04012E512A590C01C06FBFCC1E
:1009D000B8F4C0CCB9F40401010EB76F61C4B5F42A
:1009E00062C4B6F442C4B4F42DC4B2F42EC4B3F459
:1009F000BFEC1FF00C01BF51040161270C01C05175
:100A0000040162230C01BF51BB5FC051BC5B27C412
:100A10002DF428C42EF4BBCCB8F4BCCCB9F404013A
:100A2000010EB76F61C4B5F462C4B6F442C4B4F445
:100A30002DC4B2F42EC4B3F4BFEC1FF00C01BB51B3
:100A400004012D270C01BC5104012E230C01BD51C2
:100A50000401635D0C01BE510401645904E360C4E8
:100A60005CF496DE15D03EBB13D03E8BAFECAEF0FF
:100A700006C014F007C015F0166A176A060E142691
:100A8000000E15221622172214C039F415C03AF4AC
:100A90000C01BB51BF25146EBC51C021156E14C092
:100AA000F3FF15C0F4FF00D012000C01166B176B9A
:100AB00065C443F494EC00F065C45DF47DDEF3CFCF
:100AC00014FCF4CF15FC0C011451151106E165C49A
:100AD0005CF45EDEF36AF46AB0D004013F51010BAE
:100AE00014E12751295D146E2A512855156ED890AE
:100AF000153214320C011451145C1551155805E3CC
:100B000065C45CF445DE04013F8114CC12FC15CCB5
:100B100013FC0C0114510401695D0C011551040111
:100B20006A5904E269C412FC6AC413FC2D510C0119
:100B30001225146E04012E510C011321156E0401AF
:100B40002951145C2A51155830E32D51295D0C01AF
:100B5000166F04012E512A590C01176F16CCC0F4E0
:100B600017CCC1F466C4BDF467C4BEF468C4BFF456
:100B700042C4BCF42DC4BAF42EC4BBF41FEC20F064
:100B800016CC14F017CC15F0166A14500401662721
:100B900015506723165068230C011651125F175128
:100BA000135B27C42DF428C42EF412CCC0F413CC4C
:100BB000C1F466C4BDF467C4BEF468C4BFF442C4E3
:100BC000BCF42DC4BAF42EC4BBF41FEC20F00C010D
:100BD000125104012D270C01135104012E230C0185
:100BE00014510401695D0C01155104016A5904E3B3
:100BF00065C45CF4CDDD15D03EBB13D03E8BAFECAD
:100C0000AEF006C014F007C015F0166A176A060E9B
:100C10001426000E15221622172214C039F415C00E
:100C20003AF40C0112511625146E13511721156E4A
:100C300014C0F3FF15C0F4FF00D012006CC4E6FF2F
:100C40006DC4E6FF06ECA6F0E552E552F3CF63F47F
:100C5000F4CF64F46CC461F46DC462F46BC460F4EA
:100C60005EDE04016C51F324146E6D51F420156E98
:100C700014C0F3FF15C0F4FF00D012006FC4E6FFEC
:100C800070C4E6FF71C4E6FF14ECA6F0E552E5522D
:100C9000E55207C069F408C06AF46FC466F470C412
:100CA00067F471C468F46EC465F4FFDEF3CF17F027
:100CB000F4CF18F0196A04016F511724146E7051A3
:100CC0001820156E71511920166E14C007F015C04A
:100CD00008F016C009F000D0120072C443F494EC7E
:100CE00000F004012751295D0C01026F0401285115
:100CF0002A590C01036F010E025F000E035B72C4E0
:100D00005DF45ADDF3CF00FCF4CF01FC0C0100517F
:100D1000025D146E03510155156E14C0F3FF15C02A
:100D2000F4FF00D0120073C474F418D8F3CF14F099
:100D3000F4CF15F01450151010E073C443F494EC84
:100D400000F031C433F432C434F40401010EA16F55
:100D50000401100EA06F17EC10F0120074C443F4DD
:100D600094EC00F004013351315D345132590CE3FD
:100D70003351315D146E32513455156E14C0F3FF8A
:100D800015C0F4FF1CD01BD033512B5D166E2C51B7
:100D90003455176E010E1626000E17222951315DAB
:100DA000186E32512A55196E16501824146E1750A9
:100DB0001920156E14C0F3FF15C0F4FF00D0120007
:100DC00075C474F4CBDFF3CF34FCF4CF35FC0C01E5
:100DD0003451351102E1000E48D075C443F494EC4F
:100DE00000F004017651771112E0010E0401B86F92
:100DF000B96B42C4B7F433C4B5F434C4B6F40401D7
:100E0000B46F76C4B2F477C4B3F4BFEC1FF004013E
:100E1000332B000E342333512B5D34512C5904E213
:100E200029C433F42AC434F40C01010E341901E14D
:100E3000355103E104013F8516D004013EBB13D0B8
:100E40003E8BAFECAEF006C014F007C015F0166A8A
:100E5000176A060E1426000E15221622172214C039
:100E600039F415C03AF4010E00D012000C01636B86
:100E7000646B78C474F472DFF3CF61FCF4CF62FC6E
:100E80000C016151621103E1F36AF46AA1D078C4E4
:100E900043F494EC00F004017B510C01615D04010A
:100EA0007C510C01625904E261CC7BF462CC7CF48D
:100EB000040133517B25146E34517C21156E14507E
:100EC0002B5D15502C5938E233512B5D0C01636FAB
:100ED000040134512C590C01646F010E6327000E7C
:100EE0006423040179517A111BE063CCB8F464CC1B
:100EF000B9F442C4B7F433C4B5F434C4B6F404014D
:100F0000010EB46F79C4B2F47AC4B3F4BFEC1FF02D
:100F10000C016351040179270C01645104017A2307
:100F20000C01635104017B5F0C01645104017C5B83
:100F300029C433F42AC434F479517A1113E07BC400
:100F4000B8F47CC4B9F442C4B7F433C4B5F434C4BF
:100F5000B6F40401010EB46F79C4B2F47AC4B3F4E8
:100F6000BFEC1FF004017B5133277C5134230C016B
:100F7000635104017B270C01645104017C237B51E4
:100F80000C01615D146E625104017C55156E1450A4
:100F90007B5D15507C5902E33F8515D03EBB13D0D5
:100FA0003E8BAFECAEF006C014F007C015F0166A29
:100FB000176A060E1426000E15221622172214C0D8
:100FC00039F415C03AF47BC4F3FF7CC4F4FF00D0BD
:100FD00012007DC443F494EC00F0040129512B5D10
:100FE0000C01026F04012A512C590C01036F7DC4BE
:100FF00074F4B4DEF3CF00FCF4CF01FC0C0100511B
:10100000025D146E03510155156E14C0F3FF15C037
:10101000F4FF00D0120004018151821103E1F36A50
:10102000F46AB2D17EC443F494EC00F07EC474F44C
:1010300095DE04018351F35C0C01366F0401845189
:10104000F4580C01376F040181510C01365D040125
:1010500082510C01375903E2F368F46895D1040119
:10106000855186110DE00C0136510401855D0C019E
:1010700037510401865904E285C436FC86C437FC26
:10108000335183250C013A6F0401345184210C0142
:101090003B6F3A5104012B5D0C013B5104012C596B
:1010A0000FE229512B5D146E2C512A55156E010E3D
:1010B0001426000E152214500C013A5F15503B5BAC
:1010C0003ACC34FC3BCC35FC0C013A5104012B5D8D
:1010D0000C01386F3B5104012C590C01396F010E82
:1010E0003827000E392383C43AFC84C43BFC81C4F6
:1010F0003CFC82C43DFC7FC43EFC80C43FFC040138
:101100007FC4E9FF80C4EAFF7F2B8023EFCF41FC3F
:101110000C01436B0401875109E0610E0C01415D34
:1011200005E341517A0802E3E00E41270C01200E4D
:10113000426F4251385D000E395902E238CC42FC10
:101140004251365D000E375902E236CC42FC425124
:101150000401B86FB96B42C4B7F434CCB5F435CCE4
:10116000B6F40401010EB46F0401440EB26F0C0E0C
:10117000B36FBFEC1FF00C014251146E156A14508E
:101180003427155035234251146E156A1450385FB8
:101190001550395B3851391106E129C434FC2AC491
:1011A00035FC386939690401875101E181D00C01AE
:1011B000406B4251405D01E37AD04051EA6A440FEE
:1011C000E96E0C0EEA22EFCF14F0610E145C13E30B
:1011D0004051EA6A440FE96E0C0EEA22EF507A0899
:1011E0000AE3E00E146E4051EA6A440FE96E0C0EF9
:1011F000EA221450EF264051EA6A440FE96E0C0EC1
:10120000EA22EF50415D33E104018107000E825B69
:101210008151821117E10C013C513A5D166E3B5130
:101220003D55176E405100011624146E000E172014
:10123000156E010E1426000E152214C0F3FF15C002
:10124000F4FFA2D07FC4E9FF80C4EAFF7F2B000E29
:101250008023EFCF41FC0C01010E436F610E415D15
:1012600005E341517A0802E3E00E41271ED03CCC51
:1012700081F43DCC82F4435118E03ECC7FF43FCC66
:1012800080F404017FC4E9FF80C4EAFF7F2B000ED5
:101290008023EFCF41FC610E0C01415D05E341511C
:1012A0007A0802E3E00E4127436B402B82D751D0EE
:1012B0000C01406B4251405D4CE24051EA6A440FE0
:1012C000E96E0C0EEA22EF50415D2BE1040181072B
:1012D000000E825B8151821117E10C013C513A5D95
:1012E000166E3B513D55176E405100011624146E89
:1012F000000E1720156E010E1426000E152214C0C4
:10130000F3FF15C0F4FF40D07FC4E9FF80C4EAFFBB
:101310007F2B000E8023EFCF41FC0C01010E436FA9
:1013200016D03CCC81F43DCC82F4435110E03ECC4D
:101330007FF43FCC80F404017FC4E9FF80C4EAFF5E
:101340007F2B000E8023EFCF41FC0C01436B402B21
:10135000B1D74251146E156A1450365F1550375B81
:10136000040181510C01365D040182510C01375991
:1013700003E2F368F46808D04251146E156A145001
:101380003A2715503B23D2D6120004018C518D11FF
:1013900003E1F36AF46ACCD188C443F494EC00F01E
:1013A00088C474F4DBDC04018E51F35C0C01026F21
:1013B00004018F51F4580C01036F04018C510C018E
:1013C000025D04018D510C01035903E2F368F468D6
:1013D000AFD10401905191110DE00C0102510401B3
:1013E000905D0C0103510401915904E290C402FC88
:1013F00091C403FC33518E250C01066F0401345156
:101400008F210C01076F065104012B5D0C01075160
:1014100004012C590FE229512B5D146E2C512A55D1
:10142000156E010E1426000E152214500C01065FD5
:101430001550075B06CC00FC07CC01FC0C010651E3
:1014400004012B5D0C01046F075104012C590C01A0
:10145000056F010E0427000E05238EC406FC8FC401
:1014600007FC8CC408FC8DC409FC89C40AFC8AC42E
:101470000BFC8BC40CFC040189C4F6FF892B8AC4C5
:10148000F7FF8A238BC4F8FF8B230800F5CF0EFCEF
:101490000C01106B0401925109E0610E0C010E5D0C
:1014A00005E30E517A0802E3E00E0E270C01200E30
:1014B0000F6F0F51045D000E055902E204CC0FFCC2
:1014C0000F51025D000E035902E202CC0FFC0F51D6
:1014D0000401B86FB96B42C4B7F400CCB5F401CCC9
:1014E000B6F40401010EB46F0401110EB26F0C0EBC
:1014F000B36FBFEC1FF00C010F51146E156A14503E
:101500000027155001230F51146E156A1450045F03
:101510001550055B0451051106E129C400FC2AC4DD
:1015200001FC046905690401925101E18BD00C01B1
:101530000D6B0F510D5D01E384D00D51EA6A110F5F
:10154000E96E0C0EEA22EFCF14F0610E145C13E387
:101550000D51EA6A110FE96E0C0EEA22EF507A087B
:101560000AE3E00E146E0D51EA6A110FE96E0C0EDB
:10157000EA221450EF260D51EA6A110FE96E0C0EA3
:10158000EA22EF500E5D37E104018C07000E8D5BFF
:101590008C518D1117E10C010851065D166E075133
:1015A0000955176E0D5100011624146E000E1720F8
:1015B000156E010E1426000E152214C0F3FF15C07F
:1015C000F4FFB6D089C4F6FF892B8AC4F7FF000E5A
:1015D0008A238BC4F8FF8B230800F5CF0EFC0C0187
:1015E000010E106F610E0E5D05E30E517A0802E3E5
:1015F000E00E0E2724D008CC8CF409CC8DF41051C9
:101600001EE00ACC89F40BCC8AF40CCC8BF40401D8
:1016100089C4F6FF892B8AC4F7FF000E8A238BC486
:10162000F8FF8B230800F5CF0EFC610E0C010E5D58
:1016300005E30E517A0802E3E00E0E27106B0D2B26
:1016400078D75BD00C010D6B0F510D5D56E20D513B
:10165000EA6A110FE96E0C0EEA22EF500E5D2FE1DF
:1016600004018C07000E8D5B8C518D1117E10C016C
:101670000851065D166E07510955176E0D51000190
:101680001624146E000E1720156E010E1426000E7F
:10169000152214C0F3FF15C0F4FF4AD089C4F6FF29
:1016A000892B8AC4F7FF000E8A238BC4F8FF8B2393
:1016B0000800F5CF0EFC0C01010E106F1CD008CCF9
:1016C0008CF409CC8DF4105116E00ACC89F40BCCC3
:1016D0008AF40CCC8BF4040189C4F6FF892B8AC4EC
:1016E000F7FF000E8A238BC4F8FF8B230800F5CF89
:1016F0000EFC0C01106B0D2BA7D70F51146E156A41
:101700001450025F1550035B04018C510C01025D03
:1017100004018D510C01035903E2F368F46808D009
:101720000F51146E156A1450062715500723BED6A4
:10173000120099C487F497C485F498C486F495C4BC
:1017400083F496C484F4010E0401816F826B04015A
:10175000940E7F6F040E806F93C47EF45CDC00D027
:1017600012000C01006B0051146E156A030E145C1C
:10177000000E155801E316D300CC43F494EC00F0AE
:101780000C01036B016B026B04013F51020B03E17F
:101790003F51040B0EE0ADEC89F000090AE00C01AA
:1017A000100E036F04013F51040B01E0010E0C0108
:1017B000016F04013EAB13D0AFECAEF00401065054
:1017C000395D146E07503A59156E153404E2145001
:1017D0000008000E155403E30C01100E036F040102
:1017E0003EAD13D0AFECAEF0040106503B5D146E7D
:1017F00007503C59156E153404E214500008000ED1
:10180000155403E30C01100E036F0B0E04013D5D34
:1018100016E1AFECAEF0040106503B5D146E0750CC
:101820003C59156E153404E214500008000E15548E
:1018300006E30C01110E036F04010C0E3D6F040E44
:101840003D5D01E00AD10C01046B056B030E045DE4
:10185000000E055901E301D104CCE9FF05CCEAFFF4
:10186000140EEA02F3CFEAFFE902F3CFE9FFF450E6
:10187000EA26C20EE926040EEA22100EE926000E20
:10188000EA22EE50ED1001E1E8D004CCE9FF05CCEE
:10189000EAFF140EEA02F3CFEAFFE902F3CFE9FF11
:1018A000F450EA26C20EE926040EEA22100EE926BA
:1018B000000EEA22EECF14F0EFCF15F004014051F4
:1018C000141802E14151151801E0C2D0DBEC00F020
:1018D0000A0EE66EE66A04CCE9FF05CCEAFF140EB8
:1018E000EA02F3CFEAFFE902F3CFE9FFF450EA2678
:1018F000C20EE926040EEA22E9CF14F0EACF15F071
:1019000014C0E6FF15C0E6FF180EE66E040EE66E84
:101910002EECA5F0166E060EE15E165004CCE9FF23
:1019200005CCEAFF140EEA02F3CFEAFFE902F3CF97
:10193000E9FFF450EA26C20EE926040EEA220A0E56
:10194000E926000EEA22EECF10F4EDCF11F404CC1C
:10195000E9FF05CCEAFF140EEA02F3CFEAFFE90241
:10196000F3CFE9FFF450EA26C20EE926040EEA227C
:101970000C0EE926000EEA22EECF0AF4EECF0BF4AD
:10198000EECF0CF4EFCF0DF404010A2B0B230C2344
:101990000D231A511825166E1B511921176E16505A
:1019A0001025146E17501121156E14501219406F26
:1019B00015501319416F0C01120E036F0401060E2E
:1019C0003D6F04CCB8F405CCB9F40401020ED88004
:1019D000B857000EB957140EB903F3CFB9F4B803D2
:1019E000F3CFB8F4F450B9270401010EB76F0C011E
:1019F00004250401B56F000E0C0105210401B66F2A
:101A0000140EB603F3CFB6F4B503F3CFB5F4F45028
:101A1000B627C20EB527040EB6230401010EB46F1B
:101A2000140E086E096A04CC0DF005CC0EF038ECEB
:101A300098F006C0B2F407C0B3F4C20E0401B22796
:101A4000040EB323BFEC1FF00401FA6BFB6B05D04F
:101A50000C01042B000E0523F9D60C0103510AE0FA
:101A6000015102E0000E01D0010E0401A16F03CC70
:101A7000A0F4DDDA04013EB94ED0070E3D5D4AE127
:101A8000A4ECAEF004013551065C146E36510758D3
:101A9000156E37510858166E38510958176E0001E7
:101AA000800E171401E07BD104013E51070B06089C
:101AB00015E13E51080B01E0010E0C01036F00CC53
:101AC0004EF465EC03F000CC4EF465EC03F00C0131
:101AD000035103E104010E0E3D6F61D1DBEC00F018
:101AE0000401020EA16F0401100EA06FA0DAA4EC95
:101AF000AEF006C035F407C036F408C037F409C0AC
:101B000038F4740E04013527350E3623060E3723BC
:101B1000000E382344D1A4ECAEF004013551065C2C
:101B2000146E36510758156E37510858166E3851D5
:101B30000958176E0001800E171401E030D1DBEC5C
:101B400000F004013D510C0A01E1CCD0060A01E18C
:101B5000BAD0030A01E1B1D0010A01E19FD00F0A16
:101B600001E18DD00C0A01E18AD00D0A73E0030A6D
:101B70006BE0060A14E0010A01E0C3D0AFECAEF05E
:101B800006C039F407C03AF40701180EED6F040ED1
:101B9000EE6F30EC9DF00401030E3D6FB2D00701F3
:101BA0001C0EF16F040EF26F0701180EEF6F040E9A
:101BB000F06F74EC9DF000093FE139C418F03AC4AD
:101BC00019F01A6A1B6A18C0E6FF19C0E6FF1AC0AE
:101BD000E6FF1BC0E6FFAFECAEF0E552E7CF1BF02F
:101BE000E552E7CF1AF0E552E7CF19F0E552E7CF1B
:101BF00018F000011850065C146E19500758156E45
:101C00001A500858166E1B500958176E14500401CC
:101C1000025D1550035916500459175005590BE22F
:101C2000060E255D06E2252BD890023703370437D0
:101C30000537020E3D6F65D00C01020E036F016B7C
:101C40000401050E3D6F5DD00C01020E036F010E05
:101C5000016F57D0020E255D06E20C01120E036FD4
:101C6000010E016F0BD03EA706D00C01140E036FBE
:101C7000010E026F03D00C01020E036F42D0050E5D
:101C8000255D06E20C01100E036F010E016F05D0F9
:101C9000080E3D6F0C01110E036F33D0050E255D4C
:101CA00006E20C01110E036F010E016F05D00C014D
:101CB000140E036F010E026F24D00C01140E036F7B
:101CC000010E026F1ED0050E255D06E20C01100EFE
:101CD000036F010E016F05D00C01140E036F010E8E
:101CE000026F0FD0050E255D06E20C01110E036F89
:101CF000010E016F05D00C01140E036F010E026F6F
:101D000000D00C01035146E001513EE00401252BB7
:101D1000D89002370337043705372F510E5D146E04
:101D20000F513055156E166A176A15AE02D0166837
:101D300017681450065F1550075B1650085B175064
:101D4000095B2F510E5D30510F5914E22751295D67
:101D5000146E2A512855156E166A176A15AE02D0F0
:101D6000166817681450065F1550075B1650085B1D
:101D70001750095B2FC40EF430C40FF40401A16B9B
:101D800003CCA0F454D906D00401010EA16F03CCFA
:101D9000A0F44DD90C01025102E0C9EC16F00C017F
:101DA000002BE1D4046B056B030E045D000E055996
:101DB00001E399D004CCE9FF05CCEAFF140EEA0256
:101DC000F3CFEAFFE902F3CFE9FFF450EA26C20EAF
:101DD000E926040EEA22100EE926000EEA22EE5051
:101DE000ED1001E180D004CCE9FF05CCEAFF140E30
:101DF000EA02F3CFEAFFE902F3CFE9FFF450EA2663
:101E0000C20EE926040EEA22120EE926000EEA228C
:101E1000EECF16F0EFCF17F016C0E6FF17C0E6FFC3
:101E2000AFECAEF0E552E7CF17F0E552E7CF16F092
:101E30001650065C146E17500758156EDC0ED880CD
:101E40001454010E15544AE204CCB8F405CCB9F48C
:101E50000401020ED880B857000EB957140EB9030A
:101E6000F3CFB9F4B803F3CFB8F4F450B9270401B1
:101E7000010EB76F0C0104250401B56F000E0C01B3
:101E800005210401B66F140EB603F3CFB6F4B50303
:101E9000F3CFB5F4F450B627C20EB527040EB6231F
:101EA0000401010EB46F140E086E096A04CC0DF023
:101EB00005CC0EF038EC98F006C0B2F407C0B3F4CD
:101EC000C20E0401B227040EB323BFEC1FF00401BD
:101ED000FA6BFB6B0C010407000E055B0C01042B75
:101EE000000E052361D712009AC4E9FF9BC4EAFFE4
:101EF000EECF14FCEECF15FCEECF16FCEFCF17FCA7
:101F00009CC4E9FF9DC4EAFFEECF18FCEECF19FC9C
:101F1000EECF1AFCEFCF1BFC0C011C6B060E1D6FE5
:101F20009EC41EFC9FC41FFC1ECC52F71FCC53F74F
:101F3000FCEC6DF0F3CF1EFCF4CF1FFC0C0E070180
:101F40005A6F5B6B0701140E586F0C0E596F23EC20
:101F50006EF0F3CF20FCF4CF21FC0C01201F211FD9
:101F60009EC41AF79FC41BF795EC8BF0F3CF22FCAD
:101F7000F4CF23FC0C012251201902E12351211935
:101F800004E0CAEC89F0010E51D00201F66BF76B48
:101F90003CECA7F0140E0701246F256B0701000E1F
:101FA000226F0C0E236FFBEC8CF00401000EA66F69
:101FB0000C0EA76FEEEC15F00C010C51F00BE84283
:101FC000E842E842E842040DF350146E156A140E1C
:101FD000145E000E155A14C024FC2451146E156AA8
:101FE000145004019E5D9E6F15509F599F6F140EF3
:101FF0009E5F000E9F5B9AC4A4F49BC4A5F40401E9
:10200000000EA26F0C0EA36F3FDB00090BE09EC415
:10201000AAF49FC4ABF40401000EA86F0C0EA96FC4
:102020000EEC17F0CAEC89F0010E00D01200DBECC8
:1020300000F00401A0A102D03F87A0913E9B3E9DED
:102040003E9F3F933F953F91ADEC89F0000901E140
:10205000FBD7060E0401A01504E00C017B6B7C6B22
:102060005FD10E512D1902E10F512E190BE10C0118
:102070007B6B7C6B04013FA704D01451151101E068
:10208000A0814ED12D510E5D2E510F5901E379D013
:102090000E512D5D0C017B6F04010F512E590C0167
:1020A0007C6F14C47DFC15C47EFC04012F510E5DB1
:1020B00030510F590CE32F510E5D146E0F513055F6
:1020C000156E14500C017D5F15507E5B17D02751A3
:1020D000295D166E2A512855176E0E512F5D186E08
:1020E00030510F55196E1850165C146E1950175850
:1020F000156E14500C017D5F15507E5B7B517D5D2C
:102100007C517E5904E27DCC7BFC7ECC7CFC180E9D
:10211000D8807B55020E7C5506E2180E7B6F020EAE
:102120007C6F04013F8504013FA70FD00C017D5156
:102130007B1902E17E517C1908E0180E7B1902E13F
:10214000020E7C1902E00401A0817BCCB8F47CCCA7
:10215000B9F442C4B7F40EC4B5F40FC4B6F4040124
:10216000B46B0401790EB26F130EB36FBFEC1FF0A6
:102170000C017B5104010E270C017C5104010F233B
:10218000CFD00E51295D0C01796F04010F512A59EE
:102190000C017A6F795104012D25146E0C017A51CE
:1021A00004012E21156E2751145C0C017B6F040174
:1021B000285115580C017C6F14C47DFC15C47EFC9D
:1021C00004012F510E5D30510F590CE32F510E5D5C
:1021D000146E0F513055156E14500C017D5F155063
:1021E0007E5B17D02751295D166E2A512855176E30
:1021F0000E512F5D186E30510F55196E1850165C28
:10220000146E19501758156E14500C017D5F15503F
:102210007E5B7B517D5D7C517E5904E27DCC7BFCF5
:102220007ECC7CFC180ED8807B55020E7C5506E2D5
:10223000180E7B6F020E7C6F04013F8504013FA7DF
:102240000FD00C017D517B1902E17E517C1908E011
:10225000180E7B1902E1020E7C1902E00401A08134
:102260000C0179517B5D7A517C5904E27BCC79FC7D
:102270007CCC7AFC79CCB8F47ACCB9F442C4B7F40B
:102280000EC4B5F40FC4B6F40401B46B0401790EA6
:10229000B26F130EB36FBFEC1FF00C0179517B5D71
:1022A000796F7A517C597A6F79517A1122E079CC21
:1022B000B8F47ACCB9F442C4B7F427C4B5F428C44E
:1022C000B6F40401B46B04010E51295D146E2A5159
:1022D0000F55156E166A176A790E1426130E1522FD
:1022E000000E1622172214C0B2F415C0B3F4BFECCE
:1022F0001FF00C017B5104010E270C017C510401DD
:102300000F2329510E5D2A510F590AE32751295DE8
:10231000146E2A512855156E14500E5F15500F5B20
:102320000C017B517C1104E1030E0401A01521E096
:102330000C017B517C1102E00401A0870401A1A1E2
:1023400007D0256BF20E026F9E0E036F046B056BB8
:10235000A4ECAEF0065004010225356F07500321AE
:10236000366F08500421376F09500521386F3E89B8
:1023700036D0A1A31BD03E0EE96E040EEA6EEF50DC
:10238000070BE82AF36EF350070BF36EF46EF80EAA
:10239000EF14F310EF6EF4500607000E075B085BB6
:1023A000095B010E0C017B6F7C6B19D03EA917D025
:1023B000A1B106D02507D890053304330333023387
:1023C000A4ECAEF0065004010225356F075003213E
:1023D000366F08500421376F09500521386F12C439
:1023E00057FC13C458FC10C459FC11C45AFC06C451
:1023F0005BFC07C45CFC08C45DFC09C45EFC0AC449
:102400005FFC0BC460FC0CC461FC0DC462FC0C01DD
:10241000649D649F6391639363956397A0C464FC18
:10242000696B6A6B7B51040106270C017C51040126
:102430000723000E08230923A0A315D0A0B905D0B7
:102440000C015F6B606B616B626B040124A306D0AF
:102450000C015B075C5B5D5B5E5B05D0062B0723B5
:102460000823092324830401A0A10DD024A106D0B0
:102470000C015B075C5B5D5B5E5B05D0062B072395
:1024800008230923248104013351315D3451325929
:1024900014E329512B5D146E2C512A55156E3351BE
:1024A000315D166E32513455176E0C011650145CA6
:1024B000656F17501558666F0DD03151335D0C01A3
:1024C000656F0401325134590C01666F010E655F6E
:1024D000000E665BF4EC89F0F3CF55FCF4CF56FCAC
:1024E0000C01400E555F000E565B800E561502E043
:1024F000556B566B6551555D6651565904E255CC86
:1025000065FC56CC66FC0401570EA66F0C0EA76F37
:1025100065DB140E0C017B27000E7C236389639B13
:10252000638D639F0401A0A328D0040E0C017B27B8
:10253000000E7C23020E6B6F040E6C6F020E6D6F2B
:10254000140E6E6F010E146E630EE96E0C0EEA6EC1
:10255000EF50F00BE842E842E842E8421424F36E00
:10256000F3500F0BF36EF46EF346F346F346F34667
:102570000F0EEF14F310EF6EF4500DC16FFC0EC18F
:1025800070FC0FC171FC10C172FC18C473FC19C43B
:1025900074FC1AC475FC1BC476FC0C01776B060E28
:1025A000786F7BCC79FC7CCC7AFC79CC52F77ACCF6
:1025B00053F7FCEC6DF0F3CF79FCF4CF7AFC0C0E02
:1025C00007015A6F5B6B07016F0E586F0C0E596F46
:1025D00023EC6EF0F3CF67FCF4CF68FC0C01671FAF
:1025E000681F0701510E126F130E136F3AEC8BF038
:1025F0007BCCF4F27CCCF5F20201060EF36F020103
:10260000180EF16F040EF26FC8ECA6F0140E07015D
:10261000296F2A6B0701570E276F0C0E286F33ECBA
:102620008DF00401A0A30BD0040E0701296F2A6BC3
:1026300007016B0E276F0C0E286F33EC8DF007012E
:10264000650E146F130E156F48EC8BF07BCC1AF7E8
:102650007CCC1BF795EC8BF0F3CF55FCF4CF56FCFC
:102660000701750E126F130E136F3AEC8BF0020E0A
:102670000701296F2A6B0701550E276F0C0E286F73
:1026800033EC8DF0FEEF8AF0A2C4E9FFA3C4EAFFA9
:10269000020EE926000EEA22EE50ED1002E1000ED5
:1026A0009CD20C01FE0E266FA4C4E9FFA5C4EAFF6C
:1026B000020EE926000EEA22EECF18F0EFCF19F055
:1026C000A4C4E9FFA5C4EAFF1850EE24166E195001
:1026D000EE20176EA2C4E9FFA3C4EAFF1650EE2451
:1026E000146E1750EE20156EA2C4E9FFA3C4EAFFD2
:1026F000020EE926000EEA221450EE18276F15503C
:10270000EE18286F256B2551146E156A030E145CA4
:10271000000E155867E225CC43F494EC00F00D0E42
:1027200004013D5D02E15BD024D0040E3D5D16E165
:10273000A2C4E9FFA3C4EAFF020EE926000EEA22C2
:10274000EECF14F0EFCF15F01450401902E1155000
:10275000411902E125CC26FC42D00BD00C012751B7
:102760000401401904E10C0128510401411901E060
:1027700036D0DBEC00F0A2C4E9FFA3C4EAFF020EEE
:10278000E926000EEA22EECF14F0EFCF15F0040197
:102790001251141802E11351151821E1A2C4E9FFE6
:1027A000A3C4EAFFEECF16F0EFCF17F010511618C2
:1027B00002E11151171813E1A4C4E9FFA5C4EAFF0F
:1027C000EE50181909E1EE50191906E1EE501A19E8
:1027D00003E1EE501B1900E102E1010EFED10C01F4
:1027E000252B91D7FE0E265D39E026CC43F494ECE0
:1027F00000F0DBEC00F0FE0E0C01265D2FE027CC94
:1028000040F428CC41F40A0EE66EE66AA4C4E6FF62
:10281000A5C4E6FF180EE66E040EE66E2EECA5F0DB
:10282000146E060EE15E1450A2C4E9FFA3C4EAFFD1
:10283000EECF10F4EDCF11F4A2C4E9FFA3C4EAFF78
:10284000020EE926000EEA22EECF12F4EDCF13F4C9
:1028500027C40EF428C40FF4010EBFD1A2C4E9FFAF
:10286000A3C4EAFF0D0EE926000EEA22EF50020B88
:1028700002E1000EB2D10401FA51FB1102E0000E98
:10288000ACD10C01296B2A6B030E295D000E2A596D
:1028900001E3BED029CCE9FF2ACCEAFF140EEA02FC
:1028A000F3CFEAFFE902F3CFE9FFF450EA26C20EC4
:1028B000E926040EEA22100EE926000EEA22EE5066
:1028C000ED1001E1A5D029CCE9FF2ACCEAFF140ED6
:1028D000EA02F3CFEAFFE902F3CFE9FFF450EA2678
:1028E000C20EE926040EEA22100EE926000EEA22A4
:1028F000EECF14F0EFCF15F0A2C4E9FFA3C4EAFFB6
:10290000020EE926000EEA22EECF16F0EFCF17F006
:102910001650141802E11750151801E074D029CC94
:10292000E9FF2ACCEAFF140EEA02F3CFEAFFE9023C
:10293000F3CFE9FFF450EA26C20EE926040EEA229C
:102940000A0EE926000EEA22EECF14F0EFCF15F0C2
:10295000A2C4E9FFA3C4EAFFEECF16F0EFCF17F051
:102960001650141802E11750151801E04CD0A4C4F9
:10297000E9FFA5C4EAFFEECF14F0EECF15F0EECFDD
:1029800016F0EFCF17F029CCE9FF2ACCEAFF140E9E
:10299000EA02F3CFEAFFE902F3CFE9FFF450EA26B7
:1029A000C20EE926040EEA22EE500001141809E1D5
:1029B000EE50151806E1EE50161803E1EE50171808
:1029C00000E101E020D0AFECAEF006C014F007C08B
:1029D00015F029CCE9FF2ACCEAFF140EEA02F3CF66
:1029E000EAFFE902F3CFE9FFF450EA26C20EE92636
:1029F000040EEA22120EE926000EEA2214C0EEFFAF
:102A000015C0EDFFEAD00C01292B000E2A233CD77C
:102A1000256B2551146E156A030E145C000E1558B3
:102A200001E3D9D025CC43F494EC00F004013EA797
:102A3000CFD0DBEC00F0A2C4E9FFA3C4EAFF020E92
:102A4000E926000EEA22EECF14F0EFCF15F0145075
:102A50000401121902E11550131901E0B9D00A0E50
:102A6000E66EE66AA4C4E6FFA5C4E6FF29CCE9FF4A
:102A70002ACCEAFF140EEA02F3CFEAFFE902F3CF11
:102A8000E9FFF450EA26C20EE926040EEA22E9CF55
:102A900014F0EACF15F014C0E6FF15C0E6FF2EECE7
:102AA000A5F0166E060EE15E1650A2C4E9FFA3C49F
:102AB000EAFFEECF14F0EFCF15F029CCE9FF2ACCD6
:102AC000EAFF140EEA02F3CFEAFFE902F3CFE9FFCF
:102AD000F450EA26C20EE926040EEA220A0EE9267E
:102AE000000EEA2214C0EEFF15C0EDFFA2C4E9FFFC
:102AF000A3C4EAFF040EE926000EEA22EECF14F08A
:102B0000EECF15F0EECF16F0EFCF17F029CCE9FF9E
:102B10002ACCEAFF140EEA02F3CFEAFFE902F3CF70
:102B2000E9FFF450EA26C20EE926040EEA220C0E52
:102B3000E926000EEA2214C0EEFF15C0EEFF16C013
:102B4000EEFF17C0EEFFA2C4E9FFA3C4EAFF020E26
:102B5000E926000EEA22EECF14F0EFCF15F029CCD3
:102B6000E9FF2ACCEAFF140EEA02F3CFEAFFE902FA
:102B7000F3CFE9FFF450EA26C20EE926040EEA225A
:102B8000100EE926000EEA2214C0EEFF15C0EDFF7C
:102B9000AFECAEF006C014F007C015F029CCE9FF89
:102BA0002ACCEAFF140EEA02F3CFEAFFE902F3CFE0
:102BB000E9FFF450EA26C20EE926040EEA22120EBC
:102BC000E926000EEA2214C0EEFF15C0EDFF05D085
:102BD0000C01252B1ED7000E00D01200A6C4E9FF61
:102BE000A7C4EAFFEECF52F7EDCF53F7FCEC6DF040
:102BF000F3CF14F0F4CF15F0A6C4E9FFA7C4EAFFA1
:102C000014C0EEFF15C0EDFFA6C4E9FFA7C4EAFF9C
:102C1000020EE926000EEA22EECF52F7EDCF53F76F
:102C2000FCEC6DF0F3CF14F0F4CF15F0A6C4E9FF7F
:102C3000A7C4EAFF020E14C0EBFF030E15C0EBFFA2
:102C4000A6C4E9FFA7C4EAFF040EE926000EEA22A3
:102C5000EECF54F7EECF55F7EECF56F7EFCF57F74D
:102C60000CEC6EF006C014F007C015F008C016F0AA
:102C700009C017F0A6C4E9FFA7C4EAFF040EE926BD
:102C8000000EEA2214C0EEFF15C0EEFF16C0EEFFE4
:102C900017C0EEFFA6C4E9FFA7C4EAFF080EE926A5
:102CA000000EEA22EECF54F7EECF55F7EECF56F7EF
:102CB000EFCF57F70CEC6EF006C014F007C015F01C
:102CC00008C016F009C017F0A6C4E9FFA7C4EAFFC0
:102CD000080EE926000EEA2214C0EEFF15C0EEFF32
:102CE00016C0EEFF17C0EEFFA6C4E9FFA7C4EAFFB7
:102CF0000E0EE926000EEA22EECF52F7EDCF53F783
:102D0000FCEC6DF0F3CF14F0F4CF15F0A6C4E9FF9E
:102D1000A7C4EAFF0E0E14C0EBFF0F0E15C0EBFFA9
:102D2000A6C4E9FFA7C4EAFF100EE926000EEA22B6
:102D3000EECF52F7EDCF53F7FCEC6DF0F3CF14F07C
:102D4000F4CF15F0A6C4E9FFA7C4EAFF100E14C023
:102D5000EBFF110E15C0EBFFA6C4E9FFA7C4EAFF05
:102D6000120EE926000EEA22EECF52F7EDCF53F70E
:102D7000FCEC6DF0F3CF14F0F4CF15F0A6C4E9FF2E
:102D8000A7C4EAFF120E14C0EBFF130E15C0EBFF31
:102D90001200DBEC00F012C440F413C441F427C469
:102DA0002DF428C42EF427C42FF428C430F429C4E9
:102DB00031F42AC432F429C433F42AC434F40401AB
:102DC0003E51080B02E0040E01D00D0E3D6F3E9106
:102DD0003E933E953E993E9B3E9D3E9F3F913F9345
:102DE0003F953F973F89249124932497249927C4A2
:102DF0000EF428C40FF4D2ECADF0F3CF06F4F4CF08
:102E000007F4D2ECADF0F3CF08F4F4CF09F40401E9
:102E100022692369010E146F156B1200A8C4E9FF23
:102E2000A9C4EAFF0D0EE926000EEA22EFCF33FC1B
:102E3000A8C4E9FFA9C4EAFF080EE926000EEA22A9
:102E4000EECF34FCEECF35FCEECF36FCEFCF37FCC7
:102E5000A8C4E9FFA9C4EAFF040EE926000EEA228D
:102E6000EECF38FCEECF39FCEECF3AFCEFCF3BFC97
:102E700004013E913E933E953EB913D0A4ECAEF0D2
:102E800006C035F407C036F408C037F409C038F47A
:102E9000740E04013527350E3623060E3723000E37
:102EA00038233D51050A43E0010A08E0AAC43CFC6E
:102EB000ABC43DFC0C0133A1B2D0AED00C0133A5A4
:102EC00003D067DF92EF1EF033A912D034CC06F4A2
:102ED00035CC07F436CC08F437CC09F40401A16BE7
:102EE0000401040EA06F17EC10F053DF92EF1EF0F8
:102EF00033A31AD038CC0AF439CC0BF43ACC0CF406
:102F00003BCC0DF404010A2B000E0B230C230D23E4
:102F10000401010EA16F0401120EA06F17EC10F056
:102F20000401060E3D6F01D034DF92EF1EF00C015C
:102F300033A502D092EF1EF033A934D0340EE96EDF
:102F40000C0EEA6EEE500401061909E1EE50071965
:102F500006E1EE50081903E1EE50091900E122E004
:102F600006C438FC07C439FC08C43AFC09C43BFC5D
:102F700034CC06F435CC07F436CC08F437CC09F45D
:102F80000401010EA16F0401040EA06F17EC10F0F4
:102F900038CC06F439CC07F43ACC08F43BCC09F42D
:102FA00092EF1EF00C0133A335D038CC0AF439CCA3
:102FB0000BF43ACC0CF43BCC0DF404010A2B000EBC
:102FC0000B230C230D23A8C4E9FFA9C4EAFF0E0EAE
:102FD000E926000EEA22EECF14F4EDCF15F40C0131
:102FE00033A90DD00401010EA16F0401100EA06FD2
:102FF00017EC10F00401070E3D6F3E990BD0040151
:10300000010EA16F0401120EA06F17EC10F0040165
:10301000060E3D6F92EF1EF03C2B000E3D2333A3B6
:1030200003D03C2B000E3D2304013351315D34515C
:10303000325914E329512B5D146E2C512A55156E0B
:103040003351315D166E32513455176E0C011650E6
:10305000145C316F17501558326F0DD03151335DFC
:103060000C01316F0401325134590C01326F010EE1
:10307000315F000E325B0A0EE96E040EEA6EEE500E
:10308000385D2B6FEE5039592C6FEE503A592D6F39
:10309000EE503B592E6F2BCC2FFC2CCC30FC3E6BD2
:1030A0003C513D1101E181D03151321101E17CD01F
:1030B000800E2E1518E131CC14F032CC15F0166AC2
:1030C000176A2E511718E8AE02D0173408D01450E2
:1030D0002B5D15502C5916502D5917502E5903E2BF
:1030E000010E3E6F3DD03CCC14F03DCC15F0166A7D
:1030F000176A2B0EE96E0C0EEA6EEE501426EE5097
:103100001522EE501622EE5017221734000E171813
:1031100009E6D880000E1454000E1554000E165403
:10312000000E17541DE23C51315D186E32513D5571
:10313000196E1A6A1B6A19AE02D01A681B681B50F6
:103140002E19E8AE02D02E3508D02B51185C2C5128
:1031500019582D511A582E511B5802E3010E3E6F7B
:1031600031CC14F032CC15F0166A176A2E511718AC
:10317000E8AE02D0173408D014502B5D15502C59EE
:1031800016502D5917502E590FE22F513C25186E0D
:1031900030513D21196E193404E218500008000E18
:1031A000195402E2010E3E6F22D02B512C112D1129
:1031B0002E1103E1010E3E6F1AD0800E2E1517E17D
:1031C00031CC14F032CC15F0166A176A2E5117184C
:1031D000E8AE02D0173408D014502B5D15502C598E
:1031E00016502D5917502E5902E2010E3E6F3E51D6
:1031F0000CE133B508D00401010EA16F0401100EDB
:10320000A06F17EC10F092EF1EF0060E331503E0DE
:10321000C0DD92EF1EF033B902D092EF1EF0040130
:103220003D510C0A01E152D20B0A40E00F0A3EE088
:10323000010A3CE0020A3AE0010A38E00C0A01E027
:103240005AD2340EE96E0C0EEA6EEE50061909E100
:10325000EE50071906E1EE50081903E1EE50091986
:1032600000E122E006C438FC07C439FC08C43AFC7B
:1032700009C43BFC34CC06F435CC07F436CC08F456
:1032800037CC09F40401010EA16F0401040EA06FF4
:1032900017EC10F038CC06F439CC07F43ACC08F42B
:1032A0003BCC09F492EF1EF0070E3D6F0E512D5DE1
:1032B0000C01296F04010F512E590C012A6F800E49
:1032C0002A150CE004012751295D146E2A51285556
:1032D000156E14500C01292715502A2329CC14F0FF
:1032E0002ACC15F0166A176A060EE96E040EEA6E0D
:1032F000EE501424256FEE501520266FEE50162048
:10330000276FEE501720286F340EE96E0C0EEA6E10
:10331000EE50255D146EEE502659156EEE5027596D
:10332000166EEE502859176E0001800E171409E032
:103330000401A16B0401100EA06F17EC10F092EFC6
:103340001EF004012F510E5D146E0F513055156E95
:10335000166A176A15AE02D016681768060EE96E6F
:10336000040EEA6E1450EE5C0C01256F1550EE58F9
:10337000266F1650EE58276F1750EE58286F04012D
:103380002F510E5D30510F5911E22751295D146EF6
:103390002A512855156E166A176A14500C01255FBC
:1033A0001550265B1650275B1750285B250EE96EDB
:1033B0000C0EEA6EEE500C01345D256FEE5035595F
:1033C000266FEE503659276FEE503759286F283543
:1033D000000E281909E6D880000E2555000E265546
:1033E000000E2755000E285501E397D00401275100
:1033F000295D146E2A512855156E166A176A0C013C
:103400002551145C26511558275116582851175824
:1034100001E283D00401249724993F912FC429FC11
:1034200030C42AFC0C01255104012F270C01265120
:10343000040130230C01295104010E5D0C012A51B5
:1034400004010F591BE32F510E5D30510F5915E246
:103450000E512F5D146E30510F55156E0001145032
:10346000040106270001155004010723000E08235C
:1034700009232FC40EF430C40FF42FD02751295D37
:10348000146E2A512855156E0E5114240C01296F03
:1034900004010F5115200C012A6F04012F510C015A
:1034A000295D040130510C012A5917E22951040108
:1034B0002F5D146E30510C012A55156E0001145009
:1034C000040106270001155004010723000E0823FC
:1034D00009232FC40EF430C40FF4040129512F5DC9
:1034E0002A5130590AE32751295D146E2A51285573
:1034F000156E14502F5F1550305B29510E5D2A5107
:103500000F590AE32751295D146E2A512855156E6B
:1035100014500E5F15500F5B3FD004010E512F1950
:1035200002E10F51301938E024A735D024A932D058
:103530002F510E5D146E0F513055156E166A176AB5
:1035400015AE02D0166817681450065F1550075B59
:103550001650085B1750095B2F510E5D30510F5903
:1035600014E22751295D146E2A512855156E166AEA
:10357000176A15AE02D0166817681450065F15500A
:10358000075B1650085B1750095B2FC40EF430C45C
:103590000FF43F85248924872D512F1902E12E51E4
:1035A00030191AE13FB702D03E9916D0060EE96EE7
:1035B000040EEA6EEE500C01341909E1EE50351993
:1035C00006E1EE50361903E1EE50371900E104E14F
:1035D00004013E993F9724910401145115110CE107
:1035E000A8C4E9FFA9C4EAFF0E0EE926000EEA22EC
:1035F000EE50ED1001E03F83A8C4E9FFA9C4EAFF43
:103600000E0EE926000EEA22EECF14F4EDCF15F4EB
:10361000080E3D5D29E1060EE96E040EEA6EEE50DD
:103620000C01341909E1EE50351906E1EE50361956
:1036300003E1EE50371900E116E1A4ECAEF006C04C
:1036400035F407C036F408C037F409C038F4BA0EB0
:10365000040135271A0E3623030E3723000E3823B4
:103660003E89090E3D6F31D0090E3D5D16E10C011A
:1036700033B112D034CC06F435CC07F436CC08F490
:1036800037CC09F40401A16B0401140EA06F17ECF0
:1036900010F0C9EC16F046D318D00A0E3D5D15E1C6
:1036A000060EE96E040EEA6EEE500C01341909E1C3
:1036B000EE50351906E1EE50361903E1EE50371998
:1036C00000E102E1C9EC16F02DD316D0060EE96E2A
:1036D000040EEA6EEE500C01341909E1EE50351972
:1036E00006E1EE50361903E1EE50371900E102E130
:1036F000C9EC16F017D300D00C0133BB13D30B0E5B
:1037000004013D5D01E10ED30A0E3D5D01E10AD3E6
:103710000C0E3D5D01E106D3AA51AB1101E14ED281
:103720000C01303504E22F510008000E305501E243
:10373000E8D0A8C4E9FFA9C4EAFF0C0EE926000EF0
:10374000EA22EF50F00BE842E842E842E842040D7A
:10375000F350146E156A2F51145C0201F66F0C01C0
:10376000305115580201F76F3CECA7F00C012F51B6
:103770000401AA270C0130510401AB23AA510C010A
:10378000315D0401AB510C01325904E231CCAAF491
:1037900032CCABF40401AA510A27AB510B23000E23
:1037A0000C230D233151AA25146E3251AB21156E15
:1037B00014502B5D15502C5946E231512B5D0C01F4
:1037C000296F040132512C590C012A6F010E29274F
:1037D000000E2A2329CCB8F42ACCB9F40401B76B23
:1037E0000401B569B66942C4B4F431C4B2F432C458
:1037F000B3F4C5DB0C0129510401AA5D0401B86FC3
:103800000C012A510401AB590401B96F0401B76BD3
:103810000401B569B66942C4B4F429C4B2F42AC437
:10382000B3F4ADDB0C0129510401AA5D146EAB5158
:103830000C012A55156E040129511424316F2A51A7
:103840001520326F15D0AAC4B8F4ABC4B9F4040182
:10385000B76B0401B569B66942C4B4F431C4B2F4BB
:1038600032C4B3F48CDB0401AA513127AB513223AB
:10387000221D01E1231D44E0AA51225FAB51235BCD
:10388000165122250C01296F0401175123210C0127
:103890002A6F800E2A1504E004012269236930D0C2
:1038A0000401233504E222510008000E235528E3C9
:1038B0000C01295104010A270C012A5104010B2390
:1038C000000E0C230D230C012951040131270C019A
:1038D0002A510401322331512B5D32512C590EE211
:1038E00029512B5D146E2C512A55156E010E14268C
:1038F000000E15221450315F1550325B2269236986
:103900005DD1303504E22F510008000E305501E33F
:1039100055D10401AA510C012F25146E0401AB519D
:103920000C013021156E1450315D1550325909E2E9
:103930002F51315D0401AA6F0C013051325904013D
:10394000AB6FA8C4E9FFA9C4EAFF0C0EE926000E7C
:10395000EA22EF50F00BE842E842E842E842040D68
:10396000F3500201F66FF76B3CECA7F00401315104
:103970000C012F25166E040132510C013021176EF7
:1039800016500401AA25146E1750AB21156E145061
:103990002B5D15502C596EE231512B5D146E2C515C
:1039A0003255156E010E1426000E15220C012F51F2
:1039B000145C296F305115582A6F800E2A1531E199
:1039C00029CCB8F42ACCB9F40401B76B0401B56969
:1039D000B66942C4B4F4040131510C012F2504012D
:1039E000B26F040132510C0130210401B36FC7DA08
:1039F0000C0129510401AA5D0401B86F0C012A5180
:103A00000401AB590401B96F0401B76B0401B56936
:103A1000B66942C4B4F429C4B2F42AC4B3F4AFDA28
:103A200028D0AAC4B8F4ABC4B9F40401B76B04013C
:103A3000B569B66942C4B4F4040131510C012F25B3
:103A4000146E040132510C013021156E040129510C
:103A50002B5D166E2C512A55176E010E1626000E80
:103A6000172204011650145CB26F17501558B36F2B
:103A700086DA18D0AAC4B8F4ABC4B9F40401B76BA1
:103A80000401B569B66942C4B4F4040131510C01B2
:103A90002F250401B26F040132510C0130210401C1
:103AA000B36F6DDA0401221D01E1231D09E12FCC62
:103AB00022F430CC23F4AAC416F4ABC417F47ED09D
:103AC00022510C012F5D040123510C0130593DE2BC
:103AD0002F510401AA25146E0C0130510401AB21B1
:103AE000156E22511625166E23511721176E14508C
:103AF000165C155017580FE30C012F510401AA252D
:103B0000186E0C0130510401AB21196E2251185C62
:103B10002351195805E2AAC416F4ABC417F410D007
:103B200022511625146E23511721156E0C012F51A9
:103B3000145C0401166F0C01305115580401176F05
:103B40002FCC22F430CC23F439D02F510401AA25F4
:103B5000146E0C0130510401AB21156E2251162553
:103B6000166E23511721176E1450165C15501758F6
:103B700025E222511625146E23511721156E0C01D2
:103B80002F51145C3051155819E32F510401AA2507
:103B9000186E0C0130510401AB21196E2251185CD2
:103BA000166E23511958176E1651165C146E175164
:103BB0001758156E14501627155017230C013C5139
:103BC0003D1124E0070E04013D5D04E031C433F4EF
:103BD00032C434F43EAF0BD00401010EA16F0401D6
:103BE000100EA06F17EC10F0DBEC00F00FD03E8F42
:103BF0003EBD0CD03E8DAFECAEF006C03BF407C02E
:103C00003CF40F0E04013B27000E3C230C0133A1B2
:103C100089D00AC414F00BC415F00CC416F00DC4FE
:103C200017F0142A000E1522162217223CCC18F089
:103C30003DCC19F01A6A1B6A380EE96E0C0EEA6E5A
:103C4000EE501826EE501922EE501A22EE501B228A
:103C50001450181809E11550191806E116501A18D1
:103C600003E117501B1800E15DE104010A2B000E6F
:103C70000B230C230D233D51090A41E0010A1EE0EC
:103C80000F0A0EE0010A01E044D00C0E3D6F040162
:103C9000010EA16F0401110EA06F17EC10F042D0BD
:103CA0000B0E3D6FAFECAEF006C03BF407C03CF42A
:103CB0001F0E04013B27000E3C232CD0060EE96E9C
:103CC000040EEA6EEE500C01341909E1EE5035197C
:103CD00006E1EE50361903E1EE50371900E10BE131
:103CE0000401A16B0401100EA06F17EC10F0C9ECD9
:103CF00016F018D003D004010A0E3D6F0BD004015A
:103D0000A16B0401100EA06F17EC10F0C9EC16F0B7
:103D100009D000D00401010EA16F0401100EA06FA4
:103D200017EC10F01200ACC443F494EC00F0040162
:103D3000AD51AE1103E1010EAD6FAE6B27512B5D9E
:103D40000C01006F040128512C590C01016F010E68
:103D5000005F000E015B0401AD51AF25146EAE5142
:103D6000B021156E0C011450005D1550015902E28E
:103D7000000E04D1DBEC00F0030E0401B11502E1EA
:103D8000030EB113AFC404FCB0C405FCAD51AF25A4
:103D9000146EAE51B021156E14500C01005F155019
:103DA000015B0401B1A314D0B1A10DD000CC14F07B
:103DB00001CC15F0D8901532143214500C010427A0
:103DC0001550052305D00C0100510427015105238E
:103DD000040127510C010425006F040128510C0136
:103DE0000521016F010E0027000E012331C402FCE2
:103DF00032C403FC0401221D01E1231D22E02251F3
:103E00001625146E23511721156E14500C0102272C
:103E100015500323025104012B5D0C0103510401D1
:103E20002C590FE229512B5D146E2C512A55156E19
:103E3000010E1426000E152214500C01025F1550BD
:103E4000035B0C0102510401335D0C0103510401B9
:103E5000345917E20C0100510401335D0C0101518A
:103E6000040134590DE2B1A503D0000E87D008D06B
:103E700000CC33F401CC34F400CC31F401CC32F476
:103E800026D033510C01025D040134510C01035959
:103E900016E200510401295D0C01015104012A5967
:103EA0000DE2B1A503D0000E69D008D000CC33F4E8
:103EB00001CC34F400CC31F401CC32F408D000CC85
:103EC00033F401CC34F400CC31F401CC32F40401ED
:103ED00033510C01025D040134510C01035930E2ED
:103EE000040E0401B1152CE029510C01025D0401FE
:103EF000B86F04012A510C0103590401B96F42C47F
:103F0000B7F429C4B5F42AC4B6F442C4B4F400CC5E
:103F1000B2F401CCB3F433D804013351315D3451E0
:103F200032590EE20C0100510401295D146E2A5130
:103F30000C010155156E14500401315F1550325BB0
:103F400000CC29F401CC2AF427C40EF428C40FF4C1
:103F500027C42FF428C430F427C42DF428C42EF429
:103F6000070E04013D5D08E10401010EA16F04018B
:103F7000100EA06F17EC10F0010E00D0120004011B
:103F8000B7512FE0010A01E059D0B45116E0010AFF
:103F900001E026D0B8C4E6FFB9C4E6FFB5C4E6FF29
:103FA000B6C4E6FFB2C4E6FFB3C4E6FF2EECA5F04C
:103FB000146E060EE15E145013D0B3BF06D0B2C427
:103FC00012F7B3C413F73AEC8BF0B8C429F7B9C4AD
:103FD0002AF7B5C427F7B6C428F733EC8DF000D024
:103FE0002DD0B45116E0010A01E027D0B6BF06D0AB
:103FF000B5C414F7B6C415F748EC8BF0B8C424F771
:10400000B9C425F7B2C422F7B3C423F7FBEC8CF094
:1040100014D0B8C420F7B9C421F7B5C41EF7B6C48C
:104020001FF7B2C41CF7B3C41DF721EC8CF0F1EC00
:104030008CF0000901E1FBD700D000D01200040190
:10404000BC5118E0010A01E067D0C0C4E6FFC1C45A
:10405000E6FFBDC4E6FFBEC4E6FFBFC4E6FFBAC4C8
:10406000E6FFBBC4E6FF59ECA5F0146E070EE15E57
:10407000145052D0BBBF06D0BAC412F7BBC413F75A
:104080003AEC8BF0100E0C01106F116B0401C05153
:10409000C11141E00C0110510401C05D0C0111512E
:1040A0000401C15904E2C0C410FCC1C411FC10CC0D
:1040B000E6FF11CCE6FFBDC4E6FFBEC4E6FFBFC409
:1040C000E6FF000EE66E0C0EE66E59ECA5F0146EDF
:1040D000070EE15E145010CC29F711CC2AF7070126
:1040E000000E276F0C0E286F33EC8DF010CC14F0FF
:1040F00011CC15F0166A14500401BD271550BE23CB
:104100001650BF230C0110510401C05F0C01115166
:104110000401C15BBBD700D012006B0E07019719D9
:1041200005E1985103E1995101E19A5101E12CD245
:104130006A0E971905E1985103E1995101E19A51ED
:1041400001E117D2690E971905E1985103E19951E0
:1041500001E19A5101E10AD2680E971905E19851DF
:1041600003E1995101E19A5101E1F6D1670E9719E6
:1041700005E1985103E1995101E19A5101E1E1D141
:10418000660E971905E1985103E1995101E19A51A1
:1041900001E1CDD1650E971905E1985103E19951DF
:1041A00001E19A5101E1B8D1640E971905E19851E6
:1041B00003E1995101E19A5101E1A4D1630E9719EC
:1041C00005E1985103E1995101E19A5101E18FD143
:1041D000620E971905E1985103E1995101E19A5155
:1041E00001E17BD1610E971905E1985103E19951E5
:1041F00001E19A5101E166D1580E971905E19851F4
:1042000003E1995101E19A5101E152D1570E9719F9
:1042100005E1985103E1995101E19A5101E13DD144
:10422000560E971905E1985103E1995101E19A5110
:1042300001E129D1550E971905E1985103E19951F2
:1042400001E19A5101E114D1540E971905E19851F9
:1042500003E1995101E19A5101E100D1530E9719FF
:1042600005E1985103E1995101E19A5101E1EBD047
:10427000370E971905E1985103E1995101E19A51DF
:1042800001E1DED0360E971905E1985103E199510D
:1042900001E19A5101E1D1D0350E971905E198510C
:1042A00003E1995101E19A5101E1C4D0340E97190B
:1042B00005E1985103E1995101E19A5101E1B7D02B
:1042C000330E971905E1985103E1995101E19A5193
:1042D00001E1AAD0320E971905E1985103E19951F5
:1042E00001E19A5101E19DD0150E971905E1985110
:1042F00003E1995101E19A5101E189D0140E971916
:1043000005E1985103E1995101E19A5176E0130ECC
:10431000971905E1985103E1995101E19A5163E040
:10432000120E971905E1985103E1995101E19A5153
:104330004FE0110E971905E1985103E1995101E100
:104340009A513CE0100E971905E1985103E19951FB
:1043500001E19A5128E00F0E971905E1985103E108
:10436000995101E19A5115E00E0E971905E1985106
:1043700003E1995101E19A5101E010D1010E0501CB
:10438000656F666B040E0501636F646BE2EC46F0CB
:1043900020D10501656B666B040E0501636F646BCC
:1043A000E2EC46F016D1010E0501656F666B030E57
:1043B0000501636F646BE2EC46F00BD10501656BA0
:1043C000666B030E0501636F646BE2EC46F001D18E
:1043D000010E0501656F666B020E0501636F646B6C
:1043E000E2EC46F0F6D00501656B666B020E050146
:1043F000636F646BE2EC46F0ECD0010E0501656F73
:10440000666B0501636F646BE2EC46F0E2D0050178
:10441000656B666B010E0501636F646BE2EC46F041
:10442000D8D09DEC47F0D5D0E8EC47F0D2D01CECCA
:1044300048F0CFD050EC48F0CCD084EC48F0C9D054
:10444000B8EC48F0C6D0010E0501656F666B050E2D
:104450000501636F646BE2EC46F0BBD00501656B50
:10446000666B050E0501636F646BE2EC46F0B1D03C
:10447000010E0501656F666B060E0501636F646BC7
:10448000E2EC46F0A6D00501656B666B060E0501F1
:10449000636F646BE2EC46F09CD0010E0501656F22
:1044A000666B070E0501636F646BE2EC46F091D01A
:1044B0000501656B666B070E0501636F646BE2ECCB
:1044C00046F087D0010E0501656F666B080E050189
:1044D000636F646BE2EC46F07CD00501656B666B44
:1044E000080E0501636F646BE2EC46F072D0010EBA
:1044F0000501656F666B090E0501636F646BE2EC85
:1045000046F067D00501656B666B090E0501636FA8
:10451000646BE2EC46F05DD0010E0501656F666BE1
:104520000A0E0501636F646BE2EC46F052D00501A0
:10453000656B666B0A0E0501636F646BE2EC46F017
:1045400048D0010E0501656F666B0B0E0501636FA8
:10455000646BE2EC46F03DD00501656B666B0B0EBB
:104560000501636F646BE2EC46F033D0ECEC48F08D
:1045700030D0010E0501656F666B0C0E0501636F8F
:10458000646BE2EC46F025D00501656B666B0C0EA2
:104590000501636F646BE2EC46F01BD0040E04016E
:1045A000696F6A6B04010C0E666FF20E676F000E86
:1045B000686F0201E751E96EEA6AD890E936EA3697
:1045C000E30EE926020EEA22EE52EFCF65F455EC37
:1045D00005F000D0120004017E0E5F6F0201E7516A
:1045E000E96EEA6AD890E936EA36E30EE926020E69
:1045F000EA22EE52EFCF5EF41BEC04F000D0120082
:10460000020114691569E76B020EE75D58E2E75194
:10461000E96EEA6AD890E936EA36E30EE926020E38
:10462000EA22EF6A0401080E4B6F500E0401496F35
:104630004A6B0401486B0401446B456B466B476B46
:1046400090EC02F0E66E0201E751E96EEA6AD8905A
:10465000E936EA36E30EE926020EEA22EE52E55288
:10466000E750EF6EE751E30DF3CF14F0F4CF15F000
:10467000166A176A3A0E14261E0E1522000E16220E
:10468000172214C012F715C013F73AEC8BF0F3CFD2
:1046900000FCF4CF01FCE30E0701296F2A6B070130
:1046A000000E276F020E286F33EC8DF000CC12F74E
:1046B00001CC13F73AEC8BF00201E72BA5D71200DF
:1046C0000C01B66B020EB65D01E385D0B651E96E02
:1046D000EA6AD890E936EA36E30EE926020EEA22C3
:1046E000EE52EF50FE0801E173D0B651E96EEA6A6E
:1046F000D890E936EA36E30EE926020EEA22EE52B7
:10470000EFCF4CF44DEC03F000093BE0B6CC9BF747
:1047100063D80201E751E96EEA6AD890E936EA36D1
:10472000E30EE926020EEA22EF6AFF0E145D06E0B0
:1047300014C2D6F0D9EC50F002011469FF0E155DD9
:1047400006E015C2D6F0D9EC50F00201156904015B
:10475000040EB16F0401AF6BB06B010E0401AD6FBD
:10476000AE6B0201E751E96EEA6AD890E936EA36A3
:10477000E30EE926020EEA22EE52EFCFACF493EC00
:104780001EF00C01B651E96EEA6AD890E936EA36B5
:10479000E30EE926020EEA22EF5016E1B651E96E69
:1047A000EA6AD890E936EA36E30EE926020EEA22F2
:1047B000EE52EFCF74F4AEEC06F0F3CF14F0F4CF7A
:1047C00015F01450151004E0B6CC9BF705D863D84B
:1047D0000C01B62B77D712000201E75107019B5D50
:1047E00001E158D00201E751E30DF3CF14F0F4CF0B
:1047F00015F0166A176A3A0E14261E0E1522000EC0
:104800001622172214C012F715C013F73AEC8BF0DA
:10481000F3CF00FCF4CF01FCE30E0701296F2A6BF4
:104820000701000E276F020E286F33EC8DF000CCCD
:1048300012F701CC13F73AEC8BF007019B51E30D13
:10484000F3CF14F0F4CF15F0166A176A3A0E142657
:104850001E0E1522000E1622172214C014F715C0C2
:1048600015F748EC8BF0F3CF00FCF4CF01FCE30E1E
:104870000701246F256B0701000E226F020E236FC4
:10488000FBEC8CF000CC14F701CC15F748EC8BF066
:104890009BC7E7F212000C01010EA36F0201E75162
:1048A000E96EEA6AD890E936EA36E30EE926020EA6
:1048B000EA22EF500B0A02E1E4EF2FF0010A02E1D5
:1048C000A7EF2FF0030A02E172EF2FF0010A02E1D5
:1048D000EFEF2DF00F0A02E10EEF2CF0010A02E1DA
:1048E000D7EF2BF0030A02E19BEF2AF0010A02E165
:1048F00088EF2AF0070A02E12FEF2AF0010A02E10D
:1049000088EF28F0030A67E0010A02E012EF30F0B6
:10491000E751E96EEA6AD890E936EA36E30EE9260D
:10492000020EEA22EE52EFCF74F4AEEC06F0F3CFB3
:104930009DFCF4CF9EFC0C019D519E114AE00201AA
:104940001A0E106F020E116FE751E96EEA6AD890E5
:10495000E936EA36E30EE926020EEA22010EEF6E90
:104960001769166BA4ECAEF006C008F207C009F296
:1049700008C00AF209C00BF28A0E02010827F00EE5
:1049800009231B0E0A23000E0B230C690D690E6907
:104990000F69006B016B026B036BE26B0401050E88
:1049A000B16F0401AF6BB06B010E0401AD6FAE6B64
:1049B0000201E751E96EEA6AD890E936EA36E30E79
:1049C000E926020EEA22EE52EFCFACF493EC1EF091
:1049D00002D012EF30F00401996B0401976B986BD1
:1049E0000401956B966B04010A0E946F0201E75166
:1049F000E96EEA6AD890E936EA36E30EE926020E55
:104A0000EA22EE52EFCF93F499EC0BF0F3CF14F0CF
:104A1000F4CF15F00001141C01E1151C65E1020141
:104A2000E751E96EEA6AD890E936EA36E30EE926FC
:104A3000020EEA22EE52EFCF7DF4E9EC07F0F3CF5D
:104A400014F0F4CF15F01450151011E10201040E0A
:104A5000186FE751E96EEA6AD890E936EA36E30E54
:104A6000E926020EEA22070EEF6E0C01A36BA4ECFE
:104A7000AEF002010851065C146E09510758156E1C
:104A80000A510858166E0B510958176E1734000E4C
:104A9000171809E6D880000E1454000E1554000EA5
:104AA0001654000E17541EE2E751E96EEA6AD890D8
:104AB000E936EA36E30EE926020EEA22EE52EFCF9D
:104AC0004EF465EC03F00201E751E96EEA6AD89012
:104AD000E936EA36E30EE926020EEA220B0EEF6E05
:104AE0000C01A36B12EF30F0A4ECAEF006C008F29C
:104AF00007C009F208C00AF209C00BF28A0E0201CF
:104B00000827F00E09231B0E0A23000E0B230401B5
:104B1000996B0401976B986B0401956B966B04017C
:104B2000200E946F0201E751E96EEA6AD890E936E7
:104B3000EA36E30EE926020EEA22EE52EFCF93F4B4
:104B400099EC0BF0F3CF9DFCF4CF9EFC0C01050E0D
:104B5000D8809D55000E9E5503E2050E9D6F9E6BFD
:104B6000010E9D2504017B6F000E0C019E210401A6
:104B70007C6F04011A0E796F020E7A6F0201E75101
:104B8000E96EEA6AD890E936EA36E30EE926020EC3
:104B9000EA22EE52EFCF78F436EC07F0030EE66E21
:104BA000E66A880EE66EEB0EE66E000EE66E1A0EF4
:104BB000E66E020EE66E0FECA5F0146E070EE15ED7
:104BC0001450000903E10201186B2CD0040EE66EAC
:104BD000E66A830EE66EEB0EE66E000EE66E1A0EC9
:104BE000E66E020EE66E0FECA5F0146E070EE15EA7
:104BF0001450000904E10201010E186F13D00201E4
:104C0000060E186FE751E96EEA6AD890E936EA367F
:104C1000E30EE926020EEA22070EEF6E0C01A36BEB
:104C200012EF30F00401996B0401976B986B04014B
:104C3000956B966B0401200E946F0201E751E96EAB
:104C4000EA6AD890E936EA36E30EE926020EEA224D
:104C5000EE52EFCF93F499EC0BF0F3CF9DFCF4CF31
:104C60009EFC0401996B9DCC97F49ECC98F40401B2
:104C7000956B966B04013F0E946F0201E751E96E4C
:104C8000EA6AD890E936EA36E30EE926020EEA220D
:104C9000EE52EFCF93F499EC0BF0F3CF9FFCF4CFEF
:104CA000A0FC0C019F519D5DA0519E5901E204D0D2
:104CB0009FCC9DFCA0CC9EFCBD0ED8809D55000EC7
:104CC0009E5513E20201040E186FE751E96EEA6A7D
:104CD000D890E936EA36E30EE926020EEA22070EFC
:104CE000EF6E0C01A36B12EF30F09DCC7BF49ECCE9
:104CF0007CF404011A0E796F020E7A6F0201E751FB
:104D0000E96EEA6AD890E936EA36E30EE926020E41
:104D1000EA22EE52EFCF78F436EC07F0F3CF9FFCA7
:104D2000F4CFA0FC1A0E0C019F25E96E020EA02103
:104D3000EA6EEF6A07011A0E9D6F020E9E6F6BEC12
:104D400033F0780EE66EEB0EE66E000EE66E14ECB7
:104D5000A6F0E552E552E55207C014F008C015F080
:104D600014C0E6FF15C0E6FF780EE66EEB0EE66EA9
:104D7000000EE66E1B0EE66E020EE66E0FECA5F060
:104D8000166E070EE15E1650000920E105011B0EAC
:104D9000006F020E016F6FEC39F00201176F1851AE
:104DA00003E1070E186F02D0080E186FE751E96E85
:104DB000EA6AD890E936EA36E30EE926020EEA22DC
:104DC000020EEF6E0C01A36B12EF30F09FCCE9FFE7
:104DD000A0CCEAFFE906000EEA5A1A0EE926020EF6
:104DE000EA22EF502F0809E000011B0ECF6F020EE0
:104DF000D06FBEEC4DF00201146FFF0E0201145D86
:104E00004CE19FCCE9FFA0CCEAFFE906000EEA5A8C
:104E10001A0EE926020EEA22EF502F080EE00C01CE
:104E20009FCCE9FFA0CCEAFF9F2B000EA0231A0E17
:104E3000E926020EEA222F0EEF6E6E0EE66EEB0EE4
:104E4000E66E000EE66E1A0E0C019F25146E020E21
:104E5000A021156E14C0E6FF15C0E6FFEDECA5F02D
:104E6000166E050EE15E16506E0EE66EEB0EE66EE9
:104E7000000EE66E14ECA6F0E552E552E55207503E
:104E80000C019F270850A02300011B0ECF6F020EBC
:104E9000D06FBEEC4DF00201146F1A0E0C019F256D
:104EA000A46F020EA021A56F010EA45F000EA55BEA
:104EB0001A0EA41902E1020EA5190CE0A4CCE9FF18
:104EC000A5CCEAFFEF502E0801E104D0A407000EA4
:104ED000A55BEED7A42B000EA5230201196B0B0EC8
:104EE000E76E1919E8AE02D0E73402D0E750195D39
:104EF00024E219C2E9FFEA6AE9BEEA68030EEA029F
:104F0000F3CFEAFFE902F3CFE9FFF450EA26000EFF
:104F1000E9260E0EEA22EECF4FF7EECF50F7EFCF95
:104F200051F7A4CC4DF7A5CC4EF7A8EC6DF00009D5
:104F300001E103D00201192BD2D705011B0E006F2E
:104F4000020E016F6FEC39F00201176FFF0E145D56
:104F500018E014C2F2F06DEC56F0F350020B11E0C1
:104F600014C2FDF09BEC58F0F3CFD4F0F4CFD5F0A1
:104F7000010E0001D427000ED52350EC50F00201A1
:104F8000156F0401996B0401976B986B0401956B85
:104F9000966B0401200E946F0201E751E96EEA6AF4
:104FA000D890E936EA36E30EE926020EEA22EE52FE
:104FB000EFCF93F499EC0BF0F3CF9DFCF4CF9EFC74
:104FC0000C019D519E115BE00201010E166F040160
:104FD000A10E766F0C0E776F0201E751E96EEA6A57
:104FE000D890E936EA36E30EE926020EEA22EE52BE
:104FF000EFCF75F4E0EC06F00C019D07000E9E5B10
:10500000C60E9D5D000E9E5913E30201040E186F3B
:10501000E751E96EEA6AD890E936EA36E30EE92606
:10502000020EEA22070EEF6E0C01A36B12EF30F0B6
:105030009DCC7BF49ECC7CF404011A0E796F020E99
:105040007A6F0201E751E96EEA6AD890E936EA36EA
:10505000E30EE926020EEA22EE52EFCF78F436ECA8
:1050600007F0F35002011027F450112310C2E9FF9A
:1050700011C2EAFF102B000E1123260EEF6E040161
:10508000996B0401976B986B0401956B966B040107
:105090000A0E946F0201E751E96EEA6AD890E93688
:1050A000EA36E30EE926020EEA22EE52EFCF93F43F
:1050B00099EC0BF0F3CF9DFCF4CF9EFC010E0C019C
:1050C0009D2504017B6F000E0C019E2104017C6F65
:1050D0000401796B7A6B0201E751E96EEA6AD890B4
:1050E000E936EA36E30EE926020EEA22EE52EFCF67
:1050F00078F436EC07F00201E751E96EEA6AD890DD
:10510000E936EA36E30EE926020EEA22020EEF6ED7
:105110000401996B0401976B986B0401956B966B76
:1051200004010A0E946F0201E751E96EEA6AD89011
:10513000E936EA36E30EE926020EEA22EE52EFCF16
:1051400093F499EC0BF0F3CF9DFCF4CF9EFC0C0193
:105150009D1D01E19E1D64E10201E751E96EEA6ACD
:10516000D890E936EA36E30EE926020EEA22EE523C
:10517000EFCF7DF4E9EC07F0F3CF14F0F4CF15F0A6
:105180001450151011E10201040E186FE751E96E79
:10519000EA6AD890E936EA36E30EE926020EEA22F8
:1051A000070EEF6E0C01A36BA4ECAEF002010851E8
:1051B000065C146E09510758156E0A510858166E90
:1051C0000B510958176E1734000E171809E6D880CE
:1051D000000E1454000E1554000E1654000E1754F1
:1051E0001EE2E751E96EEA6AD890E936EA36E30E44
:1051F000E926020EEA22EE52EFCF4EF465EC03F000
:105200000201E751E96EEA6AD890E936EA36E30E20
:10521000E926020EEA220B0EEF6E0C01A36B1DD1E4
:10522000A4ECAEF006C008F207C009F208C00AF20A
:1052300009C00BF28A0E02010827F00E09231B0E8B
:105240000A23000E0B230C01010E9D1901E19E5152
:1052500027E1020E04017B6F7C6B0401796B7A6B92
:105260000201E751E96EEA6AD890E936EA36E30EC0
:10527000E926020EEA22EE52EFCF78F436EC07F080
:105280000201E751E96EEA6AD890E936EA36E30EA0
:10529000E926020EEA22030EEF6E0C01A36BDDD0AD
:1052A0000401996B9DCC97F49ECC98F40401956B06
:1052B000966B04013A0E946F0201E751E96EEA6AB7
:1052C000D890E936EA36E30EE926020EEA22EE52DB
:1052D000EFCF93F499EC0BF0F3CF9FFCF4CFA0FC4D
:1052E000020E0C019F27000EA023A36B100ED88086
:1052F0009F55000EA0551DE2010E9D2504017B6FF8
:10530000000E0C019E2104017C6F0401796B7A6B05
:105310000201E751E96EEA6AD890E936EA36E30E0F
:10532000E926020EEA22EE52EFCF78F436EC07F0CF
:10533000EFD69FCC7BF4A0CC7CF40401A60E796F51
:105340000C0E7A6F0201E751E96EEA6AD890E936ED
:10535000EA36E30EE926020EEA22EE52EFCF78F4A7
:1053600036EC07F09FCCE9FFA0CCEAFFE906000E7F
:10537000EA5AA60EE9260C0EEA22EF6A0C019F51AA
:105380009D5FA0519E5BA26B030EA25D27E2A2511E
:10539000030DF3CFE9FFF4CFEAFF6F0EE9260E0EFF
:1053A000EA22EECFE6FFEECFE6FFEFCFE6FFA60E56
:1053B000E66E0C0EE66EB6ECA5F0146E050EE15E20
:1053C0001450000908E1A2CC9CF721EC31F00C014B
:1053D000010EA36F03D00C01A22BD6D7A3511FE05F
:1053E0000401996B0401976B986B0401956B966BA4
:1053F00004010A0E946F0201E751E96EEA6AD8903F
:10540000E936EA36E30EE926020EEA22EE52EFCF43
:1054100093F499EC0BF0F3CF9DFCF4CF9EFC010EBE
:105420000C019D2504017B6F000E0C019E210401DF
:105430007C6F0401796B7A6B0201E751E96EEA6ACD
:10544000D890E936EA36E30EE926020EEA22EE5259
:10545000EFCF78F436EC07F05BD612EF30F0800E29
:10546000175D12E2020E186FE751E96EEA6AD890F2
:10547000E936EA36E30EE926020EEA22070EEF6E5F
:105480000C01A36B12EF30F010C2E9FF11C2EAFF6A
:10549000EF6A07011A0E9D6F020E9E6F6BEC33F0E0
:1054A000F3CF10F2F4CF11F2070E0201185D10E1F4
:1054B000E751E96EEA6AD890E936EA36E30EE92662
:1054C000020EEA22070EEF6E0C01A36B12EF30F012
:1054D000E751E96EEA6AD890E936EA36E30EE92642
:1054E000020EEA22040EEF6E16510CE1E751E96E4E
:1054F000EA6AD890E936EA36E30EE926020EEA2295
:10550000050EEF6E0C01A36B0201166B12EF30F06B
:105510002EEC3AF0020802E112EF30F00201E751FE
:10552000E96EEA6AD890E936EA36E30EE926020E19
:10553000EA22050EEF6EE751E96EEA6AD890E93685
:10554000EA36E30EE926020EEA22EE52EFCF74F4B9
:10555000AEEC06F0F3CF14F0F4CF15F0166A176A2C
:10556000145002010C1909E115500D1906E11650ED
:105570000E1903E117500F1900E13DE1A4ECAEF064
:1055800002010851065C146E09510758156E0A5144
:105590000858166E0B510958176E1734000E17185D
:1055A00009E6D880000E1454000E1554000E16544F
:1055B000000E175420E2E751E96EEA6AD890E93606
:1055C000EA36E30EE926020EEA22EE52EFCF4EF45F
:1055D00065EC03F00201E751E96EEA6AD890E9361A
:1055E000EA36E30EE926020EEA220B0EEF6E0C01FC
:1055F000A36B12EF30F0180517E0080EE76E1819CC
:10560000E8AE02D0E73402D0E750185D01E2C2D024
:105610000A0EE76E1819E8AE02D0183503D0E7502D
:10562000D880185501E2B6D0080EE76E1819E8AE1A
:1056300002D0E73402D0E750185D23E30A0EE76E8C
:105640001819E8AE02D0183503D0E750D8801855A5
:1056500018E3C5EC36F00C01A16FA15111E1020174
:10566000E751E96EEA6AD890E936EA36E30EE926B0
:10567000020EEA22070EEF6E0C01A36B12EF30F060
:1056800004D01DEC3CF00C01A16F020EA15D1EE1E7
:105690000201E751E96EEA6AD890E936EA36E30E8C
:1056A000E926020EEA22EE52EFCF74F4AEEC06F0D9
:1056B000F3CF0CF2F4CF0DF20201010E0C5F000EDD
:1056C0000D5B0E6B0F6B12EF30F064D0A10562E141
:1056D0000201E751E96EEA6AD890E936EA36E30E4C
:1056E000E926020EEA22EE52EFCF74F4AEEC06F099
:1056F000F3CF0CF2F4CF0DF202010E6B0F6BA4ECA2
:10570000AEF006C008F207C009F208C00AF209C0EC
:105710000BF28A0E02010827F00E09231B0E0A2342
:10572000000E0B23000EE96E020EEA6EEE500C5DC9
:10573000EE500D59EE500E59EE500F5918E2E75148
:10574000E96EEA6AD890E936EA36E30EE926020EF7
:10575000EA22EE52EFCF7DF4E9EC07F0F3CF14F03C
:10576000F4CF15F01450151002E012EF30F00201E2
:10577000050E186FE751E96EEA6AD890E936EA3605
:10578000E30EE926020EEA22070EEF6E0C01A36B70
:1057900012EF30F00201E751E96EEA6AD890E9367B
:1057A000EA36E30EE926020EEA22060EEF6EFF0E3F
:1057B000145D12E1030E186FE751E96EEA6AD890A2
:1057C000E936EA36E30EE926020EEA22070EEF6E0C
:1057D0000C01A36B12EF30F0006B016B026B036BDB
:1057E000FF0E155D05E1046905690669076909D0C1
:1057F0000001040EE06F020EE16F15C2DFF0DCEC79
:1058000052F00201E751E96EEA6AD890E936EA36C9
:10581000E30EE926020EEA22070EEF6E0401020EE5
:10582000B16F0401AF6BB06B010E0401AD6FAE6BD5
:105830000201E751E96EEA6AD890E936EA36E30EEA
:10584000E926020EEA22EE52EFCFACF493EC1EF002
:1058500018C2E9FFEA6AE9BEEA68030EEA02F3CF7A
:10586000EAFFE902F3CFE9FFF450EA26480EE92601
:105870000E0EEA22EECF6FF4EECF70F4EFCF71F49C
:105880000201E751E96EEA6AD890E936EA36E30E9A
:10589000E926020EEA22EE52EFCF6EF43EEC06F05D
:1058A0000B0E0201185D58E104011A0E6C6F020E16
:1058B0006D6F0201E751E96EEA6AD890E936EA367F
:1058C000E30EE926020EEA22EE52EFCF6BF41EEC55
:1058D00006F004015B0E6F6FEB0E706F000E716FC0
:1058E0000201E751E96EEA6AD890E936EA36E30E3A
:1058F000E926020EEA22EE52EFCF6EF43EEC06F0FD
:1059000004011A0E6C6F020E6D6F0201E751E96E11
:10591000EA6AD890E936EA36E30EE926020EEA2270
:10592000EE52EFCF6BF41EEC06F00401140E6F6F15
:10593000000E706F000E716F0201E751E96EEA6AA6
:10594000D890E936EA36E30EE926020EEA22EE5254
:10595000EFCF6EF43EEC06F0020118510FE018058F
:105960000DE0E751E96EEA6AD890E936EA36E30ECF
:10597000E926020EEA220B0EEF6E54D30B0E195DD0
:1059800056E004014C0E6F6FEB0E706F000E716FDE
:105990000201E751E96EEA6AD890E936EA36E30E89
:1059A000E926020EEA22EE52EFCF6EF43EEC06F04C
:1059B00019C2E9FFEA6AE9BEEA68030EEA02F3CF18
:1059C000EAFFE902F3CFE9FFF450EA26240EE926C4
:1059D0000E0EEA22EECF6FF4EECF70F4EFCF71F43B
:1059E0000201E751E96EEA6AD890E936EA36E30E39
:1059F000E926020EEA22EE52EFCF6EF43EEC06F0FC
:105A00000401140E6F6F000E706F000E716F0201B3
:105A1000E751E96EEA6AD890E936EA36E30EE926FC
:105A2000020EEA22EE52EFCF6EF43EEC06F014C204
:105A3000F2F06DEC56F0F350010B17E00401330E59
:105A40006F6FEB0E706F000E716F0201E751E96E20
:105A5000EA6AD890E936EA36E30EE926020EEA222F
:105A6000EE52EFCF6EF43EEC06F00401230E6F6FA2
:105A7000EB0E706F000E716F0201E751E96EEA6A7A
:105A8000D890E936EA36E30EE926020EEA22EE5213
:105A9000EFCF6EF43EEC06F0020118050CE0E8686A
:105AA000041908E1E868051905E1E868061902E14A
:105AB000E868071918E004011A0E6F6FEB0E706F9B
:105AC000000E716F0201E751E96EEA6AD890E9367B
:105AD000EA36E30EE926020EEA22EE52EFCF6EF42A
