:020000040000FA
:06000000AAEFB5F01200AA
:020006001200E6
:060008008AEF92F01200E5
:02000E00FDFFF4
:0400100006D3F8CD4E
:030014000D0A00D2
:0100170000E8
:060018002DEF92F0120032
:02001E001300CD
:10002000B16C01005C08000001000000B06C010030
:100030005B08000001000000AD6C01004E080000EC
:1000400003000000846C01005C0700002900000030
:10005000826C010057080000020000007E6C010065
:100060004A08000004000000066C0100000E0000B9
:1000700078000000046C0100550800000200000038
:10008000026C01005308000002000000D66B010062
:10009000300700002C00000019FE00005A08000084
:1000A00001000000CF6B0100780E00000700000087
:1000B000170000005908000001000000C06B01009B
:1000C000EF0700000F000000BE6B010051080000A8
:1000D00002000000BA6B01004608000004000000A6
:1000E000B86B0100FE07000002000000B66B0100C3
:1000F000FE04000002000000B46B0100FE000000DE
:0401000002000000F9
:0C010400040143510801515D01E140D0AD
:10011000FE0E515D1BE01C0EE66EE66A270EE66ED3
:10012000040EE66E51511C0DF3CF14F0F4CF15F010
:10013000000E14260F0E152214C0E6FF15C0E6FFB0
:1001400064ECABF0166E060EE15E165043C451F837
:10015000FE0E0401435D01E11BD01C0EE66EE66A53
:1001600043511C0DF3CF14F0F4CF15F0000E1426FC
:100170000F0E152214C0E6FF15C0E6FF270EE66E2F
:10018000040EE66E64ECABF0166E060EE15E1650E1
:10019000120008015151525D01E169D0FE0E525D1D
:1001A00032E0250E0401B86FB96B0401010EB76F80
:1001B0000401020EB56F040EB66F080152511C0DFA
:1001C000F3CFE9FFF4CFEAFF000EE9260F0EEA2293
:1001D0001B0EE926000EEA22EFCFB4F452511C0D9B
:1001E000F3CFE9FFF4CFEAFF000EE9260F0EEA2273
:1001F000EECFB2F4EFCFB3F40401250EB25F000EE0
:10020000B35BADEC1FF051C852F8250E0401B86F76
:10021000B96B080152511C0DF3CFE9FFF4CFEAFF8F
:10022000000EE9260F0EEA221B0EE926000EEA2236
:10023000EFCFB7F451511C0DF3CFE9FFF4CFEAFF34
:10024000000EE9260F0EEA22EECFB5F4EFCFB6F49A
:100250000401250EB55F000EB65B0401010EB46FFC
:100260000401020EB26F040EB36FADEC1FF012006A
:100270000C01340E096F190E0A6F3C0EE66EE66A29
:10028000E66AC20EE66E040EE66EB2ECABF0146ED9
:10029000050EE15E14500C01016B006B0051146EF1
:1002A000156A030E145C000E155801E326D100CC2C
:1002B00043F428DF6EDFA20E146E6B0E156E010E76
:1002C000166E00CC17F0186A196A060E0C6E0D6ACD
:1002D0000E6A17C007F018C008F019C009F0D7EC73
:1002E000A1F004C017F005C018F006C019F01450B2
:1002F0001724F36E15501820F46E16501920F86E5E
:10030000F4CFF7FFF3CFF6FFF62A000EF722F8221C
:100310000800F5CF08FCA20E146E6B0E156E010ED0
:10032000166E00CC17F0186A196A060E0C6E0D6A6C
:100330000E6A17C007F018C008F019C009F0D7EC12
:10034000A1F004C017F005C018F006C019F0145051
:100350001724F36E15501820F46E16501920F86EFD
:10036000F4CFF7FFF3CFF6FF020EF626000EF722CA
:10037000F8220900F5CF02FC0A00F5CF03FCA20E1B
:10038000146E6B0E156E010E166E00CC17F0186A07
:10039000196A060E0C6E0D6A0E6A17C007F018C0B7
:1003A00008F019C009F0D7ECA1F004C017F005C09F
:1003B00018F006C019F014501724F36E15501820C9
:1003C000F46E16501920F86EF4CFF7FFF3CFF6FF56
:1003D000040EF626000EF722F8220900F5CF04FCE1
:1003E0000A00F5CF05FC0C01085101E085D009CCCD
:1003F00006FC0ACC07FC250E176A0225166E03516F
:100400001722010E1626000E172216500425146E10
:1004100017500521156E010E1426000E15221450DA
:10042000092715500A2309CC14F00ACC15F0166AD6
:10043000176AD8803A0E14541E0E1554000E165426
:10044000000E175401E2EFD7A20E146E6B0E156E5C
:10045000010E166E00CC17F0186A196A060E0C6EA3
:100460000D6A0E6A17C007F018C008F019C009F02D
:10047000D7ECA1F004C017F005C018F006C019F0C1
:1004800014501724F36E15501820F46E16501920CE
:10049000F86EF4CFF7FFF3CFF6FF0800F5CF26F4A0
:1004A00008CC42F4250E0C0106250401276F000E2E
:1004B0000C0107210401286F27510C0102250401BA
:1004C000296F28510C01032104012A6F010E2927ED
:1004D000000E2A2329510C01042504012B6F2A51F7
:1004E0000C01052104012C6F0D0E3D6F3E97B7ECFA
:1004F00016F00C01002BD2D6FFD712000C01A76B0F
:10050000A751146E156A030E145C000E155801E312
:10051000AFD0A7CC43F4F6DD0D0E04013D5D01E044
:10052000A4D037DE04014B51265D01E09ED0485136
:100530000CE149C412F44AC413F43E87040E3D6F23
:1005400049C440F44AC441F48DD0000E005D040E4D
:10055000015906E3880ED8800055130E015503E2B9
:10056000006B040E016F00C412F401C413F4002BDD
:10057000000E012349C410F44AC411F476ECB3F020
:1005800006C035F407C036F408C037F409C038F4A3
:1005900004013E894851040A26E0070A01E062D0BE
:1005A00046514425166E47514521176E1650492570
:1005B000146E17504A21156E14501219406F1550C1
:1005C0001319416F44C418F445C419F446C41AF40D
:1005D00047C41BF4256B270E026F036B046B056B7E
:1005E000020E3D6F3FD044C4E9FF45C4EAFF020E4E
:1005F000E926000EEA22EECF18F0EFCF19F044C43E
:10060000E9FF45C4EAFF1850EE24166E1950EE209B
:10061000176E16504925146E17504A21156E145046
:100620001219406F15501319416F0A0EE66EE66AF3
:1006300044C4E6FF45C4E6FF180EE66E040EE66EFF
:1006400064ECABF0146E060EE15E14500401050E6E
:100650003D6F0401010EA16F0401020EA06F05ECB5
:1006600010F000D00C01A75105D00C01A72B48D7E2
:10067000FE0E00D012004CC443F444DD04013FA937
:1006800003D03F99010E02D0000E00D012004DC4DD
:1006900043F438DD070E04013D5D02E0000E01D099
:1006A000010E00D012004EC443F42CDD31C433F4EB
:1006B00032C434F404013D51080A2DE0010A2BE054
:1006C000050A29E0020A24E0050A16E00D0A08E0FE
:1006D000010A06E0020A01E01ED0B7EC16F025D0B0
:1006E0000401010EA16F0401110EA06F05EC10F0C2
:1006F0000401080E3D6F19D00401010EA16F040121
:10070000110EA06F05EC10F004010C0E3D6F0DD022
:100710000D0E3D6F0AD00401A16B0401140EA06FF1
:1007200005EC10F0B7EC16F000D0120032DD0A0E26
:10073000E66EE66A180EE66E040EE66E500EE66E83
:10074000040EE66E64ECABF0146E060EE15E14501F
:1007500010C45AF411C45BF4500E146E040E156EDE
:1007600014C0F3FF15C0F4FF00D012005CC443F4C2
:10077000C9DC0FDD04010E512D1902E10F512E19B4
:1007800008E00401010EA16F0401100EA06F05EC3A
:1007900010F012005DC443F4B5DC3DC455FC070EF7
:1007A0000C01555D06E00B0E555D03E0F36AF46A3B
:1007B0002FD004012F512D5D30512E591BE32751AD
:1007C000295D166E2A512855176E1606000E175A07
:1007D0002F512D5D186E2E513055196E1850165C24
:1007E000146E19501758156E14C0F3FF15C0F4FF9E
:1007F0000FD00ED02D512F5D146E30512E55156E29
:100800001406000E155A14C0F3FF15C0F4FF00D0F3
:1008100012005EC443F476DC5EC45DF4BBDFF3CF4C
:1008200005FCF4CF06FC0C010551061103E1000E96
:1008300063D008D0010E051901E1065103E15EC441
:100840005CF494DF04013F51010B14E12751295D51
:10085000146E2A512855156ED890153214320C0199
:100860000551145C0651155805E35EC45CF47EDF47
:1008700004013F81010E0401B86FB96B0401B76F29
:1008800004015F0EB56F040EB66F42C4B4F42DC4FC
:10089000B2F42EC4B3F4ADEC1FF004012D2B000E06
:1008A0002E2329512D5D2A512E5904E327C42DF4FE
:1008B00028C42EF40C01010E051901E1065104E1D2
:1008C0005EC45CF453DF16D004013EBB13D03E8BF4
:1008D00081ECB3F006C014F007C015F0166A176A71
:1008E000060E1426000E15221622172214C039F403
:1008F00015C03AF4010E00D012000C01BF6BC06BA2
:1009000060C443F482EC00F060C45DF443DFF3CFD5
:10091000BDFCF4CFBEFC0C01BD51BE1106E160C4AC
:100920005CF424DFF36AF46AADD0BDCCBBFCBECC72
:10093000BCFCBD510401635D0C01BE51040164594E
:1009400004E263C4BBFC64C4BCFC3F51010B14E172
:100950002751295D146E2A512855156ED8901532ED
:1009600014320C01BD51145CBE51155805E360C42E
:100970005CF4FCDE04013F8104012D510C01BB2518
:10098000146E04012E510C01BC21156E0401295175
:10099000145C2A5115582DE32D51295D0C01BF6FB0
:1009A00004012E512A590C01C06FBFCCB8F4C0CC41
:1009B000B9F40401010EB76F61C4B5F462C4B6F4B2
:1009C00042C4B4F42DC4B2F42EC4B3F4ADEC1FF0A1
:1009D0000C01BF51040161270C01C05104016223C5
:1009E0000C01BF51BB5FC051BC5B27C42DF428C4B0
:1009F0002EF4BBCCB8F4BCCCB9F40401010EB76F33
:100A000061C4B5F462C4B6F442C4B4F42DC4B2F403
:100A10002EC4B3F4ADEC1FF00C01BB5104012D2723
:100A20000C01BC5104012E230C01BD510401635D76
:100A30000C01BE510401645904E360C45CF496DE09
:100A400015D03EBB13D03E8B81ECB3F006C014F042
:100A500007C015F0166A176A060E1426000E152236
:100A60001622172214C039F415C03AF40C01BB51F8
:100A7000BF25146EBC51C021156E14C0F3FF15C004
:100A8000F4FF00D012000C01166B176B65C443F421
:100A900082EC00F065C45DF47DDEF3CF14FCF4CF8E
:100AA00015FC0C011451151106E165C45CF45EDE01
:100AB000F36AF46AB0D004013F51010B14E12751ED
:100AC000295D146E2A512855156ED89015321432AE
:100AD0000C011451145C1551155805E365C45CF400
:100AE00045DE04013F8114CC12FC15CC13FC0C0133
:100AF00014510401695D0C01155104016A5904E2A5
:100B000069C412FC6AC413FC2D510C011225146E29
:100B100004012E510C011321156E04012951145C9E
:100B20002A51155830E32D51295D0C01166F04012F
:100B30002E512A590C01176F16CCC0F417CCC1F4F2
:100B400066C4BDF467C4BEF468C4BFF442C4BCF458
:100B50002DC4BAF42EC4BBF40DEC20F016CC14F066
:100B600017CC15F0166A1450040166271550672338
:100B7000165068230C011651125F1751135B27C4DE
:100B80002DF428C42EF412CCC0F413CCC1F466C4E6
:100B9000BDF467C4BEF468C4BFF442C4BCF42DC441
:100BA000BAF42EC4BBF40DEC20F00C011251040178
:100BB0002D270C01135104012E230C0114510401A3
:100BC000695D0C01155104016A5904E365C45CF4C4
:100BD000CDDD15D03EBB13D03E8B81ECB3F006C00B
:100BE00014F007C015F0166A176A060E1426000ED8
:100BF00015221622172214C039F415C03AF40C013C
:100C000012511625146E13511721156E14C0F3FFDF
:100C100015C0F4FF00D012006CC4E6FF6DC4E6FFFF
:100C20003CECACF0E552E552F3CF63F4F4CF64F45E
:100C30006CC461F46DC462F46BC460F45EDE0401E4
:100C40006C51F324146E6D51F420156E14C0F3FF33
:100C500015C0F4FF00D012006FC4E6FF70C4E6FFB9
:100C600071C4E6FF4AECACF0E552E552E55207C02C
:100C700069F408C06AF46FC466F470C467F471C4A0
:100C800068F46EC465F4FFDEF3CF17F0F4CF18F00C
:100C9000196A04016F511724146E70511820156ED3
:100CA00071511920166E14C007F015C008F016C057
:100CB00009F000D0120072C443F482EC00F0040189
:100CC0002751295D0C01026F040128512A590C019A
:100CD000036F010E025F000E035B72C45DF45ADD08
:100CE000F3CF00FCF4CF01FC0C010051025D146E47
:100CF00003510155156E14C0F3FF15C0F4FF00D069
:100D0000120073C474F418D8F3CF14F0F4CF15F0B4
:100D10001450151010E073C443F482EC00F031C499
:100D200033F432C434F40401010EA16F0401100E37
:100D3000A06F05EC10F0120074C443F482EC00F0D4
:100D400004013351315D345132590CE33351315D7B
:100D5000146E32513455156E14C0F3FF15C0F4FFF4
:100D60001CD01BD033512B5D166E2C513455176E91
:100D7000010E1626000E17222951315D186E3251D0
:100D80002A55196E16501824146E17501920156E16
:100D900014C0F3FF15C0F4FF00D0120075C474F442
:100DA000CBDFF3CF00FCF4CF01FC0C0100510111AB
:100DB00002E1000E48D075C443F482EC00F0040157
:100DC0007651771112E0010E0401B86FB96B42C47D
:100DD000B7F433C4B5F434C4B6F40401B46F76C4C4
:100DE000B2F477C4B3F4ADEC1FF00401332B000E62
:100DF000342333512B5D34512C5904E229C433F48C
:100E00002AC434F40C01010E001901E1015103E17F
:100E100004013F8516D004013EBB13D03E8B81EC0C
:100E2000B3F006C014F007C015F0166A176A060E74
:100E30001426000E15221622172214C039F415C0EC
:100E40003AF4010E00D012000C01636B646B78C49D
:100E500074F472DFF3CF61FCF4CF62FC0C016151DA
:100E6000621103E1F36AF46AA1D078C443F482EC1E
:100E700000F004017B510C01615D04017C510C0107
:100E8000625904E261CC7BF462CC7CF404013351FE
:100E90007B25146E34517C21156E14502B5D15503A
:100EA0002C5938E233512B5D0C01636F040134512E
:100EB0002C590C01646F010E6327000E642304019A
:100EC00079517A111BE063CCB8F464CCB9F442C414
:100ED000B7F433C4B5F434C4B6F40401010EB46FEE
:100EE00079C4B2F47AC4B3F4ADEC1FF00C016351D1
:100EF000040179270C01645104017A230C01635128
:100F000004017B5F0C01645104017C5B29C433F450
:100F10002AC434F479517A1113E07BC4B8F47CC448
:100F2000B9F442C4B7F433C4B5F434C4B6F404011C
:100F3000010EB46F79C4B2F47AC4B3F4ADEC1FF00F
:100F400004017B5133277C5134230C01635104018C
:100F50007B270C01645104017C237B510C01615DF2
:100F6000146E625104017C55156E14507B5D155052
:100F70007C5902E33F8515D03EBB13D03E8B81ECFC
:100F8000B3F006C014F007C015F0166A176A060E13
:100F90001426000E15221622172214C039F415C08B
:100FA0003AF47BC4F3FF7CC4F4FF00D012007DC48C
:100FB00043F482EC00F0040129512B5D0C01026F17
:100FC00004012A512C590C01036F7DC474F4B4DE62
:100FD000F3CF00FCF4CF01FC0C010051025D146E54
:100FE00003510155156E14C0F3FF15C0F4FF00D076
:100FF000120004018151821103E1F36AF46AB2D153
:101000007EC443F482EC00F07EC474F495DE0401E7
:101010008351F35C0C01026F04018451F4580C01FC
:10102000036F040181510C01025D040182510C0126
:10103000035903E2F368F46895D1040185518611E0
:101040000DE00C0102510401855D0C010351040106
:10105000865904E285C402FC86C403FC335183250F
:101060000C01066F0401345184210C01076F0651F5
:1010700004012B5D0C01075104012C590FE2295189
:101080002B5D146E2C512A55156E010E1426000E80
:10109000152214500C01065F1550075B06CC00FCAE
:1010A00007CC01FC0C01065104012B5D0C01046FFF
:1010B000075104012C590C01056F010E0427000E85
:1010C000052383C406FC84C407FC81C408FC82C4D5
:1010D00009FC7FC40AFC80C40BFC04017FC4E9FF47
:1010E00080C4EAFF7F2B8023EFCF0DFC0C010F6B38
:1010F0000401875109E0610E0C010D5D05E30D51FE
:101100007A0802E3E00E0D270C01200E0E6F0E513F
:10111000045D000E055902E204CC0EFC0E51025D86
:10112000000E035902E202CC0EFC0E510401B86F0E
:10113000B96B42C4B7F400CCB5F401CCB6F40401E9
:10114000010EB46F0401100EB26F0C0EB36FADEC54
:101150001FF00C010E51146E156A14500027155023
:1011600001230E51146E156A1450045F1550055B6F
:101170000451051106E129C400FC2AC401FC0469DC
:1011800005690401875101E181D00C010C6B0E51FE
:101190000C5D01E37AD00C51EA6A100FE96E0C0E77
:1011A000EA22EFCF14F0610E145C13E30C51EA6AEB
:1011B000100FE96E0C0EEA22EF507A080AE3E00EF7
:1011C000146E0C51EA6A100FE96E0C0EEA221450EC
:1011D000EF260C51EA6A100FE96E0C0EEA22EF506E
:1011E0000D5D33E104018107000E825B81518211A4
:1011F00017E10C010851065D166E07510955176E6F
:101200000C5100011624146E000E1720156E010EED
:101210001426000E152214C0F3FF15C0F4FFA2D04F
:101220007FC4E9FF80C4EAFF7F2B000E8023EFCF4D
:101230000DFC0C01010E0F6F610E0D5D05E30D51EC
:101240007A0802E3E00E0D271ED008CC81F409CC09
:1012500082F40F5118E00ACC7FF40BCC80F4040127
:101260007FC4E9FF80C4EAFF7F2B000E8023EFCF0D
:101270000DFC610E0C010D5D05E30D517A0802E3D2
:10128000E00E0D270F6B0C2B82D751D00C010C6B8D
:101290000E510C5D4CE20C51EA6A100FE96E0C0E17
:1012A000EA22EF500D5D2BE104018107000E825B05
:1012B0008151821117E10C010851065D166E07512C
:1012C0000955176E0C5100011624146E000E1720DC
:1012D000156E010E1426000E152214C0F3FF15C062
:1012E000F4FF40D07FC4E9FF80C4EAFF7F2B000EEB
:1012F0008023EFCF0DFC0C01010E0F6F16D008CC30
:1013000081F409CC82F40F5110E00ACC7FF40BCCAD
:1013100080F404017FC4E9FF80C4EAFF7F2B000E44
:101320008023EFCF0DFC0C010F6B0C2BB1D70E51AE
:10133000146E156A1450025F1550035B040181514D
:101340000C01025D040182510C01035903E2F368B0
:10135000F46808D00E51146E156A14500627155003
:101360000723D2D6120004018C518D1103E1F36AD8
:10137000F46ACCD188C443F482EC00F088C474F4DD
:10138000DBDC04018E51F35C0C01026F04018F5110
:10139000F4580C01036F04018C510C01025D04012F
:1013A0008D510C01035903E2F368F468AFD10401D5
:1013B000905191110DE00C0102510401905D0C015E
:1013C00003510401915904E290C402FC91C403FC4E
:1013D00033518E250C01066F040134518F210C010D
:1013E000076F065104012B5D0C01075104012C59B4
:1013F0000FE229512B5D146E2C512A55156E010EEA
:101400001426000E152214500C01065F1550075BC0
:1014100006CC00FC07CC01FC0C01065104012B5D3D
:101420000C01046F075104012C590C01056F010ECA
:101430000427000E05238EC406FC8FC407FC8CC451
:1014400008FC8DC409FC89C40AFC8AC40BFC8BC44B
:101450000CFC040189C4F6FF892B8AC4F7FF8A2398
:101460008BC4F8FF8B230800F5CF0EFC0C01106B2A
:101470000401925109E0610E0C010E5D05E30E516D
:101480007A0802E3E00E0E270C01200E0F6F0F51B9
:10149000045D000E055902E204CC0FFC0F51025D01
:1014A000000E035902E202CC0FFC0F510401B86F89
:1014B000B96B42C4B7F400CCB5F401CCB6F4040166
:1014C000010EB46F0401110EB26F0C0EB36FADECD0
:1014D0001FF00C010F51146E156A1450002715509F
:1014E00001230F51146E156A1450045F1550055BEB
:1014F0000451051106E129C400FC2AC401FC046959
:1015000005690401925101E18BD00C010D6B0F5163
:101510000D5D01E384D00D51EA6A110FE96E0C0EE6
:10152000EA22EFCF14F0610E145C13E30D51EA6A66
:10153000110FE96E0C0EEA22EF507A080AE3E00E72
:10154000146E0D51EA6A110FE96E0C0EEA22145066
:10155000EF260D51EA6A110FE96E0C0EEA22EF50E8
:101560000E5D37E104018C07000E8D5B8C518D11EF
:1015700017E10C010851065D166E07510955176EEB
:101580000D5100011624146E000E1720156E010E69
:101590001426000E152214C0F3FF15C0F4FFB6D0B8
:1015A00089C4F6FF892B8AC4F7FF000E8A238BC4F7
:1015B000F8FF8B230800F5CF0EFC0C01010E106F15
:1015C000610E0E5D05E30E517A0802E3E00E0E2770
:1015D00024D008CC8CF409CC8DF410511EE00ACC38
:1015E00089F40BCC8AF40CCC8BF4040189C4F6FF8B
:1015F000892B8AC4F7FF000E8A238BC4F8FF8B2344
:101600000800F5CF0EFC610E0C010E5D05E30E51D6
:101610007A0802E3E00E0E27106B0D2B78D75BD013
:101620000C010D6B0F510D5D56E20D51EA6A110F61
:10163000E96E0C0EEA22EF500E5D2FE104018C07DB
:10164000000E8D5B8C518D1117E10C010851065D68
:10165000166E07510955176E0D5100011624146EB0
:10166000000E1720156E010E1426000E152214C050
:10167000F3FF15C0F4FF4AD089C4F6FF892B8AC452
:10168000F7FF000E8A238BC4F8FF8B230800F5CFE9
:101690000EFC0C01010E106F1CD008CC8CF409CC90
:1016A0008DF4105116E00ACC89F40BCC8AF40CCCE2
:1016B0008BF4040189C4F6FF892B8AC4F7FF000E5E
:1016C0008A238BC4F8FF8B230800F5CF0EFC0C0196
:1016D000106B0D2BA7D70F51146E156A1450025FB3
:1016E0001550035B04018C510C01025D04018D5106
:1016F0000C01035903E2F368F46808D00F51146E2B
:10170000156A1450062715500723BED6120099C437
:1017100087F497C485F498C486F495C483F496C47A
:1017200084F4010E0401816F826B0401940E7F6FBB
:10173000040E806F93C47EF45CDC00D012000C01B8
:10174000006B0051146E156A030E145C000E1558E0
:1017500001E316D300CC43F482EC00F00C01036BE0
:10176000016B026B04013F51020B03E13F51040B7B
:101770000EE0D9EC89F000090AE00C01100E036FAD
:1017800004013F51040B01E0010E0C01016F040143
:101790003EAB13D081ECB3F004010650395D146EFA
:1017A00007503A59156E153404E214500008000E23
:1017B000155403E30C01100E036F04013EAD13D06A
:1017C00081ECB3F0040106503B5D146E07503C59A8
:1017D000156E153404E214500008000E155403E38E
:1017E0000C01100E036F0B0E04013D5D16E181EC40
:1017F000B3F0040106503B5D146E07503C59156E62
:10180000153404E214500008000E155406E30C01D0
:10181000110E036F04010C0E3D6F040E3D5D01E0DF
:101820000AD10C01046B056B030E045D000E055913
:1018300001E301D104CCE9FF05CCEAFF140EEA0272
:10184000F3CFEAFFE902F3CFE9FFF450EA26C20E34
:10185000E926040EEA22100EE926000EEA22EE50D6
:10186000ED1001E1E8D004CCE9FF05CCEAFF140E4D
:10187000EA02F3CFEAFFE902F3CFE9FFF450EA26E8
:10188000C20EE926040EEA22100EE926000EEA2214
:10189000EECF14F0EFCF15F004014051141802E11F
:1018A0004151151801E0C2D0C9EC00F00A0EE66EF5
:1018B000E66A04CCE9FF05CCEAFF140EEA02F3CF96
:1018C000EAFFE902F3CFE9FFF450EA26C20EE92667
:1018D000040EEA22E9CF14F0EACF15F014C0E6FFB7
:1018E00015C0E6FF180EE66E040EE66E64ECABF073
:1018F000166E060EE15E165004CCE9FF05CCEAFF39
:10190000140EEA02F3CFEAFFE902F3CFE9FFF45045
:10191000EA26C20EE926040EEA220A0EE926000E85
:10192000EA22EECF10F4EDCF11F404CCE9FF05CCA0
:10193000EAFF140EEA02F3CFEAFFE902F3CFE9FF70
:10194000F450EA26C20EE926040EEA220C0EE9261D
:10195000000EEA22EECF0AF4EECF0BF4EECF0CF439
:10196000EFCF0DF404010A2B0B230C230D231A5186
:101970001825166E1B511921176E16501025146E5E
:1019800017501121156E14501219406F155013196C
:10199000416F0C01120E036F0401060E3D6F04CC63
:1019A000B8F405CCB9F40401020ED880B857000E83
:1019B000B957140EB903F3CFB9F4B803F3CFB8F4A1
:1019C000F450B9270401010EB76F0C01042504017E
:1019D000B56F000E0C0105210401B66F140EB6039D
:1019E000F3CFB6F4B503F3CFB5F4F450B627C20E77
:1019F000B527040EB6230401010EB46F140E086E51
:101A0000096A04CC0DF005CC0EF0B9ECA1F006C0CB
:101A1000B2F407C0B3F4C20E0401B227040EB3231C
:101A2000ADEC1FF00401FA6BFB6B05D00C01042B2D
:101A3000000E0523F9D60C0103510AE0015102E022
:101A4000000E01D0010E0401A16F03CCA0F4DDDA79
:101A500004013EB94ED0070E3D5D4AE176ECB3F08D
:101A600004013551065C146E36510758156E375116
:101A70000858166E38510958176E0001800E171459
:101A800001E07BD104013E51070B060815E13E51F0
:101A9000080B01E0010E0C01036F00CC4EF453EC77
:101AA00003F000CC4EF453EC03F00C01035103E1BE
:101AB00004010E0E3D6F61D1C9EC00F00401020E6D
:101AC000A16F0401100EA06FA0DA76ECB3F006C08F
:101AD00035F407C036F408C037F409C038F4740E82
:101AE00004013527350E3623060E3723000E382322
:101AF00044D176ECB3F004013551065C146E3651D6
:101B00000758156E37510858166E38510958176E18
:101B10000001800E171401E030D1C9EC00F004017F
:101B20003D510C0A01E1CCD0060A01E1BAD0030A0A
:101B300001E1B1D0010A01E19FD00F0A01E18DD08E
:101B40000C0A01E18AD00D0A73E0030A6BE0060A71
:101B500014E0010A01E0C3D081ECB3F006C039F40F
:101B600007C03AF40701180EE76F040EE86FB1ECF6
:101B7000A6F00401030E3D6FB2D007011C0EEB6FFF
:101B8000040EEC6F0701180EE96F040EEA6FF5EC16
:101B9000A6F000093FE139C418F03AC419F01A6AF6
:101BA0001B6A18C0E6FF19C0E6FF1AC0E6FF1BC09B
:101BB000E6FF81ECB3F0E552E7CF1BF0E552E7CF4B
:101BC0001AF0E552E7CF19F0E552E7CF18F000011F
:101BD0001850065C146E19500758156E1A500858A4
:101BE000166E1B500958176E14500401025D1550F3
:101BF000035916500459175005590BE2060E255D7E
:101C000006E2252BD8900237033704370537020E3A
:101C10003D6F65D00C01020E036F016B0401050ED0
:101C20003D6F5DD00C01020E036F010E016F57D0A6
:101C3000020E255D06E20C01120E036F010E016F0C
:101C40000BD03EA706D00C01140E036F010E026FDD
:101C500003D00C01020E036F42D0050E255D06E293
:101C60000C01100E036F010E016F05D0080E3D6FC1
:101C70000C01110E036F33D0050E255D06E20C0139
:101C8000110E036F010E016F05D00C01140E036FCE
:101C9000010E026F24D00C01140E036F010E026FAF
:101CA0001ED0050E255D06E20C01100E036F010E1D
:101CB000016F05D00C01140E036F010E026F0FD0DF
:101CC000050E255D06E20C01110E036F010E016F7A
:101CD00005D00C01140E036F010E026F00D00C0131
:101CE000035146E001513EE00401252BD890023714
:101CF0000337043705372F510E5D146E0F513055E1
:101D0000156E166A176A15AE02D016681768145059
:101D1000065F1550075B1650085B1750095B2F5183
:101D20000E5D30510F5914E22751295D146E2A516E
:101D30002855156E166A176A15AE02D01668176810
:101D40001450065F1550075B1650085B1750095B6F
:101D50002FC40EF430C40FF40401A16B03CCA0F423
:101D600054D906D00401010EA16F03CCA0F44DD9C3
:101D70000C01025102E0B7EC16F00C01002BE1D48B
:101D8000046B056B030E045D000E055901E399D049
:101D900004CCE9FF05CCEAFF140EEA02F3CFEAFF18
:101DA000E902F3CFE9FFF450EA26C20EE926040E59
:101DB000EA22100EE926000EEA22EE50ED1001E1B3
:101DC00080D004CCE9FF05CCEAFF140EEA02F3CF81
:101DD000EAFFE902F3CFE9FFF450EA26C20EE92652
:101DE000040EEA22120EE926000EEA22EECF16F0C9
:101DF000EFCF17F016C0E6FF17C0E6FF81ECB3F097
:101E0000E552E7CF17F0E552E7CF16F01650065C23
:101E1000146E17500758156EDC0ED8801454010E3E
:101E200015544AE204CCB8F405CCB9F40401020E0E
:101E3000D880B857000EB957140EB903F3CFB9F4D0
:101E4000B803F3CFB8F4F450B9270401010EB76F0B
:101E50000C0104250401B56F000E0C0105210401DD
:101E6000B66F140EB603F3CFB6F4B503F3CFB5F4E3
:101E7000F450B627C20EB527040EB6230401010E96
:101E8000B46F140E086E096A04CC0DF005CC0EF088
:101E9000B9ECA1F006C0B2F407C0B3F4C20E04015D
:101EA000B227040EB323ADEC1FF00401FA6BFB6BF9
:101EB0000C010407000E055B0C01042B000E05232A
:101EC00061D712009AC4E9FF9BC4EAFFEECF14FC6D
:101ED000EECF15FCEECF16FCEFCF17FC9CC4E9FF4C
:101EE0009DC4EAFFEECF18FCEECF19FCEECF1AFC32
:101EF000EFCF1BFC0C011C6B060E1D6F9EC41EFC5D
:101F00009FC41FFC1ECCE5F61FCCE6F647EC73F031
:101F1000F3CF1EFCF4CF1FFC0C0E0601ED6FEE6B31
:101F20000601140EEB6F0C0EEC6F6EEC73F0F3CF3A
:101F300020FCF4CF21FC0C01201F211F9EC4ADF614
:101F40009FC4AEF6C1EC8BF0F3CF22FCF4CF23FCA0
:101F50000C012251201902E12351211904E0F6EC71
:101F600089F0010E51D00801296B2A6BA0ECADF06D
:101F7000140E0601B76FB86B0601000EB56F0C0E9C
:101F8000B66F27EC8DF00401000EA66F0C0EA76F44
:101F9000DCEC15F00C010C51F00BE842E842E84291
:101FA000E842040DF350146E156A140E145E000E10
:101FB000155A14C024FC2451146E156A14500401DF
:101FC0009E5D9E6F15509F599F6F140E9E5F000E71
:101FD0009F5B9AC4A4F49BC4A5F40401000EA26FF5
:101FE0000C0EA36F3FDB00090BE09EC4AAF49FC454
:101FF000ABF40401000EA86F0C0EA96FFCEC16F0F8
:10200000F6EC89F0010E00D01200C9EC00F00401DA
:10201000A0A102D03F87A0913E9B3E9D3E9F3F9353
:102020003F953F91D9EC89F0000901E1FBD7060EFD
:102030000401A01504E00C017B6B7C6B5FD10E5199
:102040002D1902E10F512E190BE10C017B6B7C6BFA
:1020500004013FA704D01451151101E0A0814ED115
:102060002D510E5D2E510F5901E379D00E512D5D8A
:102070000C017B6F04010F512E590C017C6F14C4AD
:102080007DFC15C47EFC04012F510E5D30510F59AB
:102090000CE32F510E5D146E0F513055156E145018
:1020A0000C017D5F15507E5B17D02751295D166EA0
:1020B0002A512855176E0E512F5D186E30510F554D
:1020C000196E1850165C146E19501758156E14506E
:1020D0000C017D5F15507E5B7B517D5D7C517E598F
:1020E00004E27DCC7BFC7ECC7CFC180ED8807B553A
:1020F000020E7C5506E2180E7B6F020E7C6F040107
:102100003F8504013FA70FD00C017D517B1902E1EF
:102110007E517C1908E0180E7B1902E1020E7C1931
:1021200002E00401A0817BCCB8F47CCCB9F442C4B9
:10213000B7F40EC4B5F40FC4B6F40401B46B0401D3
:10214000790EB26F130EB36FADEC1FF00C017B5123
:1021500004010E270C017C5104010F23CFD00E5136
:10216000295D0C01796F04010F512A590C017A6F16
:10217000795104012D25146E0C017A5104012E2190
:10218000156E2751145C0C017B6F04012851155802
:102190000C017C6F14C47DFC15C47EFC04012F511E
:1021A0000E5D30510F590CE32F510E5D146E0F511F
:1021B0003055156E14500C017D5F15507E5B17D0A5
:1021C0002751295D166E2A512855176E0E512F5D25
:1021D000186E30510F55196E1850165C146E195048
:1021E0001758156E14500C017D5F15507E5B7B51A6
:1021F0007D5D7C517E5904E27DCC7BFC7ECC7CFCF9
:10220000180ED8807B55020E7C5506E2180E7B6FA7
:10221000020E7C6F04013F8504013FA70FD00C0123
:102220007D517B1902E17E517C1908E0180E7B1963
:1022300002E1020E7C1902E00401A0810C01795137
:102240007B5D7A517C5904E27BCC79FC7CCC7AFCB6
:1022500079CCB8F47ACCB9F442C4B7F40EC4B5F46E
:102260000FC4B6F40401B46B0401790EB26F130EFF
:10227000B36FADEC1FF00C0179517B5D796F7A5132
:102280007C597A6F79517A1122E079CCB8F47ACC02
:10229000B9F442C4B7F427C4B5F428C4B6F40401B1
:1022A000B46B04010E51295D146E2A510F55156E41
:1022B000166A176A790E1426130E1522000E1622BE
:1022C000172214C0B2F415C0B3F4ADEC1FF00C012A
:1022D0007B5104010E270C017C5104010F2329516D
:1022E0000E5D2A510F590AE32751295D146E2A51B8
:1022F0002855156E14500E5F15500F5B0C017B5165
:102300007C1104E1030E0401A01521E00C017B51B6
:102310007C1102E00401A0870401A1A107D0256B74
:10232000F20E026F9E0E036F046B056B76ECB3F03A
:10233000065004010225356F07500321366F0850FF
:102340000421376F09500521386F3E8936D0A1A38B
:102350001BD03E0EE96E040EEA6EEF50070BE82A22
:10236000F36EF350070BF36EF46EF80EEF14F310E8
:10237000EF6EF4500607000E075B085B095B010E69
:102380000C017B6F7C6B19D03EA917D0A1B106D090
:102390002507D890053304330333023376ECB3F0CA
:1023A000065004010225356F07500321366F08508F
:1023B0000421376F09500521386F12C457FC13C42C
:1023C00058FC10C459FC11C45AFC06C45BFC07C479
:1023D0005CFC08C45DFC09C45EFC0AC45FFC0BC461
:1023E00060FC0CC461FC0DC462FC0C01649D649F24
:1023F0006391639363956397A0C464FC696B6A6B94
:102400007B51040106270C017C5104010723000EB7
:1024100008230923A0A315D0A0B905D00C015F6B38
:10242000606B616B626B040124A306D00C015B0737
:102430005C5B5D5B5E5B05D0062B072308230923ED
:1024400024830401A0A10DD024A106D00C015B07B8
:102450005C5B5D5B5E5B05D0062B072308230923CD
:10246000248104013351315D3451325914E329512F
:102470002B5D146E2C512A55156E3351315D166E3D
:1024800032513455176E0C011650145C656F17509D
:102490001558666F0DD03151335D0C01656F040125
:1024A000325134590C01666F010E655F000E665B98
:1024B00020EC8AF0F3CF55FCF4CF56FC0C01400E13
:1024C000555F000E565B800E561502E0556B566B3D
:1024D0006551555D6651565904E255CC65FC56CCA4
:1024E00066FC0401570EA66F0C0EA76F65DB140E79
:1024F0000C017B27000E7C236389639B638D639FA4
:102500000401A0A328D0040E0C017B27000E7C231D
:10251000020E6B6F040E6C6F020E6D6F140E6E6FF9
:10252000010E146E630EE96E0C0EEA6EEF50F00BA6
:10253000E842E842E842E8421424F36EF3500F0BFD
:10254000F36EF46EF346F346F346F3460F0EEF14C4
:10255000F310EF6EF4500CC16FFC0DC170FC0EC196
:1025600071FC0FC172FC18C473FC19C474FC1AC44A
:1025700075FC1BC476FC0C01776B060E786F7BCC68
:1025800079FC7CCC7AFC79CCE5F67ACCE6F647ECA3
:1025900073F0F3CF79FCF4CF7AFC0C0E0601ED6FEB
:1025A000EE6B06016F0EEB6F0C0EEC6F6EEC73F0C2
:1025B000F3CF67FCF4CF68FC0C01671F681F0601AE
:1025C000510EA56F130EA66F66EC8BF07BCC27F82F
:1025D0007CCC28F80801060E266F0801180E246F1F
:1025E000040E256F2CECADF0140E0601BC6FBD6B14
:1025F0000601570EBA6F0C0EBB6F5FEC8DF0040135
:10260000A0A30BD0040E0601BC6FBD6B06016B0EC0
:10261000BA6F0C0EBB6F5FEC8DF00601650EA76FF5
:10262000130EA86F74EC8BF07BCCADF67CCCAEF6C1
:10263000C1EC8BF0F3CF55FCF4CF56FC0601750EC0
:10264000A56F130EA66F66EC8BF0020E0601BC6F31
:10265000BD6B0601550EBA6F0C0EBB6F5FEC8DF0B3
:102660002AEF8BF0A2C4E9FFA3C4EAFF020EE92619
:10267000000EEA22EE50ED1002E1000E9CD20C0199
:10268000FE0E266FA4C4E9FFA5C4EAFF020EE926E8
:10269000000EEA22EECF18F0EFCF19F0A4C4E9FF44
:1026A000A5C4EAFF1850EE24166E1950EE20176EDE
:1026B000A2C4E9FFA3C4EAFF1650EE24146E17501B
:1026C000EE20156EA2C4E9FFA3C4EAFF020EE926BC
:1026D000000EEA221450EE18276F1550EE18286FDE
:1026E000256B2551146E156A030E145C000E1558E7
:1026F00067E225CC43F482EC00F00D0E04013D5D51
:1027000002E15BD024D0040E3D5D16E1A2C4E9FFD6
:10271000A3C4EAFF020EE926000EEA22EECF14F06F
:10272000EFCF15F01450401902E11550411902E1A4
:1027300025CC26FC42D00BD00C01275104014019B6
:1027400004E10C0128510401411901E036D0C9EC23
:1027500000F0A2C4E9FFA3C4EAFF020EE926000EBE
:10276000EA22EECF14F0EFCF15F004011251141845
:1027700002E11351151821E1A2C4E9FFA3C4EAFF45
:10278000EECF16F0EFCF17F01051161802E11151ED
:10279000171813E1A4C4E9FFA5C4EAFFEE50181905
:1027A00009E1EE50191906E1EE501A1903E1EE5055
:1027B0001B1900E102E1010EFED10C01252B91D77E
:1027C000FE0E265D39E026CC43F482EC00F0C9EC25
:1027D00000F0FE0E0C01265D2FE027CC40F428CC43
:1027E00041F40A0EE66EE66AA4C4E6FFA5C4E6FF5D
:1027F000180EE66E040EE66E64ECABF0146E060E78
:10280000E15E1450A2C4E9FFA3C4EAFFEECF10F4C6
:10281000EDCF11F4A2C4E9FFA3C4EAFF020EE9263A
:10282000000EEA22EECF12F4EDCF13F427C40EF41B
:1028300028C40FF4010EBFD1A2C4E9FFA3C4EAFF6C
:102840000D0EE926000EEA22EF50020B02E1000E07
:10285000B2D10401FA51FB1102E0000EACD10C011F
:10286000296B2A6B030E295D000E2A5901E3BED0A5
:1028700029CCE9FF2ACCEAFF140EEA02F3CFEAFFE3
:10288000E902F3CFE9FFF450EA26C20EE926040E6E
:10289000EA22100EE926000EEA22EE50ED1001E1C8
:1028A000A5D029CCE9FF2ACCEAFF140EEA02F3CF27
:1028B000EAFFE902F3CFE9FFF450EA26C20EE92667
:1028C000040EEA22100EE926000EEA22EECF14F0E2
:1028D000EFCF15F0A2C4E9FFA3C4EAFF020EE92678
:1028E000000EEA22EECF16F0EFCF17F016501418B4
:1028F00002E11750151801E074D029CCE9FF2ACC69
:10290000EAFF140EEA02F3CFEAFFE902F3CFE9FF90
:10291000F450EA26C20EE926040EEA220A0EE9263F
:10292000000EEA22EECF14F0EFCF15F0A2C4E9FFBB
:10293000A3C4EAFFEECF16F0EFCF17F0165014182D
:1029400002E11750151801E04CD0A4C4E9FFA5C45A
:10295000EAFFEECF14F0EECF15F0EECF16F0EFCF8A
:1029600017F029CCE9FF2ACCEAFF140EEA02F3CFD4
:10297000EAFFE902F3CFE9FFF450EA26C20EE926A6
:10298000040EEA22EE500001141809E1EE50151869
:1029900006E1EE50161803E1EE50171800E101E0D1
:1029A00020D081ECB3F006C014F007C015F029CC9C
:1029B000E9FF2ACCEAFF140EEA02F3CFEAFFE902AC
:1029C000F3CFE9FFF450EA26C20EE926040EEA220C
:1029D000120EE926000EEA2214C0EEFF15C0EDFF2C
:1029E000EAD00C01292B000E2A233CD7256B255158
:1029F000146E156A030E145C000E155801E3D9D04D
:102A000025CC43F482EC00F004013EA7CFD0C9EC02
:102A100000F0A2C4E9FFA3C4EAFF020EE926000EFB
:102A2000EA22EECF14F0EFCF15F014500401121982
:102A300002E11550131901E0B9D00A0EE66EE66AFC
:102A4000A4C4E6FFA5C4E6FF29CCE9FF2ACCEAFF2F
:102A5000140EEA02F3CFEAFFE902F3CFE9FFF450E4
:102A6000EA26C20EE926040EEA22E9CF14F0EACFE4
:102A700015F014C0E6FF15C0E6FF64ECABF0166E6F
:102A8000060EE15E1650A2C4E9FFA3C4EAFFEECF32
:102A900014F0EFCF15F029CCE9FF2ACCEAFF140E91
:102AA000EA02F3CFEAFFE902F3CFE9FFF450EA26A6
:102AB000C20EE926040EEA220A0EE926000EEA22D8
:102AC00014C0EEFF15C0EDFFA2C4E9FFA3C4EAFFE6
:102AD000040EE926000EEA22EECF14F0EECF15F038
:102AE000EECF16F0EFCF17F029CCE9FF2ACCEAFFA2
:102AF000140EEA02F3CFEAFFE902F3CFE9FFF45044
:102B0000EA26C20EE926040EEA220C0EE926000E81
:102B1000EA2214C0EEFF15C0EEFF16C0EEFF17C08C
:102B2000EEFFA2C4E9FFA3C4EAFF020EE926000EED
:102B3000EA22EECF14F0EFCF15F029CCE9FF2ACC32
:102B4000EAFF140EEA02F3CFEAFFE902F3CFE9FF4E
:102B5000F450EA26C20EE926040EEA22100EE926F7
:102B6000000EEA2214C0EEFF15C0EDFF81ECB3F0B9
:102B700006C014F007C015F029CCE9FF2ACCEAFF03
:102B8000140EEA02F3CFEAFFE902F3CFE9FFF450B3
:102B9000EA26C20EE926040EEA22120EE926000EEB
:102BA000EA2214C0EEFF15C0EDFF05D00C01252B65
:102BB0001ED7000E00D01200A6C4E9FFA7C4EAFF8A
:102BC000EECFE5F6EDCFE6F647EC73F0F3CF14F079
:102BD000F4CF15F0A6C4E9FFA7C4EAFF14C0EEFFC6
:102BE00015C0EDFFA6C4E9FFA7C4EAFF020EE9265F
:102BF000000EEA22EECFE5F6EDCFE6F647EC73F0F5
:102C0000F3CF14F0F4CF15F0A6C4E9FFA7C4EAFF90
:102C1000020E14C0EBFF030E15C0EBFFA6C4E9FFC4
:102C2000A7C4EAFF040EE926000EEA22EECFE7F67B
:102C3000EECFE8F6EECFE9F6EFCFEAF657EC73F019
:102C400006C014F007C015F008C016F009C017F050
:102C5000A6C4E9FFA7C4EAFF040EE926000EEA2293
:102C600014C0EEFF15C0EEFF16C0EEFF17C0EEFF5A
:102C7000A6C4E9FFA7C4EAFF080EE926000EEA226F
:102C8000EECFE7F6EECFE8F6EECFE9F6EFCFEAF6D5
:102C900057EC73F006C014F007C015F008C016F02A
:102CA00009C017F0A6C4E9FFA7C4EAFF080EE92689
:102CB000000EEA2214C0EEFF15C0EEFF16C0EEFFB4
:102CC00017C0EEFFA6C4E9FFA7C4EAFF0E0EE9266F
:102CD000000EEA22EECFE5F6EDCFE6F647EC73F014
:102CE000F3CF14F0F4CF15F0A6C4E9FFA7C4EAFFB0
:102CF0000E0E14C0EBFF0F0E15C0EBFFA6C4E9FFCC
:102D0000A7C4EAFF100EE926000EEA22EECFE5F690
:102D1000EDCFE6F647EC73F0F3CF14F0F4CF15F0F7
:102D2000A6C4E9FFA7C4EAFF100E14C0EBFF110E02
:102D300015C0EBFFA6C4E9FFA7C4EAFF120EE926FF
:102D4000000EEA22EECFE5F6EDCFE6F647EC73F0A3
:102D5000F3CF14F0F4CF15F0A6C4E9FFA7C4EAFF3F
:102D6000120E14C0EBFF130E15C0EBFF1200C9ECDE
:102D700000F012C440F413C441F427C42DF428C455
:102D80002EF427C42FF428C430F429C431F42AC403
:102D900032F429C433F42AC434F404013E51080B3C
:102DA00002E0040E01D00D0E3D6F3E913E933E9524
:102DB0003E993E9B3E9D3E9F3F913F933F953F975F
:102DC0003F89249124932497249927C40EF428C47E
:102DD0000FF41DECB2F0F3CF06F4F4CF07F41DECC2
:102DE000B2F0F3CF08F4F4CF09F4040122692369A7
:102DF000010E146F156B1200A8C4E9FFA9C4EAFF05
:102E00000D0EE926000EEA22EFCF33FCA8C4E9FF3D
:102E1000A9C4EAFF080EE926000EEA22EECF34FC30
:102E2000EECF35FCEECF36FCEFCF37FCA8C4E9FF80
:102E3000A9C4EAFF040EE926000EEA22EECF38FC10
:102E4000EECF39FCEECF3AFCEFCF3BFC04013E91D4
:102E50003E933E953EB913D076ECB3F006C035F400
:102E600007C036F408C037F409C038F4740E040102
:102E70003527350E3623060E3723000E38233D51F5
:102E8000050A43E0010A08E0AAC43CFCABC43DFCCF
:102E90000C0133A1B2D0AED00C0133A503D067DF53
:102EA00080EF1EF033A912D034CC06F435CC07F4F1
:102EB00036CC08F437CC09F40401A16B0401040EEC
:102EC000A06F05EC10F053DF80EF1EF033A31AD093
:102ED00038CC0AF439CC0BF43ACC0CF43BCC0DF4DE
:102EE00004010A2B000E0B230C230D230401010EF9
:102EF000A16F0401120EA06F05EC10F00401060E84
:102F00003D6F01D034DF80EF1EF00C0133A502D0FD
:102F100080EF1EF033A934D0340EE96E0C0EEA6E49
:102F2000EE500401061909E1EE50071906E1EE50D2
:102F3000081903E1EE50091900E122E006C438FC4B
:102F400007C439FC08C43AFC09C43BFC34CC06F481
:102F500035CC07F436CC08F437CC09F40401010E63
:102F6000A16F0401040EA06F05EC10F038CC06F43C
:102F700039CC07F43ACC08F43BCC09F480EF1EF0CE
:102F80000C0133A335D038CC0AF439CC0BF43ACC4D
:102F90000CF43BCC0DF404010A2B000E0B230C2384
:102FA0000D23A8C4E9FFA9C4EAFF0E0EE926000E0E
:102FB000EA22EECF14F4EDCF15F40C0133A90DD0B5
:102FC0000401010EA16F0401100EA06F05EC10F0BA
:102FD0000401070E3D6F3E990BD00401010EA16F55
:102FE0000401120EA06F05EC10F00401060E3D6FF7
:102FF00080EF1EF03C2B000E3D2333A303D03C2B6F
:10300000000E3D2304013351315D3451325914E334
:1030100029512B5D146E2C512A55156E3351315D9B
:10302000166E32513455176E0C011650145C316F08
:1030300017501558326F0DD03151335D0C01316F7F
:103040000401325134590C01326F010E315F000E10
:10305000325B0A0EE96E040EEA6EEE50385D2B6F9D
:10306000EE5039592C6FEE503A592D6FEE503B59B6
:103070002E6F2BCC2FFC2CCC30FC3E6B3C513D11E9
:1030800001E181D03151321101E17CD0800E2E1549
:1030900018E131CC14F032CC15F0166A176A2E51B3
:1030A0001718E8AE02D0173408D014502B5D155015
:1030B0002C5916502D5917502E5903E2010E3E6F10
:1030C0003DD03CCC14F03DCC15F0166A176A2B0E9F
:1030D000E96E0C0EEA6EEE501426EE501522EE50FC
:1030E0001622EE5017221734000E171809E6D88062
:1030F000000E1454000E1554000E1654000E1754F2
:103100001DE23C51315D186E32513D55196E1A6AFF
:103110001B6A19AE02D01A681B681B502E19E8AE44
:1031200002D02E3508D02B51185C2C5119582D5136
:103130001A582E511B5802E3010E3E6F31CC14F089
:1031400032CC15F0166A176A2E511718E8AE02D065
:10315000173408D014502B5D15502C5916502D598A
:1031600017502E590FE22F513C25186E30513D213A
:10317000196E193404E218500008000E195402E2C6
:10318000010E3E6F22D02B512C112D112E1103E177
:10319000010E3E6F1AD0800E2E1517E131CC14F0BF
:1031A00032CC15F0166A176A2E511718E8AE02D005
:1031B000173408D014502B5D15502C5916502D592A
:1031C00017502E5902E2010E3E6F3E510CE133B50D
:1031D00008D00401010EA16F0401100EA06F05ECD0
:1031E00010F080EF1EF0060E331503E0C0DD80EF17
:1031F0001EF033B902D080EF1EF004013D510C0ADD
:1032000001E152D20B0A40E00F0A3EE0010A3CE025
:10321000020A3AE0010A38E00C0A01E05AD2340E00
:10322000E96E0C0EEA6EEE50061909E1EE50071930
:1032300006E1EE50081903E1EE50091900E122E021
:1032400006C438FC07C439FC08C43AFC09C43BFC7A
:1032500034CC06F435CC07F436CC08F437CC09F47A
:103260000401010EA16F0401040EA06F05EC10F023
:1032700038CC06F439CC07F43ACC08F43BCC09F44A
:1032800080EF1EF0070E3D6F0E512D5D0C01296F72
:1032900004010F512E590C012A6F800E2A150CE0E3
:1032A00004012751295D146E2A512855156E1450BA
:1032B0000C01292715502A2329CC14F02ACC15F00B
:1032C000166A176A060EE96E040EEA6EEE501424B2
:1032D000256FEE501520266FEE501620276FEE500A
:1032E0001720286F340EE96E0C0EEA6EEE50255D45
:1032F000146EEE502659156EEE502759166EEE508C
:103300002859176E0001800E171409E00401A16B03
:103310000401100EA06F05EC10F080EF1EF0040108
:103320002F510E5D146E0F513055156E166A176AC7
:1033300015AE02D016681768060EE96E040EEA6E26
:103340001450EE5C0C01256F1550EE58266F165088
:10335000EE58276F1750EE58286F04012F510E5D5D
:1033600030510F5911E22751295D146E2A51285509
:10337000156E166A176A14500C01255F1550265BEE
:103380001650275B1750285B250EE96E0C0EEA6E6F
:10339000EE500C01345D256FEE503559266FEE501E
:1033A0003659276FEE503759286F2835000E2819E7
:1033B00009E6D880000E2555000E2655000E27552B
:1033C000000E285501E397D004012751295D146EA2
:1033D0002A512855156E166A176A0C012551145C7E
:1033E00026511558275116582851175801E283D0F5
:1033F0000401249724993F912FC429FC30C42AFC4E
:103400000C01255104012F270C0126510401302302
:103410000C01295104010E5D0C012A5104010F59C0
:103420001BE32F510E5D30510F5915E20E512F5DE8
:10343000146E30510F55156E00011450040106270B
:103440000001155004010723000E082309232FC48F
:103450000EF430C40FF42FD02751295D146E2A5179
:103460002855156E0E5114240C01296F04010F51BB
:1034700015200C012A6F04012F510C01295D040154
:1034800030510C012A5917E2295104012F5D146EA5
:1034900030510C012A55156E000114500401062705
:1034A0000001155004010723000E082309232FC42F
:1034B0000EF430C40FF4040129512F5D2A51305904
:1034C0000AE32751295D146E2A512855156E1450B0
:1034D0002F5F1550305B29510E5D2A510F590AE3B9
:1034E0002751295D146E2A512855156E14500E5F10
:1034F00015500F5B3FD004010E512F1902E10F51FF
:10350000301938E024A735D024A932D02F510E5DD0
:10351000146E0F513055156E166A176A15AE02D02B
:10352000166817681450065F1550075B1650085B45
:103530001750095B2F510E5D30510F5914E227517E
:10354000295D146E2A512855156E166A176A15AE34
:1035500002D0166817681450065F1550075B1650A6
:10356000085B1750095B2FC40EF430C40FF43F857D
:10357000248924872D512F1902E12E5130191AE187
:103580003FB702D03E9916D0060EE96E040EEA6EE1
:10359000EE500C01341909E1EE50351906E1EE50F8
:1035A000361903E1EE50371900E104E104013E99B8
:1035B0003F9724910401145115110CE1A8C4E9FFAF
:1035C000A9C4EAFF0E0EE926000EEA22EE50ED1025
:1035D00001E03F83A8C4E9FFA9C4EAFF0E0EE92673
:1035E000000EEA22EECF14F4EDCF15F4080E3D5D87
:1035F00029E1060EE96E040EEA6EEE500C01341954
:1036000009E1EE50351906E1EE50361903E1EE50AE
:10361000371900E116E176ECB3F006C035F407C0C7
:1036200036F408C037F409C038F4BA0E040135275F
:103630001A0E3623030E3723000E38233E89090E57
:103640003D6F31D0090E3D5D16E10C0133B112D052
:1036500034CC06F435CC07F436CC08F437CC09F476
:103660000401A16B0401140EA06F05EC10F0B7EC7F
:1036700016F046D318D00A0E3D5D15E1060EE96E30
:10368000040EEA6EEE500C01341909E1EE503519C2
:1036900006E1EE50361903E1EE50371900E102E180
:1036A000B7EC16F02DD316D0060EE96E040EEA6EB6
:1036B000EE500C01341909E1EE50351906E1EE50D7
:1036C000361903E1EE50371900E102E1B7EC16F0CC
:1036D00017D300D00C0133BB13D30B0E04013D5D97
:1036E00001E10ED30A0E3D5D01E10AD30C0E3D5DF2
:1036F00001E106D3AA51AB1101E14ED20C013035E4
:1037000004E22F510008000E305501E2E8D0A8C4B1
:10371000E9FFA9C4EAFF0C0EE926000EEA22EF50E9
:10372000F00BE842E842E842E842040DF350146E20
:10373000156A2F51145C0801296F0C01305115587E
:1037400008012A6FA0ECADF00C012F510401AA274B
:103750000C0130510401AB23AA510C01315D04016D
:10376000AB510C01325904E231CCAAF432CCABF4A7
:103770000401AA510A27AB510B23000E0C230D2381
:103780003151AA25146E3251AB21156E14502B5DA8
:1037900015502C5946E231512B5D0C01296F040163
:1037A00032512C590C012A6F010E2927000E2A23B1
:1037B00029CCB8F42ACCB9F40401B76B0401B5697B
:1037C000B66942C4B4F431C4B2F432C4B3F4C5DB54
:1037D0000C0129510401AA5D0401B86F0C012A51A2
:1037E0000401AB590401B96F0401B76B0401B56959
:1037F000B66942C4B4F429C4B2F42AC4B3F4ADDB4C
:103800000C0129510401AA5D146EAB510C012A551B
:10381000156E040129511424316F2A511520326F7D
:1038200015D0AAC4B8F4ABC4B9F40401B76B040151
:10383000B569B66942C4B4F431C4B2F432C4B3F465
:103840008CDB0401AA513127AB513223221D01E147
:10385000231D44E0AA51225FAB51235B1651222560
:103860000C01296F0401175123210C012A6F800ECE
:103870002A1504E004012269236930D004012335AC
:1038800004E222510008000E235528E30C012951BF
:1038900004010A270C012A5104010B23000E0C23FA
:1038A0000D230C012951040131270C012A51040177
:1038B000322331512B5D32512C590EE229512B5DAF
:1038C000146E2C512A55156E010E1426000E152269
:1038D0001450315F1550325B226923695DD1303558
:1038E00004E22F510008000E305501E355D10401C8
:1038F000AA510C012F25146E0401AB510C0130218B
:10390000156E1450315D1550325909E22F51315D59
:103910000401AA6F0C01305132590401AB6FA8C4E5
:10392000E9FFA9C4EAFF0C0EE926000EEA22EF50D7
:10393000F00BE842E842E842E842040DF350080187
:10394000296F2A6BA0ECADF0040131510C012F2539
:10395000166E040132510C013021176E165004010D
:10396000AA25146E1750AB21156E14502B5D1550FF
:103970002C596EE231512B5D146E2C513255156E5F
:10398000010E1426000E15220C012F51145C296F14
:10399000305115582A6F800E2A1531E129CCB8F420
:1039A0002ACCB9F40401B76B0401B569B66942C405
:1039B000B4F4040131510C012F250401B26F04014C
:1039C00032510C0130210401B36FC7DA0C012951C7
:1039D0000401AA5D0401B86F0C012A510401AB591E
:1039E0000401B96F0401B76B0401B569B66942C43B
:1039F000B4F429C4B2F42AC4B3F4AFDA28D0AAC408
:103A0000B8F4ABC4B9F40401B76B0401B569B66985
:103A100042C4B4F4040131510C012F25146E040189
:103A200032510C013021156E040129512B5D166EA7
:103A30002C512A55176E010E1626000E172204016E
:103A40001650145CB26F17501558B36F86DA18D041
:103A5000AAC4B8F4ABC4B9F40401B76B0401B569E6
:103A6000B66942C4B4F4040131510C012F2504019C
:103A7000B26F040132510C0130210401B36F6DDAD1
:103A80000401221D01E1231D09E12FCC22F430CCD9
:103A900023F4AAC416F4ABC417F47ED022510C014F
:103AA0002F5D040123510C0130593DE22F510401D7
:103AB000AA25146E0C0130510401AB21156E225160
:103AC0001625166E23511721176E1450165C1550CB
:103AD00017580FE30C012F510401AA25186E0C0191
:103AE00030510401AB21196E2251185C2351195831
:103AF00005E2AAC416F4ABC417F410D0225116255F
:103B0000146E23511721156E0C012F51145C040102
:103B1000166F0C01305115580401176F2FCC22F489
:103B200030CC23F439D02F510401AA25146E0C0196
:103B300030510401AB21156E22511625166E23510A
:103B40001721176E1450165C1550175825E2225194
:103B50001625146E23511721156E0C012F51145C7C
:103B60003051155819E32F510401AA25186E0C0184
:103B700030510401AB21196E2251185C166E23518D
:103B80001958176E1651165C146E17511758156E8A
:103B900014501627155017230C013C513D1124E0F9
:103BA000070E04013D5D04E031C433F432C434F443
:103BB0003EAF0BD00401010EA16F0401100EA06FE7
:103BC00005EC10F0C9EC00F00FD03E8F3EBD0CD0DC
:103BD0003E8D81ECB3F006C03BF407C03CF40F0E01
:103BE00004013B27000E3C230C0133A189D00AC4F9
:103BF00014F00BC415F00CC416F00DC417F0142A01
:103C0000000E1522162217223CCC18F03DCC19F0DC
:103C10001A6A1B6A380EE96E0C0EEA6EEE50182610
:103C2000EE501922EE501A22EE501B221450181892
:103C300009E11550191806E116501A1803E117503A
:103C40001B1800E15DE104010A2B000E0B230C237D
:103C50000D233D51090A41E0010A1EE00F0A0EE062
:103C6000010A01E044D00C0E3D6F0401010EA16F6A
:103C70000401110EA06F05EC10F042D00B0E3D6F49
:103C800081ECB3F006C03BF407C03CF41F0E040106
:103C90003B27000E3C232CD0060EE96E040EEA6E84
:103CA000EE500C01341909E1EE50351906E1EE50E1
:103CB000361903E1EE50371900E10BE10401A16B65
:103CC0000401100EA06F05EC10F0B7EC16F018D040
:103CD00003D004010A0E3D6F0BD00401A16B040157
:103CE000100EA06F05EC10F0B7EC16F009D000D064
:103CF0000401010EA16F0401100EA06F05EC10F07D
:103D00001200ACC443F482EC00F00401AD51AE11DA
:103D100003E1010EAD6FAE6B27512B5D0C01006FFF
:103D2000040128512C590C01016F010E005F000E97
:103D3000015B0401AD51AF25146EAE51B021156E7B
:103D40000C011450005D1550015902E2000E04D11F
:103D5000C9EC00F0030E0401B11502E1030EB1132A
:103D6000AFC404FCB0C405FCAD51AF25146EAE5118
:103D7000B021156E14500C01005F1550015B040159
:103D8000B1A314D0B1A10DD000CC14F001CC15F02A
:103D9000D8901532143214500C0104271550052305
:103DA00005D00C01005104270151052304012751BE
:103DB0000C010425006F040128510C010521016F3D
:103DC000010E0027000E012331C402FC32C403FCA3
:103DD0000401221D01E1231D22E022511625146E4B
:103DE00023511721156E14500C010227155003237F
:103DF000025104012B5D0C01035104012C590FE207
:103E000029512B5D146E2C512A55156E010E142666
:103E1000000E152214500C01025F1550035B0C01BB
:103E200002510401335D0C0103510401345917E2BE
:103E30000C0100510401335D0C010151040134599E
:103E40000DE2B1A503D0000E87D008D000CC33F42A
:103E500001CC34F400CC31F401CC32F426D033510F
:103E60000C01025D040134510C01035916E20051AA
:103E70000401295D0C01015104012A590DE2B1A58B
:103E800003D0000E69D008D000CC33F401CC34F458
:103E900000CC31F401CC32F408D000CC33F401CCA6
:103EA00034F400CC31F401CC32F4040133510C0170
:103EB000025D040134510C01035930E2040E040187
:103EC000B1152CE029510C01025D0401B86F040109
:103ED0002A510C0103590401B96F42C4B7F429C433
:103EE000B5F42AC4B6F442C4B4F400CCB2F401CCA4
:103EF000B3F433D804013351315D345132590EE2F9
:103F00000C0100510401295D146E2A510C01015568
:103F1000156E14500401315F1550325B00CC29F44A
:103F200001CC2AF427C40EF428C40FF427C42FF4BC
:103F300028C430F427C42DF428C42EF4070E04013D
:103F40003D5D08E10401010EA16F0401100EA06F98
:103F500005EC10F0010E00D012000401B7512FE063
:103F6000010A01E059D0B45116E0010A01E026D05F
:103F7000B8C4E6FFB9C4E6FFB5C4E6FFB6C4E6FFC1
:103F8000B2C4E6FFB3C4E6FF64ECABF0146E060EF9
:103F9000E15E145013D0B3BF06D0B2C4A5F6B3C4CB
:103FA000A6F666EC8BF0B8C4BCF6B9C4BDF6B5C4D1
:103FB000BAF6B6C4BBF65FEC8DF000D02DD0B4518C
:103FC00016E0010A01E027D0B6BF06D0B5C4A7F6B7
:103FD000B6C4A8F674EC8BF0B8C4B7F6B9C4B8F69A
:103FE000B2C4B5F6B3C4B6F627EC8DF014D0B8C49D
:103FF000B3F6B9C4B4F6B5C4B1F6B6C4B2F6B2C439
:10400000AFF6B3C4B0F64DEC8CF01DEC8DF00009AA
:1040100001E1FBD700D000D012000401BC5118E030
:10402000010A01E067D0C0C4E6FFC1C4E6FFBDC419
:10403000E6FFBEC4E6FFBFC4E6FFBAC4E6FFBBC4EA
:10404000E6FF8FECABF0146E070EE15E145052D019
:10405000BBBF06D0BAC4A5F6BBC4A6F666EC8BF00F
:10406000100E0C01106F116B0401C051C11141E021
:104070000C0110510401C05D0C0111510401C15922
:1040800004E2C0C410FCC1C411FC10CCE6FF11CC8A
:10409000E6FFBDC4E6FFBEC4E6FFBFC4E6FF000EF8
:1040A000E66E0C0EE66E8FECABF0146E070EE15E62
:1040B000145010CCBCF611CCBDF60601000EBA6F40
:1040C0000C0EBB6F5FEC8DF010CC14F011CC15F022
:1040D000166A14500401BD271550BE231650BF2385
:1040E0000C0110510401C05F0C0111510401C15BAE
:0640F000BBD700D0120056
:0A40F600090EE66EE66A840EE66E1F
:10410000F50EE66E000EE66E00C5E6FF01C5E6FFA1
:1041100045ECABF0146E070EE15E1450000902E1AD
:10412000000E02D0800E00D012000C01006B016B5B
:10413000026B036B046B056B066B076B086B096BFB
:104140000A6B0B6B0C6B0D6B0E6B0F6B106B116BAB
:10415000126B136B146B156B166B176B186B196B5B
:104160001A6B1B6B1C6B1D6B1E6B1F6B0301EC6BC7
:10417000380EED6FEE6BEF6B3DECAFF00C01206B8A
:10418000216B100E205D000E215911E24DECAFF0B5
:10419000E66E000E0C012025E96E0C0E2121EA6E60
:1041A000E552E750EF6E202B000E2123EAD77AEC80
:1041B000AFF004C5E6FF05C5E6FF3CECACF0E55208
:1041C000E552F3CF20FCF4CF21FC000EE66E0C0E7E
:1041D000E66E3CECACF0E552E552F3CF22FCF4CFB6
:1041E00023FC04C5E6FF05C5E6FF100EE66E0C0EC7
:1041F000E66E02ECACF0E552E552E552E5527E0E79
:10420000E66EF50EE66E000EE66E02C5E6FF03C52D
:10421000E6FFECECABF0146E050EE15E1450000905
:1042200027E10C012251201902E12351211920E13B
:1042300020CCE6FF21CCE6FF000EE66E0C0EE66E0B
:10424000100EE66E0C0EE66E1CECABF0146E060E55
:10425000E15E14500C01226F236B800B01E0236997
:104260002251231103E1800E05D002D0000E02D0AE
:10427000000E00D01200140E0001FA6FFB6B00015B
:10428000020EF86F0C0EF96F14C2F7F01FEC5DF020
:10429000090EE66EE66A840EE66EF50EE66E000E18
:1042A000E66E020EE66E0C0EE66E45ECABF0146E9A
:1042B000070EE15E1450000901E0B6D10501760E4B
:1042C000EA6FF50EEB6F000EEC6F05011A0EE86F4A
:1042D000020EE96F9DEC4DF0F3CF00FCF4CF01FC32
:1042E0000C01005101110EE000CCE9FF01CCEAFF06
:1042F000EF50310804E10701310E3C6F03D0070194
:10430000300E3C6F05016E0EEA6FF50EEB6F000E7E
:10431000EC6F05011A0EE86F020EE96F9DEC4DF08F
:10432000F3CF00FCF4CF01FC0C01005101110EE0B1
:1043300000CCE9FF01CCEAFFEF50310804E10701AE
:10434000310E3B6F03D00701300E3B6F0501660E47
:10435000EA6FF50EEB6F000EEC6F05011A0EE86FB9
:10436000020EE96F9DEC4DF0F3CF00FCF4CF01FCA1
:104370000C01005101110EE000CCE9FF01CCEAFF75
:10438000EF50310804E10701310E3A6F03D0070105
:10439000300E3A6F05015F0EEA6FF50EEB6F000EFF
:1043A000EC6F05011A0EE86F020EE96F9DEC4DF0FF
:1043B000F3CF00FCF4CF01FC0C01005101110EE021
:1043C00000CCE9FF01CCEAFFEF50310804E107011E
:1043D000310E396F03D00701300E396F0501580EC9
:1043E000EA6FF50EEB6F000EEC6F05011A0EE86F29
:1043F000020EE96F9DEC4DF0F3CF00FCF4CF01FC11
:104400000C01005101110EE000CCE9FF01CCEAFFE4
:10441000EF50310804E10701310E386F03D0070176
:10442000300E386F0501510EEA6FF50EEB6F000E7E
:10443000EC6F05011A0EE86F020EE96F9DEC4DF06E
:10444000F3CF00FCF4CF01FC0C01005101110EE090
:1044500000CCE9FF01CCEAFFEF50310804E107018D
:10446000310E376F03D00701300E376F05014A0E4A
:10447000EA6FF50EEB6F000EEC6F05011A0EE86F98
:10448000020EE96F9DEC4DF0F3CF00FCF4CF01FC80
:104490000C01005101110EE000CCE9FF01CCEAFF54
:1044A000EF50310804E10701310E366F03D00701E8
:1044B000300E366F0501430EEA6FF50EEB6F000EFE
:1044C000EC6F05011A0EE86F020EE96F9DEC4DF0DE
:1044D000F3CF00FCF4CF01FC0C01005101110EE000
:1044E00000CCE9FF01CCEAFFEF50310804E10701FD
:1044F000310E356F03D00701300E356F05013C0ECC
:10450000EA6FF50EEB6F000EEC6F05011A0EE86F07
:10451000020EE96F9DEC4DF0F3CF00FCF4CF01FCEF
:104520000C01005101110EE000CCE9FF01CCEAFFC3
:10453000EF50310804E10701310E346F03D0070159
:10454000300E346F0501350EEA6FF50EEB6F000E7D
:10455000EC6F05011A0EE86F020EE96F9DEC4DF04D
:10456000F3CF00FCF4CF01FC0C01005101110EE06F
:1045700000CCE9FF01CCEAFFEF50310804E107016C
:10458000310E336F03D00701300E336F05012E0E4D
:10459000EA6FF50EEB6F000EEC6F05011A0EE86F77
:1045A000020EE96F9DEC4DF0F3CF00FCF4CF01FC5F
:1045B0000C01005101110EE000CCE9FF01CCEAFF33
:1045C000EF50310804E10701310E326F03D00701CB
:1045D000300E326F0501270EEA6FF50EEB6F000EFD
:1045E000EC6F05011A0EE86F020EE96F9DEC4DF0BD
:1045F000F3CF00FCF4CF01FC0C01005101110EE0DF
:1046000000CCE9FF01CCEAFFEF50310804E10701DB
:10461000310E316F03D00701300E316F0701020EEA
:104620003D6F38EC9DF0E4D1090EE66EE66A1D0E92
:10463000E66EF50EE66E000EE66E020EE66E0C0EEF
:10464000E66E45ECABF0146E070EE15E1450000907
:1046500001E0B6D10501760EEA6FF50EEB6F000EA4
:10466000EC6F05011A0EE86F020EE96F9DEC4DF03C
:10467000F3CF00FCF4CF01FC0C01005101110EE05E
:1046800000CCE9FF01CCEAFFEF50310804E107015B
:10469000310E3C6F03D00701300E3C6F05016E0EEA
:1046A000EA6FF50EEB6F000EEC6F05011A0EE86F66
:1046B000020EE96F9DEC4DF0F3CF00FCF4CF01FC4E
:1046C0000C01005101110EE000CCE9FF01CCEAFF22
:1046D000EF50310804E10701310E3B6F03D00701B1
:1046E000300E3B6F0501660EEA6FF50EEB6F000EA4
:1046F000EC6F05011A0EE86F020EE96F9DEC4DF0AC
:10470000F3CF00FCF4CF01FC0C01005101110EE0CD
:1047100000CCE9FF01CCEAFFEF50310804E10701CA
:10472000310E3A6F03D00701300E3A6F05015F0E6C
:10473000EA6FF50EEB6F000EEC6F05011A0EE86FD5
:10474000020EE96F9DEC4DF0F3CF00FCF4CF01FCBD
:104750000C01005101110EE000CCE9FF01CCEAFF91
:10476000EF50310804E10701310E396F03D0070122
:10477000300E396F0501580EEA6FF50EEB6F000E23
:10478000EC6F05011A0EE86F020EE96F9DEC4DF01B
:10479000F3CF00FCF4CF01FC0C01005101110EE03D
:1047A00000CCE9FF01CCEAFFEF50310804E107013A
:1047B000310E386F03D00701300E386F0501510EEE
:1047C000EA6FF50EEB6F000EEC6F05011A0EE86F45
:1047D000020EE96F9DEC4DF0F3CF00FCF4CF01FC2D
:1047E0000C01005101110EE000CCE9FF01CCEAFF01
:1047F000EF50310804E10701310E376F03D0070194
:10480000300E376F05014A0EEA6FF50EEB6F000EA2
:10481000EC6F05011A0EE86F020EE96F9DEC4DF08A
:10482000F3CF00FCF4CF01FC0C01005101110EE0AC
:1048300000CCE9FF01CCEAFFEF50310804E10701A9
:10484000310E366F03D00701300E366F0501430E6F
:10485000EA6FF50EEB6F000EEC6F05011A0EE86FB4
:10486000020EE96F9DEC4DF0F3CF00FCF4CF01FC9C
:104870000C01005101110EE000CCE9FF01CCEAFF70
:10488000EF50310804E10701310E356F03D0070105
:10489000300E356F05013C0EEA6FF50EEB6F000E22
:1048A000EC6F05011A0EE86F020EE96F9DEC4DF0FA
:1048B000F3CF00FCF4CF01FC0C01005101110EE01C
:1048C00000CCE9FF01CCEAFFEF50310804E1070119
:1048D000310E346F03D00701300E346F0501350EF1
:1048E000EA6FF50EEB6F000EEC6F05011A0EE86F24
:1048F000020EE96F9DEC4DF0F3CF00FCF4CF01FC0C
:104900000C01005101110EE000CCE9FF01CCEAFFDF
:10491000EF50310804E10701310E336F03D0070176
:10492000300E336F05012E0EEA6FF50EEB6F000EA1
:10493000EC6F05011A0EE86F020EE96F9DEC4DF069
:10494000F3CF00FCF4CF01FC0C01005101110EE08B
:1049500000CCE9FF01CCEAFFEF50310804E1070188
:10496000310E326F03D00701300E326F0501270E72
:10497000EA6FF50EEB6F000EEC6F05011A0EE86F93
:10498000020EE96F9DEC4DF0F3CF00FCF4CF01FC7B
:104990000C01005101110EE000CCE9FF01CCEAFF4F
:1049A000EF50310804E10701310E316F03D00701E8
:1049B000300E316F0701020E3D6F38EC9DF018D0BC
:1049C0000B0EE66EE66A110EE66EF50EE66E000E52
:1049D000E66E020EE66E0C0EE66E45ECABF0146E63
:1049E000070EE15E1450000903E10201010E166F8B
:1049F000000E00D012000C01036B046B0101388D16
:104A0000388F0C01006B030E005D01E35ED1036B78
:104A1000046B016B100E015D01E3DBD00051100D42
:104A2000F3CF14F0F4CF15F0510E1426010E152219
:104A300001510F011424E96E000E1520EA6EEF50AB
:104A40002E0834E00C010051100DF3CF16F0F4CF16
:104A500017F0510E1626010E172201510F011624D0
:104A6000E96E000E1720EA6EEF5020E00C010051B5
:104A7000100DF3CF14F0F4CF15F0510E1426010EE3
:104A8000152201510F011424E96E000E1520EA6E63
:104A9000EF50E66E0C010351032BEA6A050FE96E35
:104AA0000C0EEA22E552E750EF6E90D00C01035154
:104AB000EA6A050FE96E0C0EEA22EF6A036B050E37
:104AC000E66E0C0EE66E3CECACF0E552E552F3CF30
:104AD00002FC0C010251030A3FE0010A1DE0030A37
:104AE00001E060D0300E055D146E156A166A176A13
:104AF0000451042B040DF3CFE9FFF4CFEAFF0A0EB3
:104B0000E9260C0EEA2214C0EEFF15C0EEFF16C017
:104B1000EEFF17C0EEFF46D0300E065D186E300E69
:104B2000055D0A0DF3501824146E156A166A176A8B
:104B30000451042B040DF3CFE9FFF4CFEAFF0A0E72
:104B4000E9260C0EEA2214C0EEFF15C0EEFF16C0D7
:104B5000EEFF17C0EEFF26D0300E075D196E300E47
:104B6000065D0A0DF3CF18F0300E055D640DF350AD
:104B700018241924146E156A166A176A0451042B36
:104B8000040DF3CFE9FFF4CFEAFF0A0EE9260C0E7D
:104B9000EA2214C0EEFF15C0EEFF16C0EEFF17C0EC
:104BA000EEFF00D00051100DF3CF14F0F4CF15F04C
:104BB000510E1426010E152201510F011424E96E25
:104BC000000E1520EA6EEF5001E103D00C01012B1D
:104BD00021D7080E1F0B0ECC14F00FCC15F010CC03
:104BE00016F011CC17F007E0D890143615361636AB
:104BF0001736E806F9E10A0EE96E0C0EEA6EEE5081
:104C00001412EE501512EE501612EE501712100E2E
:104C10001F0B12CC18F013CC19F014CC1AF015CCD1
:104C20001BF007E0D890183619361A361B36E806FE
:104C3000F9E118501412195015121A5016121B507F
:104C40001712180E1F0B16CC1CF017CC1DF018CC29
:104C50001EF019CC1FF007E0D8901C361D361E360A
:104C60001F36E806F9E114501C100C011A6F15509C
:104C70001D101B6F16501E101C6F17501F101D6F3C
:104C80000051020A17E0030A0CE0010A01E01BD000
:104C90001ACC0CF11BCC0DF11CCC0EF11DCC0FF17C
:104CA00012D01ACC10F11BCC11F11CCC12F11DCC7E
:104CB00013F109D01ACC14F11BCC15F11CCC16F150
:104CC0001DCC17F100D0002B9ED60101389DBCEF02
:104CD00095F00C01356B366B376B386B396B3A6B73
:104CE0003B6B3C6B3D6B3E6B3F6B406B416B426B78
:104CF000436B446B456B466B476B486B140E00016E
:104D0000FA6FFB6B0001350EF86F0C0EF96F14C2D1
:104D1000F7F01FEC5DF0050EE66EF50EE66E000E88
:104D2000E66E350EE66E0C0EE66EECECABF0146E35
:104D3000050EE15E1450000914E0F80EE66EF40E64
:104D4000E66E000EE66E350EE66E0C0EE66EECECD0
:104D5000ABF0156E050EE15E1550000902E0000E85
:104D600039D20201005101110211031101E130D2C7
:104D70000401996B0401976B986B0401956B966B1A
:104D80000401260E946F0201E751E96EEA6AD89099
:104D9000E936EA36E30EE926020EEA22EE52EFCFBA
:104DA00093F487EC0BF0F3CF59FCF4CF5AFC0C01D1
:104DB000591D01E15A1D38E10201E751E96EEA6A25
:104DC000D890E936EA36E30EE926020EEA22EE52E0
:104DD000EFCF74F49CEC06F0F3CF14F0F4CF15F0A1
:104DE000166A176A14500201001909E115500119D9
:104DF00006E11650021903E11750031900E112E110
:104E000000C214F001C215F002C216F003C217F07E
:104E10001406000E155A165A175A14C059FC15C01C
:104E20005AFC02D0010ED6D10C01C60ED8805955BD
:104E3000000E5A552CE2010E592504017B6F000E1D
:104E40000C015A2104017C6F0401796B7A6B020119
:104E5000E751E96EEA6AD890E936EA36E30EE926C8
:104E6000020EEA22EE52EFCF78F424EC07F0F3CFF3
:104E700014F0F4CF15F0166A176A14500201005F9F
:104E80001550015B1650025B1750035B6AD7010E89
:104E9000592504017B6F000E0C015A2104017C6F1F
:104EA00004011A0E796F020E7A6F0201E751E96E62
:104EB000EA6AD890E936EA36E30EE926020EEA22DB
:104EC000EE52EFCF78F424EC07F0F3CF59FCF4CF97
:104ED0005AFC59CC14F05ACC15F0166A176A1450C3
:104EE0000201005F1550015B1650025B1750035B17
:104EF0001A0E0C015925E96E020E5A21EA6EEF6A6C
:104F000005011A0EE26F020EE36FB1EC4CF0020ED7
:104F1000E66EE66AF50EE66EF40EE66E000EE66EDE
:104F20001A0EE66E020EE66E45ECABF0146E070E3E
:104F3000E15E1450000943E1300E02011D5D0C01D9
:104F4000306F3051030801E20CD7100EE66EE66AAE
:104F5000E66A3051100DF3CF14F0F4CF15F0510E76
:104F60001426010E152214C0E6FF15C0E6FFB2ECB0
:104F7000ABF0166E050EE15E1650100EE66EE66A98
:104F8000200EE66E020EE66E0C013051100DF3CFCE
:104F900014F0F4CF15F0510E1426010E152214C092
:104FA000E6FF15C0E6FF64ECABF0166E060EE15EA0
:104FB0001650020E0C01305D01E11DDD08D1040E1A
:104FC000E66EE66AF00EE66EF40EE66E000EE66E33
:104FD0001A0EE66E020EE66E45ECABF0146E070E8E
:104FE000E15E1450000901E0F2D0300E02011E5DB6
:104FF0000C01306F3051030801E2B3D6100EE66E9B
:10500000E66AE66A3051100DF3CF14F0F4CF15F0D4
:10501000810E1426010E152214C0E6FF15C0E6FF0E
:10502000B2ECABF0166E050EE15E1650100EE66E99
:10503000E66A210EE66E020EE66E0C013051100D8E
:10504000F3CF14F0F4CF15F0810E1426010E1522C3
:1050500014C0E6FF15C0E6FF64ECABF0166E060E5A
:10506000E15E16500C01305101E07CD0100EE66E6E
:10507000E66AE66A490EE66E0C0EE66EB2ECABF03E
:10508000146E050EE15E14500301EC6B380EED6FEB
:10509000EE6BEF6B3DECAFF00C01346B100E345D3A
:1050A0000FE24DECAFF0E66E0C013451EA6A490FA5
:1050B000E96E0C0EEA22E552E750EF6E342BEED784
:1050C0007AECAFF0490EE66E0C0EE66E3CECACF0FE
:1050D000E552E552F3CF33FC0C013051100DF3CF04
:1050E00014F0F4CF15F0810E1426010E152214C011
:1050F000E6FF15C0E6FF3CECACF0E552E552F3CF1D
:1051000034FC0C013451335D06E00101010EB16F36
:10511000000E60D027D03351E66EE66A3051100D94
:10512000F3CF14F0F4CF15F0810E1426010E1522E2
:1051300014C0E6FF15C0E6FF490EE66E0C0EE66EE3
:105140001CECABF0166E060EE15E165000090AE08C
:105150000201006B016B026B036B0101010EB16F69
:10516000000E38D0020E0C01305D31E10301F76B07
:10517000380EF86FF96BFA6BB4ECAFF00C01010E5E
:10518000336F030E335D1EE2346B100E345D18E294
:105190003351100DF3CF14F0F4CF15F0810E142617
:1051A000010E152234510F011424E96E000E152052
:1051B000EA6EEFCFFBF3C4ECAFF00C01342BE5D774
:1051C000332BDFD7D8ECAFF00101020EB16FC9D598
:1051D000000E00D012000C013A0E306F020E316F3B
:1051E0000201E251040A01E1A7D3070A01E1B9D2A1
:1051F000010A3CE0030A20E0010A01E0B2D3330EC9
:10520000E66EE66A0C0EE66E010EE66E30CCE6FF48
:1052100031CCE6FF64ECABF0146E060EE15E145088
:1052200030CCE9FF31CCEAFF2C0EE926000EEA2251
:10523000EF9C0201010EE26F0051011102110311F6
:1052400003E1030EE26F8DD3080E0501EF6FF06BE3
:1052500005011A0EED6F020EEE6F18EC4EF002080B
:1052600002E1010E80D30201020EE26F180E050169
:10527000F36FF46B0501220EF16F020EF26F39EC41
:105280004EF0020802E1010E6ED30201010EE26F40
:10529000F50EE66EF40EE66E000EE66E1A0EE66E83
:1052A000020EE66EECECABF0146E050EE15E1450EF
:1052B00000093BE130CCE9FF31CCEAFFE9CFC9F688
:1052C000EACFCAF60601220EC76F020EC86FCCECF9
:1052D0006FF0000926E0040EE66EE66A30CCE9FFC6
:1052E00031CCEAFFE9CF14F0EACF15F014C0E6FFA5
:1052F00015C0E6FF30CCE9FF31CCEAFF140EE926F9
:10530000000EEA22E9CF16F0EACF17F016C0E6FF4A
:1053100017C0E6FF64ECABF0186E060EE15E1850A5
:1053200003D00201040EE26F1BD2ED0EE66EF40E06
:10533000E66E000EE66E1A0EE66E020EE66EECECFF
:10534000ABF0146E050EE15E1450000919E130CC8B
:10535000E9FF31CCEAFF080EE926000EEA22E9CF88
:10536000C9F6EACFCAF60601220EC76F020EC86F51
:10537000CCEC6FF0000903E10201040EE26FF0D102
:10538000E60EE66EF40EE66E000EE66E1A0EE66EA1
:10539000020EE66EECECABF0146E050EE15E1450FE
:1053A000000942E130CCE9FF31CCEAFF040EE926E6
:1053B000000EEA22E9CFC9F6EACFCAF60601220EAC
:1053C000C76F020EC86FCCEC6FF0000929E0040E25
:1053D000E66EE66A30CCE9FF31CCEAFFE926000E42
:1053E000EA22E9CF14F0EACF15F014C0E6FF15C0A9
:1053F000E6FF30CCE9FF31CCEAFF180EE926000EBB
:10540000EA22E9CF16F0EACF17F016C0E6FF17C080
:10541000E6FF64ECABF0186E060EE15E185003D0A8
:105420000201040EE26F9CD1E10EE66EF40EE66E10
:10543000000EE66E1A0EE66E020EE66EECECABF0B7
:10544000146E050EE15E1450000919E130CCE9FF3D
:1054500031CCEAFF0C0EE926000EEA22E9CFC9F6AC
:10546000EACFCAF60601220EC76F020EC86FCCEC57
:105470006FF0000903E10201040EE26F71D1DC0E4E
:10548000E66EF40EE66E000EE66E1A0EE66E020E84
:10549000E66EECECABF0146E050EE15E1450000904
:1054A00019E130CCE9FF31CCEAFF100EE926000EFD
:1054B000EA22E9CFC9F6EACFCAF60601220EC76F83
:1054C000020EC86FCCEC6FF0000903E10201040E7C
:1054D000E26F46D1D80EE66EF40EE66E000EE66E72
:1054E0001A0EE66E020EE66EECECABF0146E050ED4
:1054F000E15E1450000901E0A4D00C01220E326FCD
:10550000020E336F386B0C0E385D62E232CCE9FF6D
:1055100033CCEAFFEF5034E032CCE9FF33CCEAFF82
:10552000EFCF14F0300E145C07E332CCE9FF33CC3C
:10553000EAFFEF50390824E232CCE9FF33CCEAFF2E
:10554000EFCF15F0410E155C07E332CCE9FF33CC09
:10555000EAFFEF50460814E232CCE9FF33CCEAFF11
:10556000EFCF16F0610E165C07E332CCE9FF33CCC7
:10557000EAFFEF50660804E2322B000E3323C6D751
:1055800032CCE9FF33CCEAFFEF500EE10C0E385D70
:105590000AE23851EA6A1A0FE96E020EEA22300E68
:1055A000EF6E382BF3D714D032CCE9FF33CCEAFFBF
:1055B000322B000E3323EF50E66E3851EA6A1A0F91
:1055C000E96E020EEA22E552E750EF6E382B9BD7C8
:1055D000386B060E385D34E23851E824EA6A1A0F57
:1055E000E96E020EEA22EFCF37FC3851E824010FB2
:1055F000EA6A1A0FE96E020EEA22EFCF36FC36CCC9
:10560000DCF637CCDDF6B6EC72F0E66E30CCE9FFB6
:1056100031CCEAFF2D0EE926000EEA22E9CF14F084
:10562000EACF15F00C0138510F011424E96E000E79
:105630001520EA6EE552E750EF6E0C01382BC9D702
:105640008FD0D30EE66EF40EE66E000EE66E1A0EE6
:10565000E66E020EE66EECECABF0146E050EE15E4B
:105660001450000954E1220EE66E020EE66E3CEC88
:10567000ACF0E552E552F3CF34FCF4CF35FC0C012D
:105680000F0E345D000E355910E2080EEA6A34251B
:10569000E96E3551EA221A0EE926020EEA22200EA0
:1056A000EF6E342B000E3523EAD70F0EE66EE66A56
:1056B000220EE66E020EE66E30CCE9FF31CCEAFF38
:1056C0001C0EE926000EEA22E9CF14F0EACF15F00D
:1056D00014C0E6FF15C0E6FF64ECABF0166E060ED4
:1056E000E15E165030CCE9FF31CCEAFF1C0EE92612
:1056F000000EEA22E9CF14F0EACF15F014C0E6FF5D
:1057000015C0E6FF9DECACF0E552E55229D0CC0E79
:10571000E66EF40EE66E000EE66E1A0EE66E020EF1
:10572000E66EECECABF0146E050EE15E1450000971
:1057300017E1310E0201225D0AE130CCE9FF31CCE4
:10574000EAFF2C0EE926000EEA22EF8C09D030CCBD
:10575000E9FF31CCEAFF2C0EE926000EEA22EF9C8D
:1057600000D130CCE9FF31CCEAFF2C0EE926000E47
:10577000EA22EF50400B64E030CCE9FF31CCEAFF85
:10578000140EE926000EEA22C00EEF6E30CCE9FFBF
:1057900031CCEAFF140EE926000EEA22010EE926BA
:1057A000000EEA22A80EEF6E30CCE9FF31CCEAFF02
:1057B000140EE926000EEA22020EE926000EEA2265
:1057C000010EEF6E30CCE9FF31CCEAFF140EE92672
:1057D000000EEA22030EE926000EEA226E0EEF6E9C
:1057E00030CCE9FF31CCEAFF180EE926000EEA22A0
:1057F000EF6830CCE9FF31CCEAFF180EE926000E45
:10580000EA22010EE926000EEA22EF6830CCE9FF19
:1058100031CCEAFF180EE926000EEA22020EE92634
:10582000000EEA22EF6830CCE9FF31CCEAFF180E17
:10583000E926000EEA22030EE926000EEA22EF6AAC
:1058400030CC32FC31CC33FC0301F76BF86BF96BD5
:10585000FA6BB4ECAFF00301600EFB6FC4ECAFF079
:105860000C01346B356B330E345D000E355910E28C
:1058700032CCE9FF33CCEAFF322B000E3323EFCFDB
:10588000FBF3C4ECAFF00C01342B000E3523EBD747
:10589000D8ECAFF03EECB0F0000901E0FBD7B70E5A
:1058A000E66EF40EE66E000EE66E1A0EE66E020E60
:1058B000E66E23ECACF0146E050EE15E1450100E93
:1058C000E66EE66A30CCE9FF31CCEAFF1C0EE92631
:1058D000000EEA22E9CF14F0EACF15F014C0E6FF7B
:1058E00015C0E6FF2E0EE66E020EE66E64ECABF01F
:1058F000166E060EE15E16500C011A0E326F020E85
:10590000336F32CCE9FF33CCEAFFEF5020080AE0D6
:1059100032CCE9FF33CCEAFFEF5004E0322B000E2B
:105920003323EFD732CCE9FF33CCEAFFEF6A020131
:105930000B0E186F000E17D09D0EE66EF40EE66E7D
:10594000000EE66E1A0EE66E020EE66E23ECACF06A
:10595000146E050EE15E145002010B0E186F000E5E
:1059600002D0020E00D012000201E251020A01E14F
:105970001AD1030A01E178D0010A02E0000EA6D193
:105980000501060EBF6F050EC06F6EEC74F00401CA
:10599000926B0401906B916B04018E6B8F6B020E06
:1059A00004018C6F8D6B04019A0E896FF40E8A6F5F
:1059B000000E8B6F0201E751E96EEA6AD890E93672
:1059C000EA36E30EE926020EEA22EE52EFCF88F421
:1059D000B3EC09F0F3CF31FCF4CF32FC0C01311DF4
:1059E00001E1321D02E1010E71D1060E156A312569
:1059F000146E32511522166A176A14500201005FA4
:105A00001550015B1650025B1750035B020E0C0130
:105A1000312504017B6F000E0C01322104017C6FE3
:105A20000401796B7A6B0201E751E96EEA6AD8905A
:105A3000E936EA36E30EE926020EEA22EE52EFCF0D
:105A400078F424EC07F0F3CF14F0F4CF15F0166AD5
:105A5000176A14500201005F1550015B1650025B7B
:105A60001750035B010EE26F0401926B0401906B0F
:105A7000916B04018E6B8F6B040E04018C6F8D6B28
:105A80000401950E896FF40E8A6F000E8B6F020170
:105A9000E751E96EEA6AD890E936EA36E30EE9267C
:105AA000020EEA22EE52EFCF88F4B3EC09F0F3CF06
