:100E09003031323334353637383941424344454637
:100E1900003BF424003BF424003BF42400010405C6
:0B0E2900070306C1C5C3C7D1D5D2D650
:1008BF00C11801260002240000C11A012F0060C0D8
:1008CF00001320303030302E303020303030302E8A
:1008DF00303020303030302E303020303030302E2D
:1008EF00303020303030302E303020303030302E1D
:1008FF00303020303030302E303020303030302E0D
:10090F00303020303030302E303020303030302EFC
:10091F00303020303030302E303020303030302EEC
:10092F00303020303030302E303020303030302EDC
:10093F00303020303030302E303020303030302ECC
:10094F00303020303030302E303020303030302EBC
:10095F00303020303030302E303020303030302EAC
:10096F00303020303030302E303020303030302E9C
:10097F00303020303030302E303020303030302E8C
:05098F003030015500AD
:060DD3008B088A09890A61
:100DD900E4FFEFC3950E5027AB0B050DE50DAA0CEB
:100DE9007002050C14F91201EBFEAB08050AE50ABD
:0F0DF900AA097002050914F9EE1202040F80D343
:010E080022C7
:100F1B00EFC39430400CEFD394395006C3EF9430A9
:070F2B00FF22EF24C9FF22A1
:10059D008B108A1189128F168E158D148C130512DE
:1005AD00E5127002051114F974201202047BA07A71
:1005BD008679017800AF16AE15AD14AC131202A7F3
:1005CD0074092FF582740E3EF583E493FFAB10058D
:1005DD0012E512AA117002051114F9EF1202047B33
:1005ED00A07A8679017800AF16AE15AD14AC131252
:1005FD0002A7AC00AD01AE02AF03E47B107A27F980
:10060D00F81202A774092FF582740E3EF583E49358
:10061D00FFAB100512E512AA117002051114F9EFC6
:10062D00120204E517B44913AB100512E512AA1115
:10063D007002051114F9742E120204E47B107A274E
:10064D00F9F8AF16AE15AD14AC131202A7AC00AD90
:10065D0001AE02AF03E47BE87A03F9F81202A77446
:10066D00092FF582740E3EF583E493FFAB1005124E
:10067D00E512AA117002051114F9EF120204E47BC0
:10068D00E87A03F9F8AF16AE15AD14AC131202A744
:10069D00AC00AD01AE02AF03E47B64FAF9F81202CF
:1006AD00A774092FF582740E3EF583E493FFAB100A
:1006BD000512E512AA117002051114F9EF120204C8
:1006CD00E51764566005E517B45013AB100512E538
:1006DD0012AA117002051114F9742E120204E47B92
:1006ED0064FAF9F8AF16AE15AD14AC131202A7AC3F
:1006FD0000AD01AE02AF03E47B0AFAF9F81202A7CE
:10070D0074092FF582740E3EF583E493FFAB10054B
:10071D0012E512AA117002051114F9EF120204E488
:10072D007B0AFAF9F8AF16AE15AD14AC131202A789
:10073D0074092BF582740E3AF583E493FFAB100523
:0F074D0012E512AA117002051114F9EF0202044D
:100D9C00E52924BD6016147029AF2A120F1B784C5C
:100DAC00EFF6C39406501F7856764422AF2A120FE2
:100DBC001B782EA60778567641752602E4F524F5A5
:070DCC0025227856765A2219
:100995007830765B782DE67831F67856E624BF60B8
:1009A5007A24FE606324E97003020A332416600387
:1009B500020A47784CE6FF900E09937832F6EF75F8
:1009C500F018A42413F9740035F0750B01F50C89A2
:1009D5000D750E087B007A007933120DD3784CE63D
:1009E50075F018A4241BF9740035F0750B01F50C8E
:1009F500890D750E087B007A00793B120DD378437B
:100A0500765D784F7614803A78327643782EE69084
:100A15000E09937833F608764F801D7832764108B3
:100A2500764308764B08765D784F760680147832E3
:100A3500766E08764108764308764B08765D784FE2
:0E0A45007607E47850F6D2A1D2997856F622C0
:100A5300E4F519F51AF518051AE51AAE1970020529
:100A63001914FF120ECB74002518F582E43400F537
:100A730083EFF00518E518C3941340DB900012E0F0
:100A83007066900000E0FDA3E0FBA3E0F5137F0296
:100A9300120EAA900003E0FDA3E0FBA3E0F5137F91
:100AA30004120EAA900006E0FDA3E0FBA3E0F513F9
:100AB3007F06120EAA900009E0FDA3E0FBA3E0F578
:100AC300137F08120EAA90000CE0FDA3E0FBA3E045
:100AD300F5137F20120EAA90000FE0FDA3E0FBA305
:080AE300E0F5137F22120EAAB8
:010AEB0022E8
:10075C00E4F509F50AAF0AAE09120F027F02120B7B
:10076C007878511203A07851120384900000EFF0B6
:10077C007851120384780812035D900001EFF07831
:10078C0051120384781012035D900002EFF07F0485
:10079C00120B7878511203A0785112038490000345
:1007AC00EFF07851120384780812035D900004EF87
:1007BC00F07851120384781012035D900005EFF06D
:1007CC007F06120B7878511203A078511203849093
:1007DC000006EFF07851120384780812035D900044
:1007EC0007EFF07851120384781012035D90000823
:1007FC00EFF07F08120B7878511203A07851120396
:10080C0084900009EFF07851120384780812035D8C
:10081C0090000AEFF07851120384781012035D9067
:10082C00000BEFF07F20120B7878511203A0785157
:10083C0012038490000CEFF07851120384780812A4
:10084C00035D90000DEFF0785112038478101203C1
:10085C005D90000EEFF07F22120B7878511203A0FE
:10086C00785112038490000FEFF0785112038478C2
:10087C000812035D900010EFF07851120384781089
:10088C0012035D900011EFF0E4A3F0F508050AE502
:10089C000AAE097002050914FF74002508F582E4FC
:1008AC003400F583E0FD120EE70508E508C3941348
:0208BC0040DB1F
:0108BE002217
:100C0200AE24AF257C007D1E120216ED4C7002B29E
:100C120019E52564644524700FC2A7782FF6D281A6
:100C2200C2B5C2B4C280C2B2E5256467452470026F
:100C3200D2A7E525646845247023C2837FFF120E84
:100C42005E7FFF120E5E7FFF120E5E7FFE120E5E51
:100C5200D2837513637B10E4FDFF120EAAE52564AF
:100C62006A4524701E7FE8120E86782DA690E6C48F
:100C7200540FF6E6900E0993F6752601E4F524F575
:040C820025C2A122C4
:1003AC007F1E120B7878511203A078511203848FA0
:1003BC00227851120384780812035D8F2178511230
:1003CC000384781012035D8F2020070302058778C1
:1003DC005506E664036033852213AB21AD207F1EE6
:1003EC00120EAA7F18120B788F0F8E0E8D0D8C0C9F
:1003FC007F16120B788F0F8E0E8D0D8C0C7F1212B8
:10040C000B788F0F8E0E8D0D8C0C7855E6C39403E4
:10041C005003020587E4F67F18120B78EC12012CBE
:10042C008F0B8E0A8D098C08900E1A1203901200F5
:10043C00268F0B8E0A8D098C0812016A8F0F8E0E77
:10044C008D0D8C0C782FE675F018A42413F974001C
:10045C0035F0FA7B01AF0FAE0E75175612059D7F66
:10046C0016120B78EC12012C8F0B8E0A8D098C084E
:10047C00900E1E1203901200268F0B8E0A8D098C83
:10048C000812016A8F0F8E0E8D0D8C0C782FE6756D
:10049C00F018A4241BF9740035F0FA7B01AF0FAEF1
:1004AC000E75174912059D7F12120B788F0F8E0E49
:1004BC008D0D8C0CC21BE50D5480FDED6013D21B11
:1004CC00E50FF50FE50EF50EE50D547FF50DE4F592
:1004DC000CAF0FAE0EAD0DAC0CE412012C8F0B8ECD
:1004EC000A8D098C08900E221203901200268F0B95
:1004FC008E0A8D098C0812016A8F0F8E0E8D0D8C51
:10050C000C782FE675F018A42423F9740035F0FA52
:10051C007B01AF0FAE0E75175012059D301B137873
:10052C002FE675F018A42423F582E43400F58374C7
:10053C002DF0852213AB21AD207F1E120EAA782F31
:10054C0006E6C394064002E4F6782FE6900E269356
:10055C00784DF6D280D2B230E004D2818002C281D2
:10056C00784DE6FF30E104D2B58002C2B5EF30E23F
:10057C0004D2B48002C2B4C280C2B2AE24AF257C15
:10058C00007D64120216ED4C7006F524F525B219A7
:01059C00223C
:100E34007F1E120B7878511203A078511203848F0D
:100E4400227851120384780812035D8F217851129D
:0A0E54000384781012035D8F202242
:100D4500C2197513FF7BFF7DFF7F1E120EAA7FA0C0
:100D5500120E867513FF7BFF7DFF7F1E120EAA788C
:100D65002EE6900E2C93FF120E86C2072007051261
:100D75000E3480F8852213AB21AD207F1E120EAAFA
:100D850012075C7FE8120E8678567643D2197526CF
:070D950001E4F524F525221D
:05000600A21992A322E3
:100CE700C2A1C2A3120F323018FDC218301A051262
:100CF7000D9CC21A7856E66003120995AE24AF25FB
:100D0700E4FCFD7BFA7AFFF9F8D3120347400805A4
:100D170025E52570020524E52614600C14600E24D1
:100D270002700F120C0280111203AC800C120D45D9
:0E0D37008007E4F526F524F52512000680A9B4
:03000300020012E6
:0100120032BB
:03000B00020F8E53
:090F8E00758CD5758A9DD21832CC
:03001300020016D2
:0100160032B7
:03001B00020017C9
:0100170032B6
:03002300020C8646
:0D0C8600C0E0C0D075D000C000C001C007A4
:100C930030982BC298201A26AF99BF5B04784E7602
:100CA30000784EE6062427F8A607784EE6B4060E2B
:100CB3007600BF5D09E528782D667002D21A309957
:100CC30018C2997950E7C3784F96500B08E606246B
:090CD30030F8E6F5998002C2A197
:0B0CDC00D007D001D000D0D0D0E03213
:100E5E00E4FEFDC290EF30E704D2A48002C2A4EEFD
:100E6E0025E0FED282308203430601D290EF25E0C8
:070E7E00FF0DBD08DEAF0609
:010E8500224A
:100E8600AC07C2837FFF120E5E7FFF120E5E7FFFEE
:100E9600120E5E7FFE120E5ED283C283AF04120E66
:040EA6005ED2832273
:100B7800E4FCFBFAF514C290C283C283C283C28329
:100B8800120E5E7FFE120E5EAC077FFE120E5EAB8B
:100B9800077FFE120E5EAA07AF04E48F13F512F565
:100BA80011F510AE12AD11AC1078081203718F1345
:100BB8008E128D118C10AF03E5134FF513E512F566
:100BC80012E511F511E510F510AF13AE12AD11FCD9
:100BD80078081203718F138E128D118C10AF02E5F5
:100BE800134FF513E512F512E511F511E510F5109F
:090BF800D283AF13AE12AD11FC63
:010C010022D0
:100EAA00AE07AC03AB05C283EE4440FF120E5EAF41
:100EBA0003120E5EAF04120E5EAF13120E5ED283E1
:010ECA002205
:0E0F6700E4F5E7F5E5F5E675E3FF75E4FF2236
:040ECB00AD07AC06BD
:100ECF0075E78575E5018CE3AF058FE475E65A7517
:070EDF00E6A5AFE2120F6768
:010EE60022E9
:100EE700AB07AA0675E78575E5028AE3AF038FE4CA
:0B0EF7008DE275E65A75E6A5020F6754
:100F0200AD07AC0675E78575E5038CE3AF058FE4A5
:090F120075E65A75E6A5020F67A9
:0D0F75007580FF7590FF75A0FF75B0FF221D
:070F9700D288D2B8C2A822E3
:100F4700438901758CD5758A9DD28CD2A9C2B922E5
:100F5700438920758DFD758BFDD28EC2ABC2BB2236
:0C0F8200759850D2BCD2ACC299C2982223
:04000E0075E107226F
:100F320012000E120F75120F47120F57120F97124F
:050F42000F82D2AF2276
:10002600EC4D6011E8497017ED33EC3304600DE4D4
:10003600FCFFFEFD22E933E8330470F80201D61214
:1000460001A158046009E4CC248150062850090215
:1000560001E02840030201DDC0E0EB4A7044B980AC
:1000660006D0E0FB0201CCEF4E701CBD8008EBFF12
:10007600EAFEE9FD80EBE98DF0A4FEE5F002010F52
:10008600E9CDF9EAFEEBFFEF89F0A4FCE5F0CE89B5
:10009600F0A42EFFE435F0CD89F0A42DFEE435F072
:1000A6008067EF4E7005BD80D780C3EF8BF0A4ACA0
:1000B600F0EE8BF0A42CFCE435F0F8EF8AF0A42CDB
:1000C600E5F038FCE433CB8DF0A42CFCE5F03BF8EE
:1000D600EE8AF0A42CFCE5F038F8E433CF89F0A4DE
:1000E6002CFCE5F038CF3400CE89F0A42FFFE5F0E4
:1000F6003EFEE433C98DF0A42EFEE5F039CD8AF03C
:10010600A42FFFE5F03EFEE43DFD33D0E0FB5007B3
:100116000BBB000F0201E0EC2CFCEF33FFEE33FECD
:06012600ED33FD0201B8FB
:10012C0075F020800E75F010800575F0087D007E4E
:10013C00007F003392D530D503120339EC334010D5
:10014C00EF33FFEE33FEED33FDEC33FCD5F0ED2257
:0E015C00E5F0247EA2D513CC92E7CDCEFF2293
:10016A00EDD2E7CD33EC3392D524814006E4FFFE8D
:10017A00FDFC22FCE4CFCECDCC24E0501174FF80EC
:10018A00EDC3CC13CCCD13CDCE13CECF13CF047089
:07019A00F030D5DE0203394D
:1001A100E9D2E7C933E833F892D5EDD2E7CD33ECA4
:0701B10033FC5002B2D5221D
:1001B800EC30E7100FBF000C0EBE00080DBD0004A8
:1001C8000BEB6014A2D5EB13FCED92E7FD2274FF54
:1001D800FCFDFEFF22E480F8A2D574FF13FC7D80AD
:0301E800E480EFC1
:03000000020AEC05
:0C0AEC00787FE4F6D8FD758156020B33CC
:1001EB00BB010689828A83E0225002E722BBFE0212
:0901FB00E32289828A83E4932245
:10020400BB010689828A83F0225002F722BBFE01D9
:02021400F322D3
:10021600BC000BBE0029EF8DF084FFADF022E4CCCC
:10022600F875F008EF2FFFEE33FEEC33FCEE9DEC95
:10023600984005FCEE9DFE0FD5F0E9E4CEFD22EDDB
:10024600F8F5F0EE8420D21CFEADF075F008EF2F25
:10025600FFED33FD4007985006D5F0F222C398FD16
:050266000FD5F0EA22B3
:10026B0075F008758200EF2FFFEE33FECD33CDCC4A
:10027B0033CCC58233C5829BED9AEC99E5829840CD
:10028B000CF582EE9BFEED9AFDEC99FC0FD5F0D6AA
:10029B00E4CEFBE4CDFAE4CCF9A88222B800C1B9D4
:1002AB000059BA002DEC8BF084CFCECDFCE5F0CB12
:1002BB00F97818EF2FFFEE33FEED33FDEC33FCEB4B
:1002CB0033FB10D703994004EB99FB0FD8E5E4F906
:1002DB00FA227818EF2FFFEE33FEED33FDEC33FCF3
:1002EB00C933C910D7059BE99A4007EC9BFCE99AE7
:1002FB00F90FD8E0E4C9FAE4CCFB2275F010EF2F2C
:10030B00FFEE33FEED33FDCC33CCC833C810D7072B
:10031B009BEC9AE899400AED9BFDEC9AFCE899F866
:0E032B000FD5F0DAE4CDFBE4CCFAE4C8F922F9
:0E033900C3E49FFFE49EFEE49DFDE49CFC22D5
:10034700EB9FF5F0EA9E42F0E99D42F0EC6480C82D
:0603570064809845F022CD
:10035D00E86010ECA2E713FCED13FDEE13FEEF13B6
:04036D00FFD8F022A3
:10037100E8600FEFC333FFEE33FEED33FDEC33FCEA
:03038100D8F1228E
:0C038400E6FC08E6FD08E6FE08E6FF22A5
:10039000E493F8740193F9740293FA740393FB22C3
:0C03A000ECF608EDF608EEF608EFF62289
:100AF800020CE7E493A3F8E493A34003F68001F221
:100B080008DFF48029E493A3F85407240CC8C333FE
:100B1800C4540F4420C8834004F456800146F6DFCD
:100B2800E4800B01020408102040809008BFE47E96
:100B3800019360BCA3FF543F30E509541FFEE493C2
:100B4800A360010ECF54C025E060A840B8E493A389
:100B5800FAE493A3F8E493A3C8C582C8CAC583CAB4
:100B6800F0A3C8C582C8CAC583CADFE9DEE780BE6C
:010994000062
:00000001FF
