:0D0EA2007580FF7590FF75A0FF75B0FF22F1
:070ED100D288D2B8C2A822AA
:100E7400438901758CD5758A9DD28CD2A9C2B922B9
:100E8400438920758DFD758BFDD28EC2ABC2BB220A
:0C0EBC00759850D2BCD2ACC299C29822EA
:04000E0075E107226F
:100E5F0012000E120EA2120E74120E84120ED11266
:050E6F000EBCD2AF2211
:100D5900E4FEFDC290EF30E704D2A48002C2A4EE03
:100D690025E0FED282308203430601D290EF25E0CE
:070D7900FF0DBD08DEAF060F
:010D80002250
:100D8100AC07C2837FFF120D597FFF120D597FFF00
:100D9100120D597FFE120D59D283C283AF04120D79
:040DA10059D283227E
:10098500E4FCFBFAF51AC290C283C283C283C28318
:10099500120D597FFE120D59AC077FFE120D59AB92
:1009A500077FFE120D59AA07AF04E48F19F518F554
:1009B50017F516AE18AD17AC1678081202008F1988
:1009C5008E188D178C16AF03E5194FF519E518F537
:1009D50018E517F517E516F516AF19AE18AD17FC9E
:1009E50078081202008F198E188D178C16AF02E544
:1009F500194FF519E518F518E517F517E516F51664
:090A0500D283AF19AE18AD17FC45
:010A0E0022C5
:100DC800AE07AC03AB05C283EE4440FF120D59AF2A
:100DD80003120D59AF04120D59AF19120D59D283D0
:010DE80022E8
:100DA500303132333435363738394142434445469C
:100DB5000004ED0001020304050607C9CDCACED122
:030DC500D5D2D6AE
:100B8300C118010A0002080000C11A012E006020EA
:100B9300003300000000000000000000000000001F
:100BA3000000000000000000000000000000000042
:100BB300000060200013000000000000000000009F
:100BC3000000000000000000000000000000000022
:0D0BD3000000000000000258D9C7016000BA
:0C0EAF00E4FEEED39F500500000E80F61C
:010EBB002214
:060CC6008B128A13891451
:100CCC00E4FFFEEEC39518502EAB15AA16A9171209
:100CDC0000262FFF0517E5177002051614F91200F0
:100CEC0026FDAB120514E514AA137002051314F9B2
:070CFC00ED12003F0E80CC59
:010D030022CD
:100E4800EFC39430400CEFD394395006C3EF94307D
:070E5800FF22EF24C9FF2275
:1003F1008B248A2589268F2A8E298D288C270526EC
:10040100E5267002052514F9742012003F7BA07ABD
:100411008679017800AF2AAE29AD28AC27120131C7
:1004210074A52FF582740D3EF583E493FFAB24058B
:1004310026E526AA257002052514F9EF12003F7B57
:10044100A07A8679017800AF2AAE29AD28AC2712AF
:100451000131AC00AD01AE02AF03E47B107A27F9A4
:10046100F812013174A52FF582740D3EF583E493E2
:10047100FFAB240526E526AA257002052514F9EF10
:1004810012003FE52BB44913AB240526E526AA2526
:100491007002052514F9742E12003FE47B107A27AF
:1004A100F9F8AF2AAE29AD28AC27120131AC00AD65
:1004B10001AE02AF03E47BE87A03F9F8120131746B
:1004C100A52FF582740D3EF583E493FFAB24052639
:1004D100E526AA257002052514F9EF12003FE47BF9
:1004E100E87A03F9F8AF2AAE29AD28AC2712013119
:1004F100AC00AD01AE02AF03E47B64FAF9F812017E
:100501003174A52FF582740D3EF583E493FFAB247E
:100511000526E526AA257002052514F9EF12003FEC
:10052100E52B64566005E52BB45013AB240526E595
:1005310026AA257002052514F9742E12003FE47BCA
:1005410064FAF9F8AF2AAE29AD28AC27120131AC13
:1005510000AD01AE02AF03E47B0AFAF9F8120131F2
:1005610074A52FF582740D3EF583E493FFAB24054A
:1005710026E526AA257002052514F9EF12003FE4AD
:100581007B0AFAF9F8AF2AAE29AD28AC271201315E
:1005910074A52BF582740D3AF583E493FFAB240522
:0F05A10026E526AA257002052514F9EF02003F72
:100D0400E50E24FB600C14601A24037019786176D4
:100D14004422782DA60F78617643750A02E4F5081B
:0B0D2400F50922020BE17861765A22EB
:1007C700782F766C087663782CE67831F67861E6D0
:1007D70024BF605C24FE602D24E9606724167077CF
:1007E7007515017516007517337518207B007A008B
:1007F7007932120CC67831E62F7852F608760D78E2
:100807005A76258052900011E07832F6900010E079
:1008170008F690000FE008F690000BE008F690004D
:100827000AE008F6900009E008F6785A760980276A
:100837007832764108764308764B08765D785A76A3
:100847000780147832766E08764108764308764B2F
:1008570008765D785A7608E4785BF6C2A1D2997873
:0208670061F638
:01086900226C
:10071300E4F51CF51DF51B051DE51DAE1C7002055A
:100723001C14FF120DE97400251BF582E43400F557
:1007330083EFF0051BE51BC3941340DB900012E02D
:1007430060030207C6900002E0FD900001E0FB9009
:100753000000E0F5197F02120DC8900005E0FD903E
:100763000004E0FB900003E0F5197F04120DC8902C
:100773000008E0FD900007E0FB900006E0F5197F1C
:1007830006120DC890000BE0FD90000AE0FB9000FC
:1007930009E0F5197F08120DC890000EE0FD9000E6
:1007A3000DE0FB90000CE0F5197F20120DC89000BE
:1007B30011E0FD900010E0FB90000FE0F5197F229F
:0307C300120DC84C
:0107C6002210
:1005B000E4F513F514AF14AE13120E2A7F021209DC
:1005C00085785C12021F785C120213900000EFF035
:1005D000785C12021378081201EC900001EFF078B9
:1005E0005C12021378101201EC900002EFF07F040D
:1005F000120985785C12021F785C120213900003C6
:10060000EFF0785C12021378081201EC900004EF0E
:10061000F0785C12021378101201EC900005EFF0F4
:100620007F06120985785C12021F785C1202139013
:100630000006EFF0785C12021378081201EC9000CB
:1006400007EFF0785C12021378101201EC900008AA
:10065000EFF07F08120985785C12021F785C1202A5
:1006600013900009EFF0785C12021378081201EC85
:1006700090000AEFF0785C12021378101201EC90EF
:10068000000BEFF07F20120985785C12021F785C66
:1006900012021390000CEFF0785C1202137808122B
:1006A00001EC90000DEFF0785C120213781012014B
:1006B000EC90000EEFF07F22120985785C12021F89
:1006C000785C12021390000FEFF0785C120213783E
:1006D000081201EC900010EFF0785C120213781011
:1006E0001201EC900011EFF0E4A3F0F5120514E50F
:1006F00014AE137002051314FF74002512F582E482
:100700003400F583E0FD120E0A0512E512C39413BE
:0207100040DBCC
:0107120022C4
:100A9100AE08AF097C007D1E120051ED4C7002B210
:100AA10019E50964644508700FC2A7782EF6C28162
:100AB100C2B4C2B5C280C2B2E5096467450870021A
:100AC100D2A7E509646845087026C2837FFF120D2D
:100AD100597FFF120D597FFF120D597FFE120D59DB
:100AE100D2837519637B10E4FDFF120DC8120C3C13
:100AF100E509646A450870187FE8120D81782CA613
:100B010090E6C4540FF6750A01E4F508F509D2A17F
:010B110022C1
:10022B007F1E120985785C12021F785C1202138FF5
:10023B0022785C12021378081201EC8F21785C1281
:10024B00021378101201EC8F202007030203DB78D6
:10025B006006E664036033852219AB21AD207F1E57
:10026B00120DC87F181209858F158E148D138C12E1
:10027B007F161209858F158E148D138C127F121217
:10028B0009858F158E148D138C127860E6C3940339
:10029B0050030203DBE4F67F181209858F158E14C9
:1002AB008D138C1278081201D98F158E148D138C27
:1002BB0012782EE625E025E02413F582E43400F5D0
:1002CB0083EEF0A3EFF07858E6FE08E6FFE4FCFDC2
:1002DB00AB15AA14A913A8121200A68F158E148D94
:1002EB00138C1278101201D98F158E148D138C125A
:1002FB00782EE6FB25E025E02434F582E43400F586
:10030B0083EFF078081201D9EB25E025E02433F5D3
:10031B0082E43400F583EFF07F161209858F158E7A
:10032B00148D138C1278081201D98F158E148D131E
:10033B008C12900DB6E493FE740193FFE4FCFDABBD
:10034B0015AA14A913A8121200A68F158E148D13BB
:10035B008C1278101201D98F158E148D138C127884
:10036B002EE6FB25E025E02436F582E43400F58308
:10037B00EFF078081201D9EB25E025E02435F58262
:10038B00E43400F583EFF0852219AB21AD207F1EFD
:10039B00120DC8782E06E6C394084002E4F6782EB8
:1003AB00E6900DB8937856F6D280D2B230E004D2F4
:1003BB00818002C2817856E6FF30E104D2B480021C
:1003CB00C2B4EF30E204D2B58002C2B5C280C2B271
:1003DB00AE08AF097C007D64120051ED4C7006F540
:0503EB0008F509B2193C
:0103F00022EA
:100D2F007F1E120985785C12021F785C1202138FE6
:100D3F0022785C12021378081201EC8F21785C1272
:0A0D4F00021378101201EC8F20222D
:10086A00C2A3E4782EF6D281C2B4C2B50000000059
:10087A00C280C2B200000000000000007FC8120E51
:10088A00AF7519FF7BFF7DFF7F1E120DC8000000A8
:10089A00007FC8120EAF7FA0120D81000000007504
:1008AA0019FF7BFF7DFF7F1E120DC8000000007F2D
:1008BA00C8120EAF782DE6900DC093FF120D81C2BB
:1008CA0007200708120D2F75E13880F5852219AB2C
:1008DA0021AD207F1E120DC81205B07FE8120D81CE
:0F08EA0078617643D219750A01E4F508F5092201
:100BE100C2A3751302751400AF14AE13120E2A902E
:100BF1000013E0FEA3E0FBAA06E4F9F8FFFE7DF096
:100C01007C55120C827858A60608A6078F12AF06EB
:100C1100AD070514E514AE137002051314FF120E8F
:100C21000A0514E514AE137002051314FFAD121278
:0B0C31000E0A7D017F127E02020E0AF7
:100C3C007514027515007F127E02120DE9EF640126
:100C4C0070330515E515AE147002051414FF120D62
:100C5C00E98F130515E515AE147002051414FF1277
:100C6C000DE9AD07AF13EF7F00FEEF2DFFE43E78EB
:050C7C0058F608A60770
:010C81002250
:05000600A21992A322E3
:100B1200C21BD2A1C2A3120E5F75E1382097082032
:100B22001B05120BE1D21B3018EFC21875E13830E9
:100B32001A05120D04C21A7861E660031207C7AEE5
:100B420008AF09E4FCFD7BFA7AFFF9F8D31201C37E
:100B520040080509E50970020508E50A14600C144D
:100B6200600E2402700F120A91801112022B800C67
:100B720012086A8007E4F50AF508F50912000680F2
:010B820098DA
:03000300020012E6
:0100120032BB
:03000B00020EC81A
:090EC800758CD5758A9DD2183293
:03001300020016D2
:0100160032B7
:03001B00020017C9
:0100170032B6
:03002300020A0FBF
:0F0A0F00C0E0C0D075D000C000C001C006C00755
:100A1E00309843C298201A3EAF99BF4C047857764F
:100A2E00007857E606240BF8A6077857E664077099
:100A3E0025F6E50CB4571FE50E6403600BE50E6456
:100A4E00056005E50EB4060EE511B40D09E50D7849
:100A5E002C667002D21A30991DC299795BE7C37861
:100A6E005A9650107F0A120EAF08E606242FF8E6AB
:060A7E00F5998002D2A1EF
:0D0A8400D007D006D001D000D0D0D0E03295
:0E0E9400E4F5E7F5E5F5E675E3FF75E4FF220A
:040DE900AD07AC06A0
:100DED0075E78575E5018CE3AF058FE475E646750E
:0C0DFD00E6B90000000000AFE2120E9406
:010E090022C6
:100E0A00AB07AA0675E78575E5028AE3AF038FE4A7
:100E1A008DE275E64675E6B90000000000020E9400
:100E2A00AD07AC0675E78575E5038CE3AF058FE47E
:0E0E3A0075E64675E6B90000000000020E9451
:030000000208F9FA
:0C08F900787FE4F6D8FD758161020940AB
:10002600BB010689828A83E0225002E722BBFE02D8
:09003600E32289828A83E493220B
:10003F00BB010689828A83F0225002F722BBFE01A0
:02004F00F3229A
:10005100BC000BBE0029EF8DF084FFADF022E4CC93
:10006100F875F008EF2FFFEE33FEEC33FCEE9DEC5C
:10007100984005FCEE9DFE0FD5F0E9E4CEFD22EDA2
:10008100F8F5F0EE8420D21CFEADF075F008EF2FEC
:10009100FFED33FD4007985006D5F0F222C398FDDD
:0500A1000FD5F0EA227A
:1000A600E88FF0A4CC8BF0A42CFCE98EF0A42CFCF9
:1000B6008AF0EDA42CFCEA8EF0A4CDA8F08BF0A477
:1000C6002DCC3825F0FDE98FF0A42CCD35F0FCEBD6
:1000D6008EF0A4FEA9F0EB8FF0A4CFC5F02ECD399B
:0F00E600FEE43CFCEAA42DCE35F0FDE43CFC2208
:1000F50075F008758200EF2FFFEE33FECD33CDCCC2
:1001050033CCC58233C5829BED9AEC99E582984044
:100115000CF582EE9BFEED9AFDEC99FC0FD5F0D621
:10012500E4CEFBE4CDFAE4CCF9A88222B800C1B94B
:100135000059BA002DEC8BF084CFCECDFCE5F0CB89
:10014500F97818EF2FFFEE33FEED33FDEC33FCEBC2
:1001550033FB10D703994004EB99FB0FD8E5E4F97D
:10016500FA227818EF2FFFEE33FEED33FDEC33FC6A
:10017500C933C910D7059BE99A4007EC9BFCE99A5E
:10018500F90FD8E0E4C9FAE4CCFB2275F010EF2FA3
:10019500FFEE33FEED33FDCC33CCC833C810D707A3
:1001A5009BEC9AE899400AED9BFDEC9AFCE899F8DE
:0E01B5000FD5F0DAE4CDFBE4CCFAE4C8F92271
:100C8200C2D5E830E70FB2D5E4C39BFBE49AFAE49D
:100C920099F9E498F8EC30E717B2D5120CB81201C2
:100CA20031E4C39BFBE49AFAE499F9E498F88003EF
:100CB20012013130D50DE4C39FFFE49EFEE49DFD99
:040CC200E49CFC2290
:1001C300EB9FF5F0EA9E42F0E99D42F0EC6480C8B3
:0601D30064809845F02253
:1001D900E8600FECC313FCED13FDEE13FEEF13FF04
:0301E900D8F12228
:1001EC00E86010ECA2E713FCED13FDEE13FEEF1329
:0401FC00FFD8F02216
:10020000E8600FEFC333FFEE33FEED33FDEC33FC5C
:03021000D8F12200
:0C021300E6FC08E6FD08E6FE08E6FF2217
:0C021F00ECF608EDF608EEF608EFF6220B
:10090500020B12E493A3F8E493A34003F68001F2EB
:1009150008DFF48029E493A3F85407240CC8C333F3
:10092500C4540F4420C8834004F456800146F6DFC2
:10093500E4800B0102040810204080900B83E47EC4
:10094500019360BCA3FF543F30E509541FFEE493B7
:10095500A360010ECF54C025E060A840B8E493A37E
:10096500FAE493A3F8E493A3C8C582C8CAC583CAA9
:10097500F0A3C8C582C8CAC583CADFE9DEE780BE61
:010BE0000014
:00000001FF
